{
  "contracts/LedgerDoc.sol": {
    "LedgerDoc": {
      "abi": [
        {
          "inputs": [],
          "stateMutability": "nonpayable",
          "type": "constructor"
        },
        {
          "anonymous": false,
          "inputs": [
            {
              "indexed": true,
              "internalType": "address",
              "name": "uploader",
              "type": "address"
            },
            {
              "indexed": false,
              "internalType": "bool",
              "name": "status",
              "type": "bool"
            }
          ],
          "name": "AuthorizationUpdated",
          "type": "event"
        },
        {
          "anonymous": false,
          "inputs": [
            {
              "indexed": true,
              "internalType": "uint256",
              "name": "documentId",
              "type": "uint256"
            },
            {
              "indexed": false,
              "internalType": "string",
              "name": "category",
              "type": "string"
            }
          ],
          "name": "DocumentCategoryTagged",
          "type": "event"
        },
        {
          "anonymous": false,
          "inputs": [
            {
              "indexed": true,
              "internalType": "uint256",
              "name": "documentId",
              "type": "uint256"
            },
            {
              "indexed": true,
              "internalType": "uint256",
              "name": "buyerId",
              "type": "uint256"
            },
            {
              "indexed": false,
              "internalType": "uint256",
              "name": "timestamp",
              "type": "uint256"
            }
          ],
          "name": "DocumentPurchased",
          "type": "event"
        },
        {
          "anonymous": false,
          "inputs": [
            {
              "indexed": true,
              "internalType": "uint256",
              "name": "documentId",
              "type": "uint256"
            }
          ],
          "name": "DocumentRemoved",
          "type": "event"
        },
        {
          "anonymous": false,
          "inputs": [
            {
              "indexed": true,
              "internalType": "uint256",
              "name": "documentId",
              "type": "uint256"
            },
            {
              "indexed": true,
              "internalType": "uint256",
              "name": "uploaderId",
              "type": "uint256"
            },
            {
              "indexed": false,
              "internalType": "string",
              "name": "title",
              "type": "string"
            },
            {
              "indexed": false,
              "internalType": "string[]",
              "name": "categories",
              "type": "string[]"
            },
            {
              "indexed": true,
              "internalType": "uint256",
              "name": "price",
              "type": "uint256"
            },
            {
              "indexed": false,
              "internalType": "uint256",
              "name": "uploadTime",
              "type": "uint256"
            },
            {
              "indexed": false,
              "internalType": "string",
              "name": "metadataCid",
              "type": "string"
            },
            {
              "indexed": false,
              "internalType": "string",
              "name": "encryptedCid",
              "type": "string"
            },
            {
              "indexed": false,
              "internalType": "string",
              "name": "descriptionCid",
              "type": "string"
            },
            {
              "indexed": false,
              "internalType": "string",
              "name": "previewCid",
              "type": "string"
            },
            {
              "indexed": false,
              "internalType": "string",
              "name": "thumbnailCid",
              "type": "string"
            },
            {
              "indexed": false,
              "internalType": "string",
              "name": "uploaderName",
              "type": "string"
            }
          ],
          "name": "DocumentUploaded",
          "type": "event"
        },
        {
          "anonymous": false,
          "inputs": [
            {
              "indexed": true,
              "internalType": "uint256",
              "name": "userId",
              "type": "uint256"
            },
            {
              "indexed": true,
              "internalType": "address",
              "name": "wallet",
              "type": "address"
            },
            {
              "indexed": false,
              "internalType": "string",
              "name": "name",
              "type": "string"
            },
            {
              "indexed": false,
              "internalType": "string",
              "name": "profileCid",
              "type": "string"
            },
            {
              "indexed": false,
              "internalType": "string",
              "name": "profileImageCid",
              "type": "string"
            },
            {
              "indexed": false,
              "internalType": "uint256",
              "name": "joinedAt",
              "type": "uint256"
            }
          ],
          "name": "UserRegistered",
          "type": "event"
        },
        {
          "anonymous": false,
          "inputs": [
            {
              "indexed": true,
              "internalType": "uint256",
              "name": "userId",
              "type": "uint256"
            },
            {
              "indexed": false,
              "internalType": "enum LedgerDoc.UserStatus",
              "name": "status",
              "type": "uint8"
            }
          ],
          "name": "UserStatusUpdated",
          "type": "event"
        },
        {
          "inputs": [
            {
              "internalType": "address",
              "name": "",
              "type": "address"
            }
          ],
          "name": "addressToUserId",
          "outputs": [
            {
              "internalType": "uint256",
              "name": "",
              "type": "uint256"
            }
          ],
          "stateMutability": "view",
          "type": "function"
        },
        {
          "inputs": [
            {
              "internalType": "uint256",
              "name": "",
              "type": "uint256"
            }
          ],
          "name": "documents",
          "outputs": [
            {
              "internalType": "uint256",
              "name": "id",
              "type": "uint256"
            },
            {
              "internalType": "string",
              "name": "metadataCid",
              "type": "string"
            },
            {
              "internalType": "string",
              "name": "encryptedCid",
              "type": "string"
            },
            {
              "internalType": "string",
              "name": "descriptionCid",
              "type": "string"
            },
            {
              "internalType": "string",
              "name": "previewCid",
              "type": "string"
            },
            {
              "internalType": "string",
              "name": "thumbnailCid",
              "type": "string"
            },
            {
              "internalType": "string",
              "name": "title",
              "type": "string"
            },
            {
              "internalType": "uint256",
              "name": "price",
              "type": "uint256"
            },
            {
              "internalType": "uint256",
              "name": "downloads",
              "type": "uint256"
            },
            {
              "internalType": "uint256",
              "name": "totalRating",
              "type": "uint256"
            },
            {
              "internalType": "uint256",
              "name": "ratingCount",
              "type": "uint256"
            },
            {
              "internalType": "uint256",
              "name": "uploaderId",
              "type": "uint256"
            },
            {
              "internalType": "uint256",
              "name": "uploadTime",
              "type": "uint256"
            },
            {
              "internalType": "enum LedgerDoc.DocumentStatus",
              "name": "status",
              "type": "uint8"
            }
          ],
          "stateMutability": "view",
          "type": "function"
        },
        {
          "inputs": [
            {
              "internalType": "uint256",
              "name": "docId",
              "type": "uint256"
            }
          ],
          "name": "getDocument",
          "outputs": [
            {
              "components": [
                {
                  "internalType": "uint256",
                  "name": "id",
                  "type": "uint256"
                },
                {
                  "internalType": "string",
                  "name": "metadataCid",
                  "type": "string"
                },
                {
                  "internalType": "string",
                  "name": "encryptedCid",
                  "type": "string"
                },
                {
                  "internalType": "string",
                  "name": "descriptionCid",
                  "type": "string"
                },
                {
                  "internalType": "string",
                  "name": "previewCid",
                  "type": "string"
                },
                {
                  "internalType": "string",
                  "name": "thumbnailCid",
                  "type": "string"
                },
                {
                  "internalType": "string",
                  "name": "title",
                  "type": "string"
                },
                {
                  "internalType": "string[]",
                  "name": "categories",
                  "type": "string[]"
                },
                {
                  "internalType": "uint256",
                  "name": "price",
                  "type": "uint256"
                },
                {
                  "internalType": "uint256",
                  "name": "downloads",
                  "type": "uint256"
                },
                {
                  "internalType": "uint256",
                  "name": "totalRating",
                  "type": "uint256"
                },
                {
                  "internalType": "uint256",
                  "name": "ratingCount",
                  "type": "uint256"
                },
                {
                  "internalType": "uint256",
                  "name": "uploaderId",
                  "type": "uint256"
                },
                {
                  "internalType": "uint256",
                  "name": "uploadTime",
                  "type": "uint256"
                },
                {
                  "internalType": "enum LedgerDoc.DocumentStatus",
                  "name": "status",
                  "type": "uint8"
                }
              ],
              "internalType": "struct LedgerDoc.Document",
              "name": "",
              "type": "tuple"
            }
          ],
          "stateMutability": "view",
          "type": "function"
        },
        {
          "inputs": [
            {
              "internalType": "address",
              "name": "wallet",
              "type": "address"
            }
          ],
          "name": "getUserByAddress",
          "outputs": [
            {
              "components": [
                {
                  "internalType": "uint256",
                  "name": "id",
                  "type": "uint256"
                },
                {
                  "internalType": "address",
                  "name": "wallet",
                  "type": "address"
                },
                {
                  "internalType": "string",
                  "name": "name",
                  "type": "string"
                },
                {
                  "internalType": "string",
                  "name": "profileCid",
                  "type": "string"
                },
                {
                  "internalType": "string",
                  "name": "profileImageCid",
                  "type": "string"
                },
                {
                  "internalType": "uint256",
                  "name": "joinedAt",
                  "type": "uint256"
                },
                {
                  "internalType": "enum LedgerDoc.UserStatus",
                  "name": "status",
                  "type": "uint8"
                }
              ],
              "internalType": "struct LedgerDoc.User",
              "name": "",
              "type": "tuple"
            }
          ],
          "stateMutability": "view",
          "type": "function"
        },
        {
          "inputs": [
            {
              "internalType": "uint256",
              "name": "userId",
              "type": "uint256"
            }
          ],
          "name": "getUserById",
          "outputs": [
            {
              "components": [
                {
                  "internalType": "uint256",
                  "name": "id",
                  "type": "uint256"
                },
                {
                  "internalType": "address",
                  "name": "wallet",
                  "type": "address"
                },
                {
                  "internalType": "string",
                  "name": "name",
                  "type": "string"
                },
                {
                  "internalType": "string",
                  "name": "profileCid",
                  "type": "string"
                },
                {
                  "internalType": "string",
                  "name": "profileImageCid",
                  "type": "string"
                },
                {
                  "internalType": "uint256",
                  "name": "joinedAt",
                  "type": "uint256"
                },
                {
                  "internalType": "enum LedgerDoc.UserStatus",
                  "name": "status",
                  "type": "uint8"
                }
              ],
              "internalType": "struct LedgerDoc.User",
              "name": "",
              "type": "tuple"
            }
          ],
          "stateMutability": "view",
          "type": "function"
        },
        {
          "inputs": [
            {
              "internalType": "uint256",
              "name": "userId",
              "type": "uint256"
            }
          ],
          "name": "getUserPurchases",
          "outputs": [
            {
              "components": [
                {
                  "internalType": "uint256",
                  "name": "documentId",
                  "type": "uint256"
                },
                {
                  "internalType": "uint256",
                  "name": "timestamp",
                  "type": "uint256"
                }
              ],
              "internalType": "struct LedgerDoc.Purchase[]",
              "name": "",
              "type": "tuple[]"
            }
          ],
          "stateMutability": "view",
          "type": "function"
        },
        {
          "inputs": [
            {
              "internalType": "uint256",
              "name": "userId",
              "type": "uint256"
            }
          ],
          "name": "getUserSales",
          "outputs": [
            {
              "components": [
                {
                  "internalType": "uint256",
                  "name": "documentId",
                  "type": "uint256"
                },
                {
                  "internalType": "uint256",
                  "name": "timestamp",
                  "type": "uint256"
                }
              ],
              "internalType": "struct LedgerDoc.Sale[]",
              "name": "",
              "type": "tuple[]"
            }
          ],
          "stateMutability": "view",
          "type": "function"
        },
        {
          "inputs": [
            {
              "internalType": "address",
              "name": "",
              "type": "address"
            }
          ],
          "name": "isAuthorized",
          "outputs": [
            {
              "internalType": "bool",
              "name": "",
              "type": "bool"
            }
          ],
          "stateMutability": "view",
          "type": "function"
        },
        {
          "inputs": [],
          "name": "nextDocumentId",
          "outputs": [
            {
              "internalType": "uint256",
              "name": "",
              "type": "uint256"
            }
          ],
          "stateMutability": "view",
          "type": "function"
        },
        {
          "inputs": [],
          "name": "nextUserId",
          "outputs": [
            {
              "internalType": "uint256",
              "name": "",
              "type": "uint256"
            }
          ],
          "stateMutability": "view",
          "type": "function"
        },
        {
          "inputs": [],
          "name": "owner",
          "outputs": [
            {
              "internalType": "address",
              "name": "",
              "type": "address"
            }
          ],
          "stateMutability": "view",
          "type": "function"
        },
        {
          "inputs": [
            {
              "internalType": "uint256",
              "name": "docId",
              "type": "uint256"
            }
          ],
          "name": "purchaseDocument",
          "outputs": [],
          "stateMutability": "payable",
          "type": "function"
        },
        {
          "inputs": [
            {
              "components": [
                {
                  "internalType": "address",
                  "name": "wallet",
                  "type": "address"
                },
                {
                  "internalType": "string",
                  "name": "name",
                  "type": "string"
                },
                {
                  "internalType": "string",
                  "name": "profileCid",
                  "type": "string"
                },
                {
                  "internalType": "string",
                  "name": "profileImageCid",
                  "type": "string"
                }
              ],
              "internalType": "struct LedgerDoc.UserInput",
              "name": "input",
              "type": "tuple"
            }
          ],
          "name": "registerUser",
          "outputs": [],
          "stateMutability": "nonpayable",
          "type": "function"
        },
        {
          "inputs": [
            {
              "internalType": "uint256",
              "name": "docId",
              "type": "uint256"
            }
          ],
          "name": "removeDocument",
          "outputs": [],
          "stateMutability": "nonpayable",
          "type": "function"
        },
        {
          "inputs": [
            {
              "internalType": "address",
              "name": "uploader",
              "type": "address"
            },
            {
              "internalType": "bool",
              "name": "status",
              "type": "bool"
            }
          ],
          "name": "setAuthorized",
          "outputs": [],
          "stateMutability": "nonpayable",
          "type": "function"
        },
        {
          "inputs": [
            {
              "internalType": "uint256",
              "name": "userId",
              "type": "uint256"
            },
            {
              "internalType": "enum LedgerDoc.UserStatus",
              "name": "status",
              "type": "uint8"
            }
          ],
          "name": "setUserStatus",
          "outputs": [],
          "stateMutability": "nonpayable",
          "type": "function"
        },
        {
          "inputs": [],
          "name": "tst",
          "outputs": [
            {
              "internalType": "uint256",
              "name": "",
              "type": "uint256"
            }
          ],
          "stateMutability": "pure",
          "type": "function"
        },
        {
          "inputs": [
            {
              "components": [
                {
                  "internalType": "string",
                  "name": "metadataCid",
                  "type": "string"
                },
                {
                  "internalType": "string",
                  "name": "encryptedCid",
                  "type": "string"
                },
                {
                  "internalType": "string",
                  "name": "descriptionCid",
                  "type": "string"
                },
                {
                  "internalType": "string",
                  "name": "previewCid",
                  "type": "string"
                },
                {
                  "internalType": "string",
                  "name": "thumbnailCid",
                  "type": "string"
                },
                {
                  "internalType": "string",
                  "name": "title",
                  "type": "string"
                },
                {
                  "internalType": "string[]",
                  "name": "categories",
                  "type": "string[]"
                },
                {
                  "internalType": "uint256",
                  "name": "price",
                  "type": "uint256"
                },
                {
                  "internalType": "address",
                  "name": "uploaderAddress",
                  "type": "address"
                }
              ],
              "internalType": "struct LedgerDoc.DocumentInput",
              "name": "input",
              "type": "tuple"
            }
          ],
          "name": "uploadDocument",
          "outputs": [],
          "stateMutability": "nonpayable",
          "type": "function"
        },
        {
          "inputs": [
            {
              "internalType": "uint256",
              "name": "",
              "type": "uint256"
            },
            {
              "internalType": "uint256",
              "name": "",
              "type": "uint256"
            }
          ],
          "name": "userPurchases",
          "outputs": [
            {
              "internalType": "uint256",
              "name": "documentId",
              "type": "uint256"
            },
            {
              "internalType": "uint256",
              "name": "timestamp",
              "type": "uint256"
            }
          ],
          "stateMutability": "view",
          "type": "function"
        },
        {
          "inputs": [
            {
              "internalType": "uint256",
              "name": "",
              "type": "uint256"
            },
            {
              "internalType": "uint256",
              "name": "",
              "type": "uint256"
            }
          ],
          "name": "userSales",
          "outputs": [
            {
              "internalType": "uint256",
              "name": "documentId",
              "type": "uint256"
            },
            {
              "internalType": "uint256",
              "name": "timestamp",
              "type": "uint256"
            }
          ],
          "stateMutability": "view",
          "type": "function"
        },
        {
          "inputs": [
            {
              "internalType": "uint256",
              "name": "",
              "type": "uint256"
            }
          ],
          "name": "users",
          "outputs": [
            {
              "internalType": "uint256",
              "name": "id",
              "type": "uint256"
            },
            {
              "internalType": "address",
              "name": "wallet",
              "type": "address"
            },
            {
              "internalType": "string",
              "name": "name",
              "type": "string"
            },
            {
              "internalType": "string",
              "name": "profileCid",
              "type": "string"
            },
            {
              "internalType": "string",
              "name": "profileImageCid",
              "type": "string"
            },
            {
              "internalType": "uint256",
              "name": "joinedAt",
              "type": "uint256"
            },
            {
              "internalType": "enum LedgerDoc.UserStatus",
              "name": "status",
              "type": "uint8"
            }
          ],
          "stateMutability": "view",
          "type": "function"
        }
      ],
      "evm": {
        "bytecode": {
          "linkReferences": {},
          "object": "608080604052346048576001600055600180553360018060a01b031960025416176002553360005260066020526040600020600160ff198254161790556125f8908161004e8239f35b600080fdfe6101a080604052600436101561001457600080fd5b60003560e01c90816311f581fe14612010575080632ebac8c614611464578063365b98b2146113a55780633f9b250a14611073578063404f80e614610e4c5780635884b38314610d5f57806369c212f614610d1a5780636ed6da9e14610c4a578063711bf9b214610b905780638da5cb5b14610b6757806391888f2e14610b4a578063a102fb9b14610a79578063a1e6a25514610a5b578063a4e07ee41461051b578063aeaed835146104ea578063b5ffbbcc146104b0578063c2ed2b0514610368578063c6c2d93d14610323578063ca7cd4d314610252578063d5df75591461014b5763fe9fbb801461010757600080fd5b34610146576020366003190112610146576001600160a01b036101286121dd565b166000526006602052602060ff604060002054166040519015158152f35b600080fd5b3461014657602036600319011261014657600435806000526005602052604060002080541561022157600c810154600052600460205260018060a01b036001604060002001541633148015610209575b156101d557600e01805460ff191660011790557f480c8c4f142c9ceb3d0b0d7675300f10573a6cd66fca3390578e785181546459600080a2005b60405162461bcd60e51b815260206004820152600c60248201526b155b985d5d1a1bdc9a5e995960a21b6044820152606490fd5b5033600052600660205260ff6040600020541661019b565b60405162461bcd60e51b8152602060048201526009602482015268139bdd08199bdd5b9960ba1b6044820152606490fd5b34610146576020366003190112610146576004356000526007602052604060002080549061027f826124b9565b9161028d60405193846120b7565b80835260208301809260005260206000206000915b8383106103055784866040519182916020830190602084525180915260408301919060005b8181106102d5575050500390f35b9193509160206102f8600192865190602060409280518352015160208201520190565b94019101918493926102c7565b600260206001926103158561255e565b8152019201920191906102a2565b34610146576103313661227a565b906000526008602052604060002080548210156101465760409161035491612290565b506001815491015482519182526020820152f35b346101465760203660031901126101465760043560005260056020526040600020805460018201610398906120d8565b916103a5600282016120d8565b6103b1600383016120d8565b916103be600482016120d8565b926103cb600583016120d8565b936103d8600684016120d8565b94600884015495600985015490600a86015492600b87015494600c88015496600d89015498600e015460ff16996040519d8e9d8e528d602081016101c090526101c0016104249161217c565b8d810360408f01526104359161217c565b8c810360608e01526104469161217c565b8b810360808d01526104579161217c565b8a810360a08c01526104689161217c565b89810360c08b01526104799161217c565b9660e08901526101008801526101208701526101408601526101608501526101808401526104a6816121bd565b6101a08301520390f35b34610146576020366003190112610146576001600160a01b036104d16121dd565b1660005260036020526020604060002054604051908152f35b34610146576104f83661227a565b906000526007602052604060002080548210156101465760409161035491612290565b34610146576020366003190112610146576004356001600160401b038111610146578060040190608060031982360301126101465733600052600660205260ff604060002054168015610a47575b610572906122ac565b6001600160a01b03610583836122e9565b166000526003602052604060002054610a14576064600054916105a583612377565b6000556105b1846122e9565b938360248301956105c28784612386565b959061063560448701976106266105d98a89612386565b95909901986106176105eb8b8b612386565b9690946040519a6105fb8c61209c565b8b526001600160a01b0390991660208b0190815298369161257c565b9560408901968752369161257c565b9260608701938452369161257c565b906080850191825260a085019242845260c0860194600086528a6000526004602052604060002096518755600187019060018060a01b039051166bffffffffffffffffffffffff60a01b8254161790556002860190518051906001600160401b03821161091a576106b0826106aa855461202b565b856123cf565b602090601f83116001146109ad576106e19291600091836109a2575b50508160011b916000199060031b1c19161790565b90555b51805160038601916001600160401b03821161091a57610708826106aa855461202b565b602090601f831160011461093b576107389291600091836109305750508160011b916000199060031b1c19161790565b90555b51805160048501916001600160401b03821161091a5761075f826106aa855461202b565b602090601f8311600114610880579461082097946107dd946107c38561085e9a966006967ff608efd81edddac018f9ad0b03084ddbf4c09d8f636df2e1d43d9c7f3ac68b449f9e9b6000926108755750508160011b916000199060031b1c19161790565b90555b51600584015551916107d7836121bd565b016124d0565b6001600160a01b036107ee826122e9565b16600052600360205286604060002055610850610828610817610810846122e9565b9a84612386565b96909784612386565b949093612386565b92909361084260405198899860808a5260808a0191612498565b918783036020890152612498565b918483036040860152612498565b4260608301526001600160a01b03909516940390a3005b0151905038806106cc565b90601f1983169184600052816000209260005b8181106109025750946001856006957ff608efd81edddac018f9ad0b03084ddbf4c09d8f636df2e1d43d9c7f3ac68b449e9d9a956108209d9a9561085e9d996107dd9b106108e9575b505050811b0190556107c6565b015160001960f88460031b161c191690553880806108dc565b92936020600181928786015181550195019301610893565b634e487b7160e01b600052604160045260246000fd5b015190508d806106cc565b90601f1983169184600052816000209260005b81811061098a5750908460019594939210610971575b505050811b01905561073b565b015160001960f88460031b161c191690558c8080610964565b9293602060018192878601518155019501930161094e565b015190508e806106cc565b90601f1983169184600052816000209260005b8181106109fc57509084600195949392106109e3575b505050811b0190556106e4565b015160001960f88460031b161c191690558d80806109d6565b929360206001819287860151815501950193016109c0565b60405162461bcd60e51b815260206004820152600b60248201526a557365722065786973747360a81b6044820152606490fd5b506002546001600160a01b03163314610569565b34610146576000366003190112610146576020600054604051908152f35b346101465760203660031901126101465760043560005260086020526040600020805490610aa6826124b9565b91610ab460405193846120b7565b80835260208301809260005260206000206000915b838310610b2c5784866040519182916020830190602084525180915260408301919060005b818110610afc575050500390f35b919350916020610b1f600192865190602060409280518352015160208201520190565b9401910191849392610aee565b60026020600192610b3c8561255e565b815201920192019190610ac9565b346101465760003660031901126101465760206040516108ae8152f35b34610146576000366003190112610146576002546040516001600160a01b039091168152602090f35b3461014657604036600319011261014657610ba96121dd565b60243590811515809203610146576002546001600160a01b03163303610c195760207f2c59b8f31260880424e870332281eba93ddfef67e37d699cebe5a7ba89f7a8a69160018060a01b0316928360005260068252604060002060ff1981541660ff8316179055604051908152a2005b60405162461bcd60e51b81526020600482015260096024820152682737ba1037bbb732b960b91b6044820152606490fd5b3461014657602036600319011261014657600435610c666124e8565b5080151580610d0f575b610c7990612521565b6000526004602052610d0b604060002060ff600660405192610c9a8461209c565b8054845260018101546001600160a01b03166020850152610cbd600282016120d8565b6040850152610cce600382016120d8565b6060850152610cdf600482016120d8565b6080850152600581015460a0850152015416610cfa816121bd565b60c0820152604051918291826121f3565b0390f35b506000548110610c70565b3461014657602036600319011261014657610d336121dd565b610d3b6124e8565b506001600160a01b0316600090815260036020526040902054610c79811515612521565b346101465760403660031901126101465760043560243560028110156101465733600052600660205260ff604060002054168015610e38575b610da1906122ac565b81600052600460205260406000205415610e045760207f3637553f014ead9f514ee7c99db3ecbf14c351d6d5822cfe5625b965b0fadf3e918360005260048252610df28160066040600020016124d0565b60405190610dff816121bd565b8152a2005b60405162461bcd60e51b815260206004820152600c60248201526b24b73b30b634b2103ab9b2b960a11b6044820152606490fd5b506002546001600160a01b03163314610d98565b602036600319011261014657600435336000526003602052604060002054610e758115156122fd565b6000526004602052610e9b60ff60066040600020015416610e95816121bd565b1561233a565b80600052600560205260406000209060ff600e83015416610ebb816121bd565b61103a5760088201543410610ffe57336000526003602052600c6040600020549201548260005260076020526040600020604051610ef881612065565b838152426020820152815491600160401b83101561091a5782610f23916001610f2995018155612290565b90612449565b806000526008602052610f55604060002060405190610f4782612065565b848252426020830152612475565b600a3402348104600a1434151715610fe8576064900480340390348211610fe8576000928352600460205260408320600101548392839283926001600160a01b03169083903414610fdf575bf115610fd3577f66b024b18cf8ff1018ad9d6c8cd7d09697108266d2ffe7565a8e64421e954b1f6020604051428152a3005b6040513d6000823e3d90fd5b506108fc610fa1565b634e487b7160e01b600052601160045260246000fd5b60405162461bcd60e51b8152602060048201526014602482015273125b9cdd59999a58da595b9d081c185e5b595b9d60621b6044820152606490fd5b60405162461bcd60e51b8152602060048201526011602482015270446f63756d656e7420696e61637469766560781b6044820152606490fd5b346101465760203660031901126101465760006101c060405161109581612080565b828152606060208201526060604082015260608082015260606080820152606060a0820152606060c0820152606060e08201528261010082015282610120820152826101408201528261016082015282610180820152826101a08201520152600435600052600560205260406000206040519061111182612080565b80548252611121600182016120d8565b9160208101928352611135600283016120d8565b60408201908152611148600384016120d8565b926060830193845261115c600482016120d8565b9460808401958652611170600583016120d8565b9260a08501938452611184600684016120d8565b9560c08601968752600784019788549761119d896124b9565b986111ab6040519a8b6120b7565b808a5260208a019a60005260206000209a6000905b828210611387575050508798995060e088979801998a5260088601549761010088019889526009870154926101208901938452600a880154946101408a01958652600b890154966101608b01978852600c8a0154986101808c01998a52600d8b01549a6101a08d019b8c52600e015460ff169b6101c0019b611241816121bd565b8c52604051809e60208252519060200152518d604081016101e090526102000161126a9161217c565b90518d8203601f190160608f0152611282919061217c565b90518c8203601f190160808e015261129a919061217c565b90518b8203601f190160a08d01526112b2919061217c565b90518a8203601f190160c08c01526112ca919061217c565b9051898203601f190160e08b01526112e2919061217c565b985196601f19898b03016101008a01528751808b5260208b01908060051b8c0160200199602001916000905b82821061135a575050505088995051610120890152516101408801525161016087015251610180860152516101a0850152516101c084015251611350816121bd565b6101e08301520390f35b9091929a6020808f6001938f61137992601f199083030187525161217c565b9d019201920190929161130e565b6001602081928f611397906120d8565b8152019d019101909b6111c0565b346101465760203660031901126101465760043560005260046020526040600020805460018060a01b03600183015416916113e2600282016120d8565b61144c6113f1600384016120d8565b61143e611400600486016120d8565b9161143060ff600660058901549801541695604051998a998a5260208a015260e060408a015260e089019061217c565b90878203606089015261217c565b90858203608087015261217c565b9160a084015261145b816121bd565b60c08301520390f35b346101465760203660031901126101465760043560c0526001600160401b0360c051116101465761012060031960c051360301126101465733600052600660205260ff604060002054168015611ffc575b6114be906122ac565b60c051610104016001600160a01b036114d6826122e9565b1660005260036020526040600020546114f08115156122fd565b600052600460205261151060ff60066040600020015416610e95816121bd565b6001600160a01b0390611522906122e9565b166000526003602052604060002054610160526001546101405261154861014051612377565b60015561014051600081815260056020526040902090815560c0516115709060040180612386565b600183929301906001600160401b03811161091a5761159981611593845461202b565b846123cf565b6000601f8211600114611f995781906115ca939495600092611f8e5750508160011b916000199060031b1c19161790565b90555b602460c05101906115e38260c051600401612386565b60028394929401906001600160401b03811161091a5761160781611593845461202b565b6000601f8211600114611f2a57819061163993949596600092611f1f5750508160011b916000199060031b1c19161790565b90555b604460c051016116518160c051600401612386565b60038501916001600160401b03821161091a57611672826106aa855461202b565b600090601f8311600114611ebb576116a2929160009183611eb05750508160011b916000199060031b1c19161790565b90555b606460c05101906116bb8260c051600401612386565b60048601916001600160401b03821161091a576116dc826106aa855461202b565b600090601f8311600114611e4c5761170c929160009183611e415750508160011b916000199060031b1c19161790565b90555b608460c05101926117258460c051600401612386565b60058701916001600160401b03821161091a57611746826106aa855461202b565b600090601f8311600114611ddd57611776929160009183611dd25750508160011b916000199060031b1c19161790565b90555b60a460c0510161178e8160c051600401612386565b60068801916001600160401b03821161091a576117af826106aa855461202b565b600090601f8311600114611d6e576117df929160009183611d635750508160011b916000199060031b1c19161790565b90555b6117f660c460c0510160c051600401612414565b6007880191600160401b821161091a578254828455808310611ce5575b506000928352602083209290805b838310611bfc575089896119258a6119178b6119096118fb8d61195b6118bc8f60e460c051013560088d0155600060098d01556000600a8d01556000600b8d015561016051600c8d0155600e600d8d019c8d4290550160ff1981541690556101605160005260086020526118b16040600020604051906118a082612065565b610140518252426020830152612475565b60c051600401612386565b91906118d260c460c0510160c051600401612414565b610180529b54926118ed60c05160040160c051600401612386565b96909560c051600401612386565b97909860c051600401612386565b99909a60c051600401612386565b9b909c60c051600401612386565b60805260e052610160516000526004602052600260406000200160a0526040516101205261012080515261012080510191612498565b6101205180820360209182015261018080518352818301610100525160051b8201019a906000825b610180518210611b995750505050926119c5611a1a9a6119d994611a019b9a9997946119ed999760406101205101526101205183036060610120510152612498565b916101205183036080610120510152612498565b9161012051830360a0610120510152612498565b9161012051830360c0610120510152612498565b61012051810360e061012051015260805160e051612498565b61012051810361010061012051015260009060a0515490611a3a8261202b565b8082529160018116908115611b7a5750600114611b41575b505060e460c05101359061016051907fa221893f293d11e28c1781225f7ec9a69bb71c23c81d6021f2a30e18d791f022610140519161012051900361012051a460005b611aa960c460c0510160c051600401612414565b9050811015611b3f57611ac660c460c0510160c051600401612414565b8291921015611b2957611b207f7437eef4e1784cefa44883b72abded61cbc5b4712f361356d107c47f5eb4eb92611b056001948460051b810190612386565b92906040519182916020835261014051956020840191612498565b0390a201611a95565b634e487b7160e01b600052603260045260246000fd5b005b6020925060a05160005282600020916000925b818410611b6657505001018180611a52565b805483850186015292840192600101611b54565b90506020935060ff929192191683830152151560051b01018180611a52565b9091929c601f198482030161010051528d35601e19833603018112156101465782016020813591016001600160401b03821161014657813603811361014657600192602092611be792612498565b610100805160200190529e0193920190611983565b611c068183612386565b906001600160401b03821161091a57611c2982611c23895461202b565b896123cf565b600090601f8311600114611c7b5792611c6183600195946020948796600092611c705750508160011b916000199060031b1c19161790565b88555b01950192019193611821565b0135905038806106cc565b8782526020822091601f198416815b818110611ccd5750936020936001969387969383889510611cb3575b505050811b018855611c64565b0135600019600384901b60f8161c19169055388080611ca6565b91936020600181928787013581550195019201611c8a565b8360005282602060002091820191015b818110611d025750611813565b80611d0f6001925461202b565b80611d1c575b5001611cf5565b601f81118314611d325750600081555b8c611d15565b611d50908260005283601f6020600020920160051c820191016123b8565b8060005260006020812081835555611d2c565b013590508a806106cc565b8382526020822091601f198416815b818110611dba5750908460019594939210611da0575b505050811b0190556117e2565b0135600019600384901b60f8161c19169055898080611d93565b91936020600181928787013581550195019201611d7d565b0135905089806106cc565b8382526020822091601f198416815b818110611e295750908460019594939210611e0f575b505050811b019055611779565b0135600019600384901b60f8161c19169055888080611e02565b91936020600181928787013581550195019201611dec565b0135905088806106cc565b8382526020822091601f198416815b818110611e985750908460019594939210611e7e575b505050811b01905561170f565b0135600019600384901b60f8161c19169055878080611e71565b91936020600181928787013581550195019201611e5b565b0135905087806106cc565b8382526020822091601f198416815b818110611f075750908460019594939210611eed575b505050811b0190556116a5565b0135600019600384901b60f8161c19169055868080611ee0565b91936020600181928787013581550195019201611eca565b0135905086806106cc565b601f198216958382526020822091805b888110611f7657508360019596979810611f5c575b505050811b01905561163c565b0135600019600384901b60f8161c19169055858080611f4f565b90926020600181928686013581550194019101611f3a565b0135905085806106cc565b601f198216948382526020822091805b878110611fe4575083600195969710611fca575b505050811b0190556115cd565b0135600019600384901b60f8161c19169055848080611fbd565b90926020600181928686013581550194019101611fa9565b506002546001600160a01b031633146114b5565b34610146576000366003190112610146576020906001548152f35b90600182811c9216801561205b575b602083101461204557565b634e487b7160e01b600052602260045260246000fd5b91607f169161203a565b604081019081106001600160401b0382111761091a57604052565b6101e081019081106001600160401b0382111761091a57604052565b60e081019081106001600160401b0382111761091a57604052565b90601f801991011681019081106001600160401b0382111761091a57604052565b90604051918260008254926120ec8461202b565b808452936001811690811561215a5750600114612113575b50612111925003836120b7565b565b90506000929192526020600020906000915b81831061213e5750509060206121119282010138612104565b6020919350806001915483858901015201910190918492612125565b90506020925061211194915060ff191682840152151560051b82010138612104565b919082519283825260005b8481106121a8575050826000602080949584010152601f8019910116010190565b80602080928401015182828601015201612187565b600211156121c757565b634e487b7160e01b600052602160045260246000fd5b600435906001600160a01b038216820361014657565b602081528151602082015260018060a01b03602083015116604082015260e060c061225f612249612233604087015185606088015261010087019061217c565b6060870151868203601f1901608088015261217c565b6080860151858203601f190160a087015261217c565b9360a081015182850152015191612275836121bd565b015290565b6040906003190112610146576004359060243590565b8054821015611b295760005260206000209060011b0190600090565b156122b357565b60405162461bcd60e51b815260206004820152600e60248201526d139bdd08185d5d1a1bdc9a5e995960921b6044820152606490fd5b356001600160a01b03811681036101465790565b1561230457565b60405162461bcd60e51b815260206004820152600e60248201526d139bdd081c9959da5cdd195c995960921b6044820152606490fd5b1561234157565b60405162461bcd60e51b815260206004820152600e60248201526d155cd95c881cdd5cdc195b99195960921b6044820152606490fd5b6000198114610fe85760010190565b903590601e198136030182121561014657018035906001600160401b0382116101465760200191813603831361014657565b8181106123c3575050565b600081556001016123b8565b9190601f81116123de57505050565b612111926000526020600020906020601f840160051c8301931061240a575b601f0160051c01906123b8565b90915081906123fd565b903590601e198136030182121561014657018035906001600160401b03821161014657602001918160051b3603831361014657565b919061245f576020816001925184550151910155565b634e487b7160e01b600052600060045260246000fd5b90815491600160401b83101561091a5782610f2391600161211195018155612290565b908060209392818452848401376000828201840152601f01601f1916010190565b6001600160401b03811161091a5760051b60200190565b906124da816121bd565b60ff80198354169116179055565b604051906124f58261209c565b600060c08382815282602082015260606040820152606080820152606060808201528260a08201520152565b1561252857565b60405162461bcd60e51b815260206004820152600e60248201526d155cd95c881b9bdd08199bdd5b9960921b6044820152606490fd5b9060405161256b81612065565b602060018294805484520154910152565b9291926001600160401b03821161091a57604051916125a5601f8201601f1916602001846120b7565b82948184528183011161014657828160209384600096013701015256fea26469706673582212205ca184b222e56c3cbb2c2876b5a85243265ba99a3ebd5b45f4a49914ff60c64f64736f6c634300081c0033",
          "opcodes": "PUSH1 0x80 DUP1 PUSH1 0x40 MSTORE CALLVALUE PUSH1 0x48 JUMPI PUSH1 0x1 PUSH1 0x0 SSTORE PUSH1 0x1 DUP1 SSTORE CALLER PUSH1 0x1 DUP1 PUSH1 0xA0 SHL SUB NOT PUSH1 0x2 SLOAD AND OR PUSH1 0x2 SSTORE CALLER PUSH1 0x0 MSTORE PUSH1 0x6 PUSH1 0x20 MSTORE PUSH1 0x40 PUSH1 0x0 KECCAK256 PUSH1 0x1 PUSH1 0xFF NOT DUP3 SLOAD AND OR SWAP1 SSTORE PUSH2 0x25F8 SWAP1 DUP2 PUSH2 0x4E DUP3 CODECOPY RETURN JUMPDEST PUSH1 0x0 DUP1 REVERT INVALID PUSH2 0x1A0 DUP1 PUSH1 0x40 MSTORE PUSH1 0x4 CALLDATASIZE LT ISZERO PUSH2 0x14 JUMPI PUSH1 0x0 DUP1 REVERT JUMPDEST PUSH1 0x0 CALLDATALOAD PUSH1 0xE0 SHR SWAP1 DUP2 PUSH4 0x11F581FE EQ PUSH2 0x2010 JUMPI POP DUP1 PUSH4 0x2EBAC8C6 EQ PUSH2 0x1464 JUMPI DUP1 PUSH4 0x365B98B2 EQ PUSH2 0x13A5 JUMPI DUP1 PUSH4 0x3F9B250A EQ PUSH2 0x1073 JUMPI DUP1 PUSH4 0x404F80E6 EQ PUSH2 0xE4C JUMPI DUP1 PUSH4 0x5884B383 EQ PUSH2 0xD5F JUMPI DUP1 PUSH4 0x69C212F6 EQ PUSH2 0xD1A JUMPI DUP1 PUSH4 0x6ED6DA9E EQ PUSH2 0xC4A JUMPI DUP1 PUSH4 0x711BF9B2 EQ PUSH2 0xB90 JUMPI DUP1 PUSH4 0x8DA5CB5B EQ PUSH2 0xB67 JUMPI DUP1 PUSH4 0x91888F2E EQ PUSH2 0xB4A JUMPI DUP1 PUSH4 0xA102FB9B EQ PUSH2 0xA79 JUMPI DUP1 PUSH4 0xA1E6A255 EQ PUSH2 0xA5B JUMPI DUP1 PUSH4 0xA4E07EE4 EQ PUSH2 0x51B JUMPI DUP1 PUSH4 0xAEAED835 EQ PUSH2 0x4EA JUMPI DUP1 PUSH4 0xB5FFBBCC EQ PUSH2 0x4B0 JUMPI DUP1 PUSH4 0xC2ED2B05 EQ PUSH2 0x368 JUMPI DUP1 PUSH4 0xC6C2D93D EQ PUSH2 0x323 JUMPI DUP1 PUSH4 0xCA7CD4D3 EQ PUSH2 0x252 JUMPI DUP1 PUSH4 0xD5DF7559 EQ PUSH2 0x14B JUMPI PUSH4 0xFE9FBB80 EQ PUSH2 0x107 JUMPI PUSH1 0x0 DUP1 REVERT JUMPDEST CALLVALUE PUSH2 0x146 JUMPI PUSH1 0x20 CALLDATASIZE PUSH1 0x3 NOT ADD SLT PUSH2 0x146 JUMPI PUSH1 0x1 PUSH1 0x1 PUSH1 0xA0 SHL SUB PUSH2 0x128 PUSH2 0x21DD JUMP JUMPDEST AND PUSH1 0x0 MSTORE PUSH1 0x6 PUSH1 0x20 MSTORE PUSH1 0x20 PUSH1 0xFF PUSH1 0x40 PUSH1 0x0 KECCAK256 SLOAD AND PUSH1 0x40 MLOAD SWAP1 ISZERO ISZERO DUP2 MSTORE RETURN JUMPDEST PUSH1 0x0 DUP1 REVERT JUMPDEST CALLVALUE PUSH2 0x146 JUMPI PUSH1 0x20 CALLDATASIZE PUSH1 0x3 NOT ADD SLT PUSH2 0x146 JUMPI PUSH1 0x4 CALLDATALOAD DUP1 PUSH1 0x0 MSTORE PUSH1 0x5 PUSH1 0x20 MSTORE PUSH1 0x40 PUSH1 0x0 KECCAK256 DUP1 SLOAD ISZERO PUSH2 0x221 JUMPI PUSH1 0xC DUP2 ADD SLOAD PUSH1 0x0 MSTORE PUSH1 0x4 PUSH1 0x20 MSTORE PUSH1 0x1 DUP1 PUSH1 0xA0 SHL SUB PUSH1 0x1 PUSH1 0x40 PUSH1 0x0 KECCAK256 ADD SLOAD AND CALLER EQ DUP1 ISZERO PUSH2 0x209 JUMPI JUMPDEST ISZERO PUSH2 0x1D5 JUMPI PUSH1 0xE ADD DUP1 SLOAD PUSH1 0xFF NOT AND PUSH1 0x1 OR SWAP1 SSTORE PUSH32 0x480C8C4F142C9CEB3D0B0D7675300F10573A6CD66FCA3390578E785181546459 PUSH1 0x0 DUP1 LOG2 STOP JUMPDEST PUSH1 0x40 MLOAD PUSH3 0x461BCD PUSH1 0xE5 SHL DUP2 MSTORE PUSH1 0x20 PUSH1 0x4 DUP3 ADD MSTORE PUSH1 0xC PUSH1 0x24 DUP3 ADD MSTORE PUSH12 0x155B985D5D1A1BDC9A5E9959 PUSH1 0xA2 SHL PUSH1 0x44 DUP3 ADD MSTORE PUSH1 0x64 SWAP1 REVERT JUMPDEST POP CALLER PUSH1 0x0 MSTORE PUSH1 0x6 PUSH1 0x20 MSTORE PUSH1 0xFF PUSH1 0x40 PUSH1 0x0 KECCAK256 SLOAD AND PUSH2 0x19B JUMP JUMPDEST PUSH1 0x40 MLOAD PUSH3 0x461BCD PUSH1 0xE5 SHL DUP2 MSTORE PUSH1 0x20 PUSH1 0x4 DUP3 ADD MSTORE PUSH1 0x9 PUSH1 0x24 DUP3 ADD MSTORE PUSH9 0x139BDD08199BDD5B99 PUSH1 0xBA SHL PUSH1 0x44 DUP3 ADD MSTORE PUSH1 0x64 SWAP1 REVERT JUMPDEST CALLVALUE PUSH2 0x146 JUMPI PUSH1 0x20 CALLDATASIZE PUSH1 0x3 NOT ADD SLT PUSH2 0x146 JUMPI PUSH1 0x4 CALLDATALOAD PUSH1 0x0 MSTORE PUSH1 0x7 PUSH1 0x20 MSTORE PUSH1 0x40 PUSH1 0x0 KECCAK256 DUP1 SLOAD SWAP1 PUSH2 0x27F DUP3 PUSH2 0x24B9 JUMP JUMPDEST SWAP2 PUSH2 0x28D PUSH1 0x40 MLOAD SWAP4 DUP5 PUSH2 0x20B7 JUMP JUMPDEST DUP1 DUP4 MSTORE PUSH1 0x20 DUP4 ADD DUP1 SWAP3 PUSH1 0x0 MSTORE PUSH1 0x20 PUSH1 0x0 KECCAK256 PUSH1 0x0 SWAP2 JUMPDEST DUP4 DUP4 LT PUSH2 0x305 JUMPI DUP5 DUP7 PUSH1 0x40 MLOAD SWAP2 DUP3 SWAP2 PUSH1 0x20 DUP4 ADD SWAP1 PUSH1 0x20 DUP5 MSTORE MLOAD DUP1 SWAP2 MSTORE PUSH1 0x40 DUP4 ADD SWAP2 SWAP1 PUSH1 0x0 JUMPDEST DUP2 DUP2 LT PUSH2 0x2D5 JUMPI POP POP POP SUB SWAP1 RETURN JUMPDEST SWAP2 SWAP4 POP SWAP2 PUSH1 0x20 PUSH2 0x2F8 PUSH1 0x1 SWAP3 DUP7 MLOAD SWAP1 PUSH1 0x20 PUSH1 0x40 SWAP3 DUP1 MLOAD DUP4 MSTORE ADD MLOAD PUSH1 0x20 DUP3 ADD MSTORE ADD SWAP1 JUMP JUMPDEST SWAP5 ADD SWAP2 ADD SWAP2 DUP5 SWAP4 SWAP3 PUSH2 0x2C7 JUMP JUMPDEST PUSH1 0x2 PUSH1 0x20 PUSH1 0x1 SWAP3 PUSH2 0x315 DUP6 PUSH2 0x255E JUMP JUMPDEST DUP2 MSTORE ADD SWAP3 ADD SWAP3 ADD SWAP2 SWAP1 PUSH2 0x2A2 JUMP JUMPDEST CALLVALUE PUSH2 0x146 JUMPI PUSH2 0x331 CALLDATASIZE PUSH2 0x227A JUMP JUMPDEST SWAP1 PUSH1 0x0 MSTORE PUSH1 0x8 PUSH1 0x20 MSTORE PUSH1 0x40 PUSH1 0x0 KECCAK256 DUP1 SLOAD DUP3 LT ISZERO PUSH2 0x146 JUMPI PUSH1 0x40 SWAP2 PUSH2 0x354 SWAP2 PUSH2 0x2290 JUMP JUMPDEST POP PUSH1 0x1 DUP2 SLOAD SWAP2 ADD SLOAD DUP3 MLOAD SWAP2 DUP3 MSTORE PUSH1 0x20 DUP3 ADD MSTORE RETURN JUMPDEST CALLVALUE PUSH2 0x146 JUMPI PUSH1 0x20 CALLDATASIZE PUSH1 0x3 NOT ADD SLT PUSH2 0x146 JUMPI PUSH1 0x4 CALLDATALOAD PUSH1 0x0 MSTORE PUSH1 0x5 PUSH1 0x20 MSTORE PUSH1 0x40 PUSH1 0x0 KECCAK256 DUP1 SLOAD PUSH1 0x1 DUP3 ADD PUSH2 0x398 SWAP1 PUSH2 0x20D8 JUMP JUMPDEST SWAP2 PUSH2 0x3A5 PUSH1 0x2 DUP3 ADD PUSH2 0x20D8 JUMP JUMPDEST PUSH2 0x3B1 PUSH1 0x3 DUP4 ADD PUSH2 0x20D8 JUMP JUMPDEST SWAP2 PUSH2 0x3BE PUSH1 0x4 DUP3 ADD PUSH2 0x20D8 JUMP JUMPDEST SWAP3 PUSH2 0x3CB PUSH1 0x5 DUP4 ADD PUSH2 0x20D8 JUMP JUMPDEST SWAP4 PUSH2 0x3D8 PUSH1 0x6 DUP5 ADD PUSH2 0x20D8 JUMP JUMPDEST SWAP5 PUSH1 0x8 DUP5 ADD SLOAD SWAP6 PUSH1 0x9 DUP6 ADD SLOAD SWAP1 PUSH1 0xA DUP7 ADD SLOAD SWAP3 PUSH1 0xB DUP8 ADD SLOAD SWAP5 PUSH1 0xC DUP9 ADD SLOAD SWAP7 PUSH1 0xD DUP10 ADD SLOAD SWAP9 PUSH1 0xE ADD SLOAD PUSH1 0xFF AND SWAP10 PUSH1 0x40 MLOAD SWAP14 DUP15 SWAP14 DUP15 MSTORE DUP14 PUSH1 0x20 DUP2 ADD PUSH2 0x1C0 SWAP1 MSTORE PUSH2 0x1C0 ADD PUSH2 0x424 SWAP2 PUSH2 0x217C JUMP JUMPDEST DUP14 DUP2 SUB PUSH1 0x40 DUP16 ADD MSTORE PUSH2 0x435 SWAP2 PUSH2 0x217C JUMP JUMPDEST DUP13 DUP2 SUB PUSH1 0x60 DUP15 ADD MSTORE PUSH2 0x446 SWAP2 PUSH2 0x217C JUMP JUMPDEST DUP12 DUP2 SUB PUSH1 0x80 DUP14 ADD MSTORE PUSH2 0x457 SWAP2 PUSH2 0x217C JUMP JUMPDEST DUP11 DUP2 SUB PUSH1 0xA0 DUP13 ADD MSTORE PUSH2 0x468 SWAP2 PUSH2 0x217C JUMP JUMPDEST DUP10 DUP2 SUB PUSH1 0xC0 DUP12 ADD MSTORE PUSH2 0x479 SWAP2 PUSH2 0x217C JUMP JUMPDEST SWAP7 PUSH1 0xE0 DUP10 ADD MSTORE PUSH2 0x100 DUP9 ADD MSTORE PUSH2 0x120 DUP8 ADD MSTORE PUSH2 0x140 DUP7 ADD MSTORE PUSH2 0x160 DUP6 ADD MSTORE PUSH2 0x180 DUP5 ADD MSTORE PUSH2 0x4A6 DUP2 PUSH2 0x21BD JUMP JUMPDEST PUSH2 0x1A0 DUP4 ADD MSTORE SUB SWAP1 RETURN JUMPDEST CALLVALUE PUSH2 0x146 JUMPI PUSH1 0x20 CALLDATASIZE PUSH1 0x3 NOT ADD SLT PUSH2 0x146 JUMPI PUSH1 0x1 PUSH1 0x1 PUSH1 0xA0 SHL SUB PUSH2 0x4D1 PUSH2 0x21DD JUMP JUMPDEST AND PUSH1 0x0 MSTORE PUSH1 0x3 PUSH1 0x20 MSTORE PUSH1 0x20 PUSH1 0x40 PUSH1 0x0 KECCAK256 SLOAD PUSH1 0x40 MLOAD SWAP1 DUP2 MSTORE RETURN JUMPDEST CALLVALUE PUSH2 0x146 JUMPI PUSH2 0x4F8 CALLDATASIZE PUSH2 0x227A JUMP JUMPDEST SWAP1 PUSH1 0x0 MSTORE PUSH1 0x7 PUSH1 0x20 MSTORE PUSH1 0x40 PUSH1 0x0 KECCAK256 DUP1 SLOAD DUP3 LT ISZERO PUSH2 0x146 JUMPI PUSH1 0x40 SWAP2 PUSH2 0x354 SWAP2 PUSH2 0x2290 JUMP JUMPDEST CALLVALUE PUSH2 0x146 JUMPI PUSH1 0x20 CALLDATASIZE PUSH1 0x3 NOT ADD SLT PUSH2 0x146 JUMPI PUSH1 0x4 CALLDATALOAD PUSH1 0x1 PUSH1 0x1 PUSH1 0x40 SHL SUB DUP2 GT PUSH2 0x146 JUMPI DUP1 PUSH1 0x4 ADD SWAP1 PUSH1 0x80 PUSH1 0x3 NOT DUP3 CALLDATASIZE SUB ADD SLT PUSH2 0x146 JUMPI CALLER PUSH1 0x0 MSTORE PUSH1 0x6 PUSH1 0x20 MSTORE PUSH1 0xFF PUSH1 0x40 PUSH1 0x0 KECCAK256 SLOAD AND DUP1 ISZERO PUSH2 0xA47 JUMPI JUMPDEST PUSH2 0x572 SWAP1 PUSH2 0x22AC JUMP JUMPDEST PUSH1 0x1 PUSH1 0x1 PUSH1 0xA0 SHL SUB PUSH2 0x583 DUP4 PUSH2 0x22E9 JUMP JUMPDEST AND PUSH1 0x0 MSTORE PUSH1 0x3 PUSH1 0x20 MSTORE PUSH1 0x40 PUSH1 0x0 KECCAK256 SLOAD PUSH2 0xA14 JUMPI PUSH1 0x64 PUSH1 0x0 SLOAD SWAP2 PUSH2 0x5A5 DUP4 PUSH2 0x2377 JUMP JUMPDEST PUSH1 0x0 SSTORE PUSH2 0x5B1 DUP5 PUSH2 0x22E9 JUMP JUMPDEST SWAP4 DUP4 PUSH1 0x24 DUP4 ADD SWAP6 PUSH2 0x5C2 DUP8 DUP5 PUSH2 0x2386 JUMP JUMPDEST SWAP6 SWAP1 PUSH2 0x635 PUSH1 0x44 DUP8 ADD SWAP8 PUSH2 0x626 PUSH2 0x5D9 DUP11 DUP10 PUSH2 0x2386 JUMP JUMPDEST SWAP6 SWAP1 SWAP10 ADD SWAP9 PUSH2 0x617 PUSH2 0x5EB DUP12 DUP12 PUSH2 0x2386 JUMP JUMPDEST SWAP7 SWAP1 SWAP5 PUSH1 0x40 MLOAD SWAP11 PUSH2 0x5FB DUP13 PUSH2 0x209C JUMP JUMPDEST DUP12 MSTORE PUSH1 0x1 PUSH1 0x1 PUSH1 0xA0 SHL SUB SWAP1 SWAP10 AND PUSH1 0x20 DUP12 ADD SWAP1 DUP2 MSTORE SWAP9 CALLDATASIZE SWAP2 PUSH2 0x257C JUMP JUMPDEST SWAP6 PUSH1 0x40 DUP10 ADD SWAP7 DUP8 MSTORE CALLDATASIZE SWAP2 PUSH2 0x257C JUMP JUMPDEST SWAP3 PUSH1 0x60 DUP8 ADD SWAP4 DUP5 MSTORE CALLDATASIZE SWAP2 PUSH2 0x257C JUMP JUMPDEST SWAP1 PUSH1 0x80 DUP6 ADD SWAP2 DUP3 MSTORE PUSH1 0xA0 DUP6 ADD SWAP3 TIMESTAMP DUP5 MSTORE PUSH1 0xC0 DUP7 ADD SWAP5 PUSH1 0x0 DUP7 MSTORE DUP11 PUSH1 0x0 MSTORE PUSH1 0x4 PUSH1 0x20 MSTORE PUSH1 0x40 PUSH1 0x0 KECCAK256 SWAP7 MLOAD DUP8 SSTORE PUSH1 0x1 DUP8 ADD SWAP1 PUSH1 0x1 DUP1 PUSH1 0xA0 SHL SUB SWAP1 MLOAD AND PUSH12 0xFFFFFFFFFFFFFFFFFFFFFFFF PUSH1 0xA0 SHL DUP3 SLOAD AND OR SWAP1 SSTORE PUSH1 0x2 DUP7 ADD SWAP1 MLOAD DUP1 MLOAD SWAP1 PUSH1 0x1 PUSH1 0x1 PUSH1 0x40 SHL SUB DUP3 GT PUSH2 0x91A JUMPI PUSH2 0x6B0 DUP3 PUSH2 0x6AA DUP6 SLOAD PUSH2 0x202B JUMP JUMPDEST DUP6 PUSH2 0x23CF JUMP JUMPDEST PUSH1 0x20 SWAP1 PUSH1 0x1F DUP4 GT PUSH1 0x1 EQ PUSH2 0x9AD JUMPI PUSH2 0x6E1 SWAP3 SWAP2 PUSH1 0x0 SWAP2 DUP4 PUSH2 0x9A2 JUMPI JUMPDEST POP POP DUP2 PUSH1 0x1 SHL SWAP2 PUSH1 0x0 NOT SWAP1 PUSH1 0x3 SHL SHR NOT AND OR SWAP1 JUMP JUMPDEST SWAP1 SSTORE JUMPDEST MLOAD DUP1 MLOAD PUSH1 0x3 DUP7 ADD SWAP2 PUSH1 0x1 PUSH1 0x1 PUSH1 0x40 SHL SUB DUP3 GT PUSH2 0x91A JUMPI PUSH2 0x708 DUP3 PUSH2 0x6AA DUP6 SLOAD PUSH2 0x202B JUMP JUMPDEST PUSH1 0x20 SWAP1 PUSH1 0x1F DUP4 GT PUSH1 0x1 EQ PUSH2 0x93B JUMPI PUSH2 0x738 SWAP3 SWAP2 PUSH1 0x0 SWAP2 DUP4 PUSH2 0x930 JUMPI POP POP DUP2 PUSH1 0x1 SHL SWAP2 PUSH1 0x0 NOT SWAP1 PUSH1 0x3 SHL SHR NOT AND OR SWAP1 JUMP JUMPDEST SWAP1 SSTORE JUMPDEST MLOAD DUP1 MLOAD PUSH1 0x4 DUP6 ADD SWAP2 PUSH1 0x1 PUSH1 0x1 PUSH1 0x40 SHL SUB DUP3 GT PUSH2 0x91A JUMPI PUSH2 0x75F DUP3 PUSH2 0x6AA DUP6 SLOAD PUSH2 0x202B JUMP JUMPDEST PUSH1 0x20 SWAP1 PUSH1 0x1F DUP4 GT PUSH1 0x1 EQ PUSH2 0x880 JUMPI SWAP5 PUSH2 0x820 SWAP8 SWAP5 PUSH2 0x7DD SWAP5 PUSH2 0x7C3 DUP6 PUSH2 0x85E SWAP11 SWAP7 PUSH1 0x6 SWAP7 PUSH32 0xF608EFD81EDDDAC018F9AD0B03084DDBF4C09D8F636DF2E1D43D9C7F3AC68B44 SWAP16 SWAP15 SWAP12 PUSH1 0x0 SWAP3 PUSH2 0x875 JUMPI POP POP DUP2 PUSH1 0x1 SHL SWAP2 PUSH1 0x0 NOT SWAP1 PUSH1 0x3 SHL SHR NOT AND OR SWAP1 JUMP JUMPDEST SWAP1 SSTORE JUMPDEST MLOAD PUSH1 0x5 DUP5 ADD SSTORE MLOAD SWAP2 PUSH2 0x7D7 DUP4 PUSH2 0x21BD JUMP JUMPDEST ADD PUSH2 0x24D0 JUMP JUMPDEST PUSH1 0x1 PUSH1 0x1 PUSH1 0xA0 SHL SUB PUSH2 0x7EE DUP3 PUSH2 0x22E9 JUMP JUMPDEST AND PUSH1 0x0 MSTORE PUSH1 0x3 PUSH1 0x20 MSTORE DUP7 PUSH1 0x40 PUSH1 0x0 KECCAK256 SSTORE PUSH2 0x850 PUSH2 0x828 PUSH2 0x817 PUSH2 0x810 DUP5 PUSH2 0x22E9 JUMP JUMPDEST SWAP11 DUP5 PUSH2 0x2386 JUMP JUMPDEST SWAP7 SWAP1 SWAP8 DUP5 PUSH2 0x2386 JUMP JUMPDEST SWAP5 SWAP1 SWAP4 PUSH2 0x2386 JUMP JUMPDEST SWAP3 SWAP1 SWAP4 PUSH2 0x842 PUSH1 0x40 MLOAD SWAP9 DUP10 SWAP9 PUSH1 0x80 DUP11 MSTORE PUSH1 0x80 DUP11 ADD SWAP2 PUSH2 0x2498 JUMP JUMPDEST SWAP2 DUP8 DUP4 SUB PUSH1 0x20 DUP10 ADD MSTORE PUSH2 0x2498 JUMP JUMPDEST SWAP2 DUP5 DUP4 SUB PUSH1 0x40 DUP7 ADD MSTORE PUSH2 0x2498 JUMP JUMPDEST TIMESTAMP PUSH1 0x60 DUP4 ADD MSTORE PUSH1 0x1 PUSH1 0x1 PUSH1 0xA0 SHL SUB SWAP1 SWAP6 AND SWAP5 SUB SWAP1 LOG3 STOP JUMPDEST ADD MLOAD SWAP1 POP CODESIZE DUP1 PUSH2 0x6CC JUMP JUMPDEST SWAP1 PUSH1 0x1F NOT DUP4 AND SWAP2 DUP5 PUSH1 0x0 MSTORE DUP2 PUSH1 0x0 KECCAK256 SWAP3 PUSH1 0x0 JUMPDEST DUP2 DUP2 LT PUSH2 0x902 JUMPI POP SWAP5 PUSH1 0x1 DUP6 PUSH1 0x6 SWAP6 PUSH32 0xF608EFD81EDDDAC018F9AD0B03084DDBF4C09D8F636DF2E1D43D9C7F3AC68B44 SWAP15 SWAP14 SWAP11 SWAP6 PUSH2 0x820 SWAP14 SWAP11 SWAP6 PUSH2 0x85E SWAP14 SWAP10 PUSH2 0x7DD SWAP12 LT PUSH2 0x8E9 JUMPI JUMPDEST POP POP POP DUP2 SHL ADD SWAP1 SSTORE PUSH2 0x7C6 JUMP JUMPDEST ADD MLOAD PUSH1 0x0 NOT PUSH1 0xF8 DUP5 PUSH1 0x3 SHL AND SHR NOT AND SWAP1 SSTORE CODESIZE DUP1 DUP1 PUSH2 0x8DC JUMP JUMPDEST SWAP3 SWAP4 PUSH1 0x20 PUSH1 0x1 DUP2 SWAP3 DUP8 DUP7 ADD MLOAD DUP2 SSTORE ADD SWAP6 ADD SWAP4 ADD PUSH2 0x893 JUMP JUMPDEST PUSH4 0x4E487B71 PUSH1 0xE0 SHL PUSH1 0x0 MSTORE PUSH1 0x41 PUSH1 0x4 MSTORE PUSH1 0x24 PUSH1 0x0 REVERT JUMPDEST ADD MLOAD SWAP1 POP DUP14 DUP1 PUSH2 0x6CC JUMP JUMPDEST SWAP1 PUSH1 0x1F NOT DUP4 AND SWAP2 DUP5 PUSH1 0x0 MSTORE DUP2 PUSH1 0x0 KECCAK256 SWAP3 PUSH1 0x0 JUMPDEST DUP2 DUP2 LT PUSH2 0x98A JUMPI POP SWAP1 DUP5 PUSH1 0x1 SWAP6 SWAP5 SWAP4 SWAP3 LT PUSH2 0x971 JUMPI JUMPDEST POP POP POP DUP2 SHL ADD SWAP1 SSTORE PUSH2 0x73B JUMP JUMPDEST ADD MLOAD PUSH1 0x0 NOT PUSH1 0xF8 DUP5 PUSH1 0x3 SHL AND SHR NOT AND SWAP1 SSTORE DUP13 DUP1 DUP1 PUSH2 0x964 JUMP JUMPDEST SWAP3 SWAP4 PUSH1 0x20 PUSH1 0x1 DUP2 SWAP3 DUP8 DUP7 ADD MLOAD DUP2 SSTORE ADD SWAP6 ADD SWAP4 ADD PUSH2 0x94E JUMP JUMPDEST ADD MLOAD SWAP1 POP DUP15 DUP1 PUSH2 0x6CC JUMP JUMPDEST SWAP1 PUSH1 0x1F NOT DUP4 AND SWAP2 DUP5 PUSH1 0x0 MSTORE DUP2 PUSH1 0x0 KECCAK256 SWAP3 PUSH1 0x0 JUMPDEST DUP2 DUP2 LT PUSH2 0x9FC JUMPI POP SWAP1 DUP5 PUSH1 0x1 SWAP6 SWAP5 SWAP4 SWAP3 LT PUSH2 0x9E3 JUMPI JUMPDEST POP POP POP DUP2 SHL ADD SWAP1 SSTORE PUSH2 0x6E4 JUMP JUMPDEST ADD MLOAD PUSH1 0x0 NOT PUSH1 0xF8 DUP5 PUSH1 0x3 SHL AND SHR NOT AND SWAP1 SSTORE DUP14 DUP1 DUP1 PUSH2 0x9D6 JUMP JUMPDEST SWAP3 SWAP4 PUSH1 0x20 PUSH1 0x1 DUP2 SWAP3 DUP8 DUP7 ADD MLOAD DUP2 SSTORE ADD SWAP6 ADD SWAP4 ADD PUSH2 0x9C0 JUMP JUMPDEST PUSH1 0x40 MLOAD PUSH3 0x461BCD PUSH1 0xE5 SHL DUP2 MSTORE PUSH1 0x20 PUSH1 0x4 DUP3 ADD MSTORE PUSH1 0xB PUSH1 0x24 DUP3 ADD MSTORE PUSH11 0x5573657220657869737473 PUSH1 0xA8 SHL PUSH1 0x44 DUP3 ADD MSTORE PUSH1 0x64 SWAP1 REVERT JUMPDEST POP PUSH1 0x2 SLOAD PUSH1 0x1 PUSH1 0x1 PUSH1 0xA0 SHL SUB AND CALLER EQ PUSH2 0x569 JUMP JUMPDEST CALLVALUE PUSH2 0x146 JUMPI PUSH1 0x0 CALLDATASIZE PUSH1 0x3 NOT ADD SLT PUSH2 0x146 JUMPI PUSH1 0x20 PUSH1 0x0 SLOAD PUSH1 0x40 MLOAD SWAP1 DUP2 MSTORE RETURN JUMPDEST CALLVALUE PUSH2 0x146 JUMPI PUSH1 0x20 CALLDATASIZE PUSH1 0x3 NOT ADD SLT PUSH2 0x146 JUMPI PUSH1 0x4 CALLDATALOAD PUSH1 0x0 MSTORE PUSH1 0x8 PUSH1 0x20 MSTORE PUSH1 0x40 PUSH1 0x0 KECCAK256 DUP1 SLOAD SWAP1 PUSH2 0xAA6 DUP3 PUSH2 0x24B9 JUMP JUMPDEST SWAP2 PUSH2 0xAB4 PUSH1 0x40 MLOAD SWAP4 DUP5 PUSH2 0x20B7 JUMP JUMPDEST DUP1 DUP4 MSTORE PUSH1 0x20 DUP4 ADD DUP1 SWAP3 PUSH1 0x0 MSTORE PUSH1 0x20 PUSH1 0x0 KECCAK256 PUSH1 0x0 SWAP2 JUMPDEST DUP4 DUP4 LT PUSH2 0xB2C JUMPI DUP5 DUP7 PUSH1 0x40 MLOAD SWAP2 DUP3 SWAP2 PUSH1 0x20 DUP4 ADD SWAP1 PUSH1 0x20 DUP5 MSTORE MLOAD DUP1 SWAP2 MSTORE PUSH1 0x40 DUP4 ADD SWAP2 SWAP1 PUSH1 0x0 JUMPDEST DUP2 DUP2 LT PUSH2 0xAFC JUMPI POP POP POP SUB SWAP1 RETURN JUMPDEST SWAP2 SWAP4 POP SWAP2 PUSH1 0x20 PUSH2 0xB1F PUSH1 0x1 SWAP3 DUP7 MLOAD SWAP1 PUSH1 0x20 PUSH1 0x40 SWAP3 DUP1 MLOAD DUP4 MSTORE ADD MLOAD PUSH1 0x20 DUP3 ADD MSTORE ADD SWAP1 JUMP JUMPDEST SWAP5 ADD SWAP2 ADD SWAP2 DUP5 SWAP4 SWAP3 PUSH2 0xAEE JUMP JUMPDEST PUSH1 0x2 PUSH1 0x20 PUSH1 0x1 SWAP3 PUSH2 0xB3C DUP6 PUSH2 0x255E JUMP JUMPDEST DUP2 MSTORE ADD SWAP3 ADD SWAP3 ADD SWAP2 SWAP1 PUSH2 0xAC9 JUMP JUMPDEST CALLVALUE PUSH2 0x146 JUMPI PUSH1 0x0 CALLDATASIZE PUSH1 0x3 NOT ADD SLT PUSH2 0x146 JUMPI PUSH1 0x20 PUSH1 0x40 MLOAD PUSH2 0x8AE DUP2 MSTORE RETURN JUMPDEST CALLVALUE PUSH2 0x146 JUMPI PUSH1 0x0 CALLDATASIZE PUSH1 0x3 NOT ADD SLT PUSH2 0x146 JUMPI PUSH1 0x2 SLOAD PUSH1 0x40 MLOAD PUSH1 0x1 PUSH1 0x1 PUSH1 0xA0 SHL SUB SWAP1 SWAP2 AND DUP2 MSTORE PUSH1 0x20 SWAP1 RETURN JUMPDEST CALLVALUE PUSH2 0x146 JUMPI PUSH1 0x40 CALLDATASIZE PUSH1 0x3 NOT ADD SLT PUSH2 0x146 JUMPI PUSH2 0xBA9 PUSH2 0x21DD JUMP JUMPDEST PUSH1 0x24 CALLDATALOAD SWAP1 DUP2 ISZERO ISZERO DUP1 SWAP3 SUB PUSH2 0x146 JUMPI PUSH1 0x2 SLOAD PUSH1 0x1 PUSH1 0x1 PUSH1 0xA0 SHL SUB AND CALLER SUB PUSH2 0xC19 JUMPI PUSH1 0x20 PUSH32 0x2C59B8F31260880424E870332281EBA93DDFEF67E37D699CEBE5A7BA89F7A8A6 SWAP2 PUSH1 0x1 DUP1 PUSH1 0xA0 SHL SUB AND SWAP3 DUP4 PUSH1 0x0 MSTORE PUSH1 0x6 DUP3 MSTORE PUSH1 0x40 PUSH1 0x0 KECCAK256 PUSH1 0xFF NOT DUP2 SLOAD AND PUSH1 0xFF DUP4 AND OR SWAP1 SSTORE PUSH1 0x40 MLOAD SWAP1 DUP2 MSTORE LOG2 STOP JUMPDEST PUSH1 0x40 MLOAD PUSH3 0x461BCD PUSH1 0xE5 SHL DUP2 MSTORE PUSH1 0x20 PUSH1 0x4 DUP3 ADD MSTORE PUSH1 0x9 PUSH1 0x24 DUP3 ADD MSTORE PUSH9 0x2737BA1037BBB732B9 PUSH1 0xB9 SHL PUSH1 0x44 DUP3 ADD MSTORE PUSH1 0x64 SWAP1 REVERT JUMPDEST CALLVALUE PUSH2 0x146 JUMPI PUSH1 0x20 CALLDATASIZE PUSH1 0x3 NOT ADD SLT PUSH2 0x146 JUMPI PUSH1 0x4 CALLDATALOAD PUSH2 0xC66 PUSH2 0x24E8 JUMP JUMPDEST POP DUP1 ISZERO ISZERO DUP1 PUSH2 0xD0F JUMPI JUMPDEST PUSH2 0xC79 SWAP1 PUSH2 0x2521 JUMP JUMPDEST PUSH1 0x0 MSTORE PUSH1 0x4 PUSH1 0x20 MSTORE PUSH2 0xD0B PUSH1 0x40 PUSH1 0x0 KECCAK256 PUSH1 0xFF PUSH1 0x6 PUSH1 0x40 MLOAD SWAP3 PUSH2 0xC9A DUP5 PUSH2 0x209C JUMP JUMPDEST DUP1 SLOAD DUP5 MSTORE PUSH1 0x1 DUP2 ADD SLOAD PUSH1 0x1 PUSH1 0x1 PUSH1 0xA0 SHL SUB AND PUSH1 0x20 DUP6 ADD MSTORE PUSH2 0xCBD PUSH1 0x2 DUP3 ADD PUSH2 0x20D8 JUMP JUMPDEST PUSH1 0x40 DUP6 ADD MSTORE PUSH2 0xCCE PUSH1 0x3 DUP3 ADD PUSH2 0x20D8 JUMP JUMPDEST PUSH1 0x60 DUP6 ADD MSTORE PUSH2 0xCDF PUSH1 0x4 DUP3 ADD PUSH2 0x20D8 JUMP JUMPDEST PUSH1 0x80 DUP6 ADD MSTORE PUSH1 0x5 DUP2 ADD SLOAD PUSH1 0xA0 DUP6 ADD MSTORE ADD SLOAD AND PUSH2 0xCFA DUP2 PUSH2 0x21BD JUMP JUMPDEST PUSH1 0xC0 DUP3 ADD MSTORE PUSH1 0x40 MLOAD SWAP2 DUP3 SWAP2 DUP3 PUSH2 0x21F3 JUMP JUMPDEST SUB SWAP1 RETURN JUMPDEST POP PUSH1 0x0 SLOAD DUP2 LT PUSH2 0xC70 JUMP JUMPDEST CALLVALUE PUSH2 0x146 JUMPI PUSH1 0x20 CALLDATASIZE PUSH1 0x3 NOT ADD SLT PUSH2 0x146 JUMPI PUSH2 0xD33 PUSH2 0x21DD JUMP JUMPDEST PUSH2 0xD3B PUSH2 0x24E8 JUMP JUMPDEST POP PUSH1 0x1 PUSH1 0x1 PUSH1 0xA0 SHL SUB AND PUSH1 0x0 SWAP1 DUP2 MSTORE PUSH1 0x3 PUSH1 0x20 MSTORE PUSH1 0x40 SWAP1 KECCAK256 SLOAD PUSH2 0xC79 DUP2 ISZERO ISZERO PUSH2 0x2521 JUMP JUMPDEST CALLVALUE PUSH2 0x146 JUMPI PUSH1 0x40 CALLDATASIZE PUSH1 0x3 NOT ADD SLT PUSH2 0x146 JUMPI PUSH1 0x4 CALLDATALOAD PUSH1 0x24 CALLDATALOAD PUSH1 0x2 DUP2 LT ISZERO PUSH2 0x146 JUMPI CALLER PUSH1 0x0 MSTORE PUSH1 0x6 PUSH1 0x20 MSTORE PUSH1 0xFF PUSH1 0x40 PUSH1 0x0 KECCAK256 SLOAD AND DUP1 ISZERO PUSH2 0xE38 JUMPI JUMPDEST PUSH2 0xDA1 SWAP1 PUSH2 0x22AC JUMP JUMPDEST DUP2 PUSH1 0x0 MSTORE PUSH1 0x4 PUSH1 0x20 MSTORE PUSH1 0x40 PUSH1 0x0 KECCAK256 SLOAD ISZERO PUSH2 0xE04 JUMPI PUSH1 0x20 PUSH32 0x3637553F014EAD9F514EE7C99DB3ECBF14C351D6D5822CFE5625B965B0FADF3E SWAP2 DUP4 PUSH1 0x0 MSTORE PUSH1 0x4 DUP3 MSTORE PUSH2 0xDF2 DUP2 PUSH1 0x6 PUSH1 0x40 PUSH1 0x0 KECCAK256 ADD PUSH2 0x24D0 JUMP JUMPDEST PUSH1 0x40 MLOAD SWAP1 PUSH2 0xDFF DUP2 PUSH2 0x21BD JUMP JUMPDEST DUP2 MSTORE LOG2 STOP JUMPDEST PUSH1 0x40 MLOAD PUSH3 0x461BCD PUSH1 0xE5 SHL DUP2 MSTORE PUSH1 0x20 PUSH1 0x4 DUP3 ADD MSTORE PUSH1 0xC PUSH1 0x24 DUP3 ADD MSTORE PUSH12 0x24B73B30B634B2103AB9B2B9 PUSH1 0xA1 SHL PUSH1 0x44 DUP3 ADD MSTORE PUSH1 0x64 SWAP1 REVERT JUMPDEST POP PUSH1 0x2 SLOAD PUSH1 0x1 PUSH1 0x1 PUSH1 0xA0 SHL SUB AND CALLER EQ PUSH2 0xD98 JUMP JUMPDEST PUSH1 0x20 CALLDATASIZE PUSH1 0x3 NOT ADD SLT PUSH2 0x146 JUMPI PUSH1 0x4 CALLDATALOAD CALLER PUSH1 0x0 MSTORE PUSH1 0x3 PUSH1 0x20 MSTORE PUSH1 0x40 PUSH1 0x0 KECCAK256 SLOAD PUSH2 0xE75 DUP2 ISZERO ISZERO PUSH2 0x22FD JUMP JUMPDEST PUSH1 0x0 MSTORE PUSH1 0x4 PUSH1 0x20 MSTORE PUSH2 0xE9B PUSH1 0xFF PUSH1 0x6 PUSH1 0x40 PUSH1 0x0 KECCAK256 ADD SLOAD AND PUSH2 0xE95 DUP2 PUSH2 0x21BD JUMP JUMPDEST ISZERO PUSH2 0x233A JUMP JUMPDEST DUP1 PUSH1 0x0 MSTORE PUSH1 0x5 PUSH1 0x20 MSTORE PUSH1 0x40 PUSH1 0x0 KECCAK256 SWAP1 PUSH1 0xFF PUSH1 0xE DUP4 ADD SLOAD AND PUSH2 0xEBB DUP2 PUSH2 0x21BD JUMP JUMPDEST PUSH2 0x103A JUMPI PUSH1 0x8 DUP3 ADD SLOAD CALLVALUE LT PUSH2 0xFFE JUMPI CALLER PUSH1 0x0 MSTORE PUSH1 0x3 PUSH1 0x20 MSTORE PUSH1 0xC PUSH1 0x40 PUSH1 0x0 KECCAK256 SLOAD SWAP3 ADD SLOAD DUP3 PUSH1 0x0 MSTORE PUSH1 0x7 PUSH1 0x20 MSTORE PUSH1 0x40 PUSH1 0x0 KECCAK256 PUSH1 0x40 MLOAD PUSH2 0xEF8 DUP2 PUSH2 0x2065 JUMP JUMPDEST DUP4 DUP2 MSTORE TIMESTAMP PUSH1 0x20 DUP3 ADD MSTORE DUP2 SLOAD SWAP2 PUSH1 0x1 PUSH1 0x40 SHL DUP4 LT ISZERO PUSH2 0x91A JUMPI DUP3 PUSH2 0xF23 SWAP2 PUSH1 0x1 PUSH2 0xF29 SWAP6 ADD DUP2 SSTORE PUSH2 0x2290 JUMP JUMPDEST SWAP1 PUSH2 0x2449 JUMP JUMPDEST DUP1 PUSH1 0x0 MSTORE PUSH1 0x8 PUSH1 0x20 MSTORE PUSH2 0xF55 PUSH1 0x40 PUSH1 0x0 KECCAK256 PUSH1 0x40 MLOAD SWAP1 PUSH2 0xF47 DUP3 PUSH2 0x2065 JUMP JUMPDEST DUP5 DUP3 MSTORE TIMESTAMP PUSH1 0x20 DUP4 ADD MSTORE PUSH2 0x2475 JUMP JUMPDEST PUSH1 0xA CALLVALUE MUL CALLVALUE DUP2 DIV PUSH1 0xA EQ CALLVALUE ISZERO OR ISZERO PUSH2 0xFE8 JUMPI PUSH1 0x64 SWAP1 DIV DUP1 CALLVALUE SUB SWAP1 CALLVALUE DUP3 GT PUSH2 0xFE8 JUMPI PUSH1 0x0 SWAP3 DUP4 MSTORE PUSH1 0x4 PUSH1 0x20 MSTORE PUSH1 0x40 DUP4 KECCAK256 PUSH1 0x1 ADD SLOAD DUP4 SWAP3 DUP4 SWAP3 DUP4 SWAP3 PUSH1 0x1 PUSH1 0x1 PUSH1 0xA0 SHL SUB AND SWAP1 DUP4 SWAP1 CALLVALUE EQ PUSH2 0xFDF JUMPI JUMPDEST CALL ISZERO PUSH2 0xFD3 JUMPI PUSH32 0x66B024B18CF8FF1018AD9D6C8CD7D09697108266D2FFE7565A8E64421E954B1F PUSH1 0x20 PUSH1 0x40 MLOAD TIMESTAMP DUP2 MSTORE LOG3 STOP JUMPDEST PUSH1 0x40 MLOAD RETURNDATASIZE PUSH1 0x0 DUP3 RETURNDATACOPY RETURNDATASIZE SWAP1 REVERT JUMPDEST POP PUSH2 0x8FC PUSH2 0xFA1 JUMP JUMPDEST PUSH4 0x4E487B71 PUSH1 0xE0 SHL PUSH1 0x0 MSTORE PUSH1 0x11 PUSH1 0x4 MSTORE PUSH1 0x24 PUSH1 0x0 REVERT JUMPDEST PUSH1 0x40 MLOAD PUSH3 0x461BCD PUSH1 0xE5 SHL DUP2 MSTORE PUSH1 0x20 PUSH1 0x4 DUP3 ADD MSTORE PUSH1 0x14 PUSH1 0x24 DUP3 ADD MSTORE PUSH20 0x125B9CDD59999A58DA595B9D081C185E5B595B9D PUSH1 0x62 SHL PUSH1 0x44 DUP3 ADD MSTORE PUSH1 0x64 SWAP1 REVERT JUMPDEST PUSH1 0x40 MLOAD PUSH3 0x461BCD PUSH1 0xE5 SHL DUP2 MSTORE PUSH1 0x20 PUSH1 0x4 DUP3 ADD MSTORE PUSH1 0x11 PUSH1 0x24 DUP3 ADD MSTORE PUSH17 0x446F63756D656E7420696E616374697665 PUSH1 0x78 SHL PUSH1 0x44 DUP3 ADD MSTORE PUSH1 0x64 SWAP1 REVERT JUMPDEST CALLVALUE PUSH2 0x146 JUMPI PUSH1 0x20 CALLDATASIZE PUSH1 0x3 NOT ADD SLT PUSH2 0x146 JUMPI PUSH1 0x0 PUSH2 0x1C0 PUSH1 0x40 MLOAD PUSH2 0x1095 DUP2 PUSH2 0x2080 JUMP JUMPDEST DUP3 DUP2 MSTORE PUSH1 0x60 PUSH1 0x20 DUP3 ADD MSTORE PUSH1 0x60 PUSH1 0x40 DUP3 ADD MSTORE PUSH1 0x60 DUP1 DUP3 ADD MSTORE PUSH1 0x60 PUSH1 0x80 DUP3 ADD MSTORE PUSH1 0x60 PUSH1 0xA0 DUP3 ADD MSTORE PUSH1 0x60 PUSH1 0xC0 DUP3 ADD MSTORE PUSH1 0x60 PUSH1 0xE0 DUP3 ADD MSTORE DUP3 PUSH2 0x100 DUP3 ADD MSTORE DUP3 PUSH2 0x120 DUP3 ADD MSTORE DUP3 PUSH2 0x140 DUP3 ADD MSTORE DUP3 PUSH2 0x160 DUP3 ADD MSTORE DUP3 PUSH2 0x180 DUP3 ADD MSTORE DUP3 PUSH2 0x1A0 DUP3 ADD MSTORE ADD MSTORE PUSH1 0x4 CALLDATALOAD PUSH1 0x0 MSTORE PUSH1 0x5 PUSH1 0x20 MSTORE PUSH1 0x40 PUSH1 0x0 KECCAK256 PUSH1 0x40 MLOAD SWAP1 PUSH2 0x1111 DUP3 PUSH2 0x2080 JUMP JUMPDEST DUP1 SLOAD DUP3 MSTORE PUSH2 0x1121 PUSH1 0x1 DUP3 ADD PUSH2 0x20D8 JUMP JUMPDEST SWAP2 PUSH1 0x20 DUP2 ADD SWAP3 DUP4 MSTORE PUSH2 0x1135 PUSH1 0x2 DUP4 ADD PUSH2 0x20D8 JUMP JUMPDEST PUSH1 0x40 DUP3 ADD SWAP1 DUP2 MSTORE PUSH2 0x1148 PUSH1 0x3 DUP5 ADD PUSH2 0x20D8 JUMP JUMPDEST SWAP3 PUSH1 0x60 DUP4 ADD SWAP4 DUP5 MSTORE PUSH2 0x115C PUSH1 0x4 DUP3 ADD PUSH2 0x20D8 JUMP JUMPDEST SWAP5 PUSH1 0x80 DUP5 ADD SWAP6 DUP7 MSTORE PUSH2 0x1170 PUSH1 0x5 DUP4 ADD PUSH2 0x20D8 JUMP JUMPDEST SWAP3 PUSH1 0xA0 DUP6 ADD SWAP4 DUP5 MSTORE PUSH2 0x1184 PUSH1 0x6 DUP5 ADD PUSH2 0x20D8 JUMP JUMPDEST SWAP6 PUSH1 0xC0 DUP7 ADD SWAP7 DUP8 MSTORE PUSH1 0x7 DUP5 ADD SWAP8 DUP9 SLOAD SWAP8 PUSH2 0x119D DUP10 PUSH2 0x24B9 JUMP JUMPDEST SWAP9 PUSH2 0x11AB PUSH1 0x40 MLOAD SWAP11 DUP12 PUSH2 0x20B7 JUMP JUMPDEST DUP1 DUP11 MSTORE PUSH1 0x20 DUP11 ADD SWAP11 PUSH1 0x0 MSTORE PUSH1 0x20 PUSH1 0x0 KECCAK256 SWAP11 PUSH1 0x0 SWAP1 JUMPDEST DUP3 DUP3 LT PUSH2 0x1387 JUMPI POP POP POP DUP8 SWAP9 SWAP10 POP PUSH1 0xE0 DUP9 SWAP8 SWAP9 ADD SWAP10 DUP11 MSTORE PUSH1 0x8 DUP7 ADD SLOAD SWAP8 PUSH2 0x100 DUP9 ADD SWAP9 DUP10 MSTORE PUSH1 0x9 DUP8 ADD SLOAD SWAP3 PUSH2 0x120 DUP10 ADD SWAP4 DUP5 MSTORE PUSH1 0xA DUP9 ADD SLOAD SWAP5 PUSH2 0x140 DUP11 ADD SWAP6 DUP7 MSTORE PUSH1 0xB DUP10 ADD SLOAD SWAP7 PUSH2 0x160 DUP12 ADD SWAP8 DUP9 MSTORE PUSH1 0xC DUP11 ADD SLOAD SWAP9 PUSH2 0x180 DUP13 ADD SWAP10 DUP11 MSTORE PUSH1 0xD DUP12 ADD SLOAD SWAP11 PUSH2 0x1A0 DUP14 ADD SWAP12 DUP13 MSTORE PUSH1 0xE ADD SLOAD PUSH1 0xFF AND SWAP12 PUSH2 0x1C0 ADD SWAP12 PUSH2 0x1241 DUP2 PUSH2 0x21BD JUMP JUMPDEST DUP13 MSTORE PUSH1 0x40 MLOAD DUP1 SWAP15 PUSH1 0x20 DUP3 MSTORE MLOAD SWAP1 PUSH1 0x20 ADD MSTORE MLOAD DUP14 PUSH1 0x40 DUP2 ADD PUSH2 0x1E0 SWAP1 MSTORE PUSH2 0x200 ADD PUSH2 0x126A SWAP2 PUSH2 0x217C JUMP JUMPDEST SWAP1 MLOAD DUP14 DUP3 SUB PUSH1 0x1F NOT ADD PUSH1 0x60 DUP16 ADD MSTORE PUSH2 0x1282 SWAP2 SWAP1 PUSH2 0x217C JUMP JUMPDEST SWAP1 MLOAD DUP13 DUP3 SUB PUSH1 0x1F NOT ADD PUSH1 0x80 DUP15 ADD MSTORE PUSH2 0x129A SWAP2 SWAP1 PUSH2 0x217C JUMP JUMPDEST SWAP1 MLOAD DUP12 DUP3 SUB PUSH1 0x1F NOT ADD PUSH1 0xA0 DUP14 ADD MSTORE PUSH2 0x12B2 SWAP2 SWAP1 PUSH2 0x217C JUMP JUMPDEST SWAP1 MLOAD DUP11 DUP3 SUB PUSH1 0x1F NOT ADD PUSH1 0xC0 DUP13 ADD MSTORE PUSH2 0x12CA SWAP2 SWAP1 PUSH2 0x217C JUMP JUMPDEST SWAP1 MLOAD DUP10 DUP3 SUB PUSH1 0x1F NOT ADD PUSH1 0xE0 DUP12 ADD MSTORE PUSH2 0x12E2 SWAP2 SWAP1 PUSH2 0x217C JUMP JUMPDEST SWAP9 MLOAD SWAP7 PUSH1 0x1F NOT DUP10 DUP12 SUB ADD PUSH2 0x100 DUP11 ADD MSTORE DUP8 MLOAD DUP1 DUP12 MSTORE PUSH1 0x20 DUP12 ADD SWAP1 DUP1 PUSH1 0x5 SHL DUP13 ADD PUSH1 0x20 ADD SWAP10 PUSH1 0x20 ADD SWAP2 PUSH1 0x0 SWAP1 JUMPDEST DUP3 DUP3 LT PUSH2 0x135A JUMPI POP POP POP POP DUP9 SWAP10 POP MLOAD PUSH2 0x120 DUP10 ADD MSTORE MLOAD PUSH2 0x140 DUP9 ADD MSTORE MLOAD PUSH2 0x160 DUP8 ADD MSTORE MLOAD PUSH2 0x180 DUP7 ADD MSTORE MLOAD PUSH2 0x1A0 DUP6 ADD MSTORE MLOAD PUSH2 0x1C0 DUP5 ADD MSTORE MLOAD PUSH2 0x1350 DUP2 PUSH2 0x21BD JUMP JUMPDEST PUSH2 0x1E0 DUP4 ADD MSTORE SUB SWAP1 RETURN JUMPDEST SWAP1 SWAP2 SWAP3 SWAP11 PUSH1 0x20 DUP1 DUP16 PUSH1 0x1 SWAP4 DUP16 PUSH2 0x1379 SWAP3 PUSH1 0x1F NOT SWAP1 DUP4 SUB ADD DUP8 MSTORE MLOAD PUSH2 0x217C JUMP JUMPDEST SWAP14 ADD SWAP3 ADD SWAP3 ADD SWAP1 SWAP3 SWAP2 PUSH2 0x130E JUMP JUMPDEST PUSH1 0x1 PUSH1 0x20 DUP2 SWAP3 DUP16 PUSH2 0x1397 SWAP1 PUSH2 0x20D8 JUMP JUMPDEST DUP2 MSTORE ADD SWAP14 ADD SWAP2 ADD SWAP1 SWAP12 PUSH2 0x11C0 JUMP JUMPDEST CALLVALUE PUSH2 0x146 JUMPI PUSH1 0x20 CALLDATASIZE PUSH1 0x3 NOT ADD SLT PUSH2 0x146 JUMPI PUSH1 0x4 CALLDATALOAD PUSH1 0x0 MSTORE PUSH1 0x4 PUSH1 0x20 MSTORE PUSH1 0x40 PUSH1 0x0 KECCAK256 DUP1 SLOAD PUSH1 0x1 DUP1 PUSH1 0xA0 SHL SUB PUSH1 0x1 DUP4 ADD SLOAD AND SWAP2 PUSH2 0x13E2 PUSH1 0x2 DUP3 ADD PUSH2 0x20D8 JUMP JUMPDEST PUSH2 0x144C PUSH2 0x13F1 PUSH1 0x3 DUP5 ADD PUSH2 0x20D8 JUMP JUMPDEST PUSH2 0x143E PUSH2 0x1400 PUSH1 0x4 DUP7 ADD PUSH2 0x20D8 JUMP JUMPDEST SWAP2 PUSH2 0x1430 PUSH1 0xFF PUSH1 0x6 PUSH1 0x5 DUP10 ADD SLOAD SWAP9 ADD SLOAD AND SWAP6 PUSH1 0x40 MLOAD SWAP10 DUP11 SWAP10 DUP11 MSTORE PUSH1 0x20 DUP11 ADD MSTORE PUSH1 0xE0 PUSH1 0x40 DUP11 ADD MSTORE PUSH1 0xE0 DUP10 ADD SWAP1 PUSH2 0x217C JUMP JUMPDEST SWAP1 DUP8 DUP3 SUB PUSH1 0x60 DUP10 ADD MSTORE PUSH2 0x217C JUMP JUMPDEST SWAP1 DUP6 DUP3 SUB PUSH1 0x80 DUP8 ADD MSTORE PUSH2 0x217C JUMP JUMPDEST SWAP2 PUSH1 0xA0 DUP5 ADD MSTORE PUSH2 0x145B DUP2 PUSH2 0x21BD JUMP JUMPDEST PUSH1 0xC0 DUP4 ADD MSTORE SUB SWAP1 RETURN JUMPDEST CALLVALUE PUSH2 0x146 JUMPI PUSH1 0x20 CALLDATASIZE PUSH1 0x3 NOT ADD SLT PUSH2 0x146 JUMPI PUSH1 0x4 CALLDATALOAD PUSH1 0xC0 MSTORE PUSH1 0x1 PUSH1 0x1 PUSH1 0x40 SHL SUB PUSH1 0xC0 MLOAD GT PUSH2 0x146 JUMPI PUSH2 0x120 PUSH1 0x3 NOT PUSH1 0xC0 MLOAD CALLDATASIZE SUB ADD SLT PUSH2 0x146 JUMPI CALLER PUSH1 0x0 MSTORE PUSH1 0x6 PUSH1 0x20 MSTORE PUSH1 0xFF PUSH1 0x40 PUSH1 0x0 KECCAK256 SLOAD AND DUP1 ISZERO PUSH2 0x1FFC JUMPI JUMPDEST PUSH2 0x14BE SWAP1 PUSH2 0x22AC JUMP JUMPDEST PUSH1 0xC0 MLOAD PUSH2 0x104 ADD PUSH1 0x1 PUSH1 0x1 PUSH1 0xA0 SHL SUB PUSH2 0x14D6 DUP3 PUSH2 0x22E9 JUMP JUMPDEST AND PUSH1 0x0 MSTORE PUSH1 0x3 PUSH1 0x20 MSTORE PUSH1 0x40 PUSH1 0x0 KECCAK256 SLOAD PUSH2 0x14F0 DUP2 ISZERO ISZERO PUSH2 0x22FD JUMP JUMPDEST PUSH1 0x0 MSTORE PUSH1 0x4 PUSH1 0x20 MSTORE PUSH2 0x1510 PUSH1 0xFF PUSH1 0x6 PUSH1 0x40 PUSH1 0x0 KECCAK256 ADD SLOAD AND PUSH2 0xE95 DUP2 PUSH2 0x21BD JUMP JUMPDEST PUSH1 0x1 PUSH1 0x1 PUSH1 0xA0 SHL SUB SWAP1 PUSH2 0x1522 SWAP1 PUSH2 0x22E9 JUMP JUMPDEST AND PUSH1 0x0 MSTORE PUSH1 0x3 PUSH1 0x20 MSTORE PUSH1 0x40 PUSH1 0x0 KECCAK256 SLOAD PUSH2 0x160 MSTORE PUSH1 0x1 SLOAD PUSH2 0x140 MSTORE PUSH2 0x1548 PUSH2 0x140 MLOAD PUSH2 0x2377 JUMP JUMPDEST PUSH1 0x1 SSTORE PUSH2 0x140 MLOAD PUSH1 0x0 DUP2 DUP2 MSTORE PUSH1 0x5 PUSH1 0x20 MSTORE PUSH1 0x40 SWAP1 KECCAK256 SWAP1 DUP2 SSTORE PUSH1 0xC0 MLOAD PUSH2 0x1570 SWAP1 PUSH1 0x4 ADD DUP1 PUSH2 0x2386 JUMP JUMPDEST PUSH1 0x1 DUP4 SWAP3 SWAP4 ADD SWAP1 PUSH1 0x1 PUSH1 0x1 PUSH1 0x40 SHL SUB DUP2 GT PUSH2 0x91A JUMPI PUSH2 0x1599 DUP2 PUSH2 0x1593 DUP5 SLOAD PUSH2 0x202B JUMP JUMPDEST DUP5 PUSH2 0x23CF JUMP JUMPDEST PUSH1 0x0 PUSH1 0x1F DUP3 GT PUSH1 0x1 EQ PUSH2 0x1F99 JUMPI DUP2 SWAP1 PUSH2 0x15CA SWAP4 SWAP5 SWAP6 PUSH1 0x0 SWAP3 PUSH2 0x1F8E JUMPI POP POP DUP2 PUSH1 0x1 SHL SWAP2 PUSH1 0x0 NOT SWAP1 PUSH1 0x3 SHL SHR NOT AND OR SWAP1 JUMP JUMPDEST SWAP1 SSTORE JUMPDEST PUSH1 0x24 PUSH1 0xC0 MLOAD ADD SWAP1 PUSH2 0x15E3 DUP3 PUSH1 0xC0 MLOAD PUSH1 0x4 ADD PUSH2 0x2386 JUMP JUMPDEST PUSH1 0x2 DUP4 SWAP5 SWAP3 SWAP5 ADD SWAP1 PUSH1 0x1 PUSH1 0x1 PUSH1 0x40 SHL SUB DUP2 GT PUSH2 0x91A JUMPI PUSH2 0x1607 DUP2 PUSH2 0x1593 DUP5 SLOAD PUSH2 0x202B JUMP JUMPDEST PUSH1 0x0 PUSH1 0x1F DUP3 GT PUSH1 0x1 EQ PUSH2 0x1F2A JUMPI DUP2 SWAP1 PUSH2 0x1639 SWAP4 SWAP5 SWAP6 SWAP7 PUSH1 0x0 SWAP3 PUSH2 0x1F1F JUMPI POP POP DUP2 PUSH1 0x1 SHL SWAP2 PUSH1 0x0 NOT SWAP1 PUSH1 0x3 SHL SHR NOT AND OR SWAP1 JUMP JUMPDEST SWAP1 SSTORE JUMPDEST PUSH1 0x44 PUSH1 0xC0 MLOAD ADD PUSH2 0x1651 DUP2 PUSH1 0xC0 MLOAD PUSH1 0x4 ADD PUSH2 0x2386 JUMP JUMPDEST PUSH1 0x3 DUP6 ADD SWAP2 PUSH1 0x1 PUSH1 0x1 PUSH1 0x40 SHL SUB DUP3 GT PUSH2 0x91A JUMPI PUSH2 0x1672 DUP3 PUSH2 0x6AA DUP6 SLOAD PUSH2 0x202B JUMP JUMPDEST PUSH1 0x0 SWAP1 PUSH1 0x1F DUP4 GT PUSH1 0x1 EQ PUSH2 0x1EBB JUMPI PUSH2 0x16A2 SWAP3 SWAP2 PUSH1 0x0 SWAP2 DUP4 PUSH2 0x1EB0 JUMPI POP POP DUP2 PUSH1 0x1 SHL SWAP2 PUSH1 0x0 NOT SWAP1 PUSH1 0x3 SHL SHR NOT AND OR SWAP1 JUMP JUMPDEST SWAP1 SSTORE JUMPDEST PUSH1 0x64 PUSH1 0xC0 MLOAD ADD SWAP1 PUSH2 0x16BB DUP3 PUSH1 0xC0 MLOAD PUSH1 0x4 ADD PUSH2 0x2386 JUMP JUMPDEST PUSH1 0x4 DUP7 ADD SWAP2 PUSH1 0x1 PUSH1 0x1 PUSH1 0x40 SHL SUB DUP3 GT PUSH2 0x91A JUMPI PUSH2 0x16DC DUP3 PUSH2 0x6AA DUP6 SLOAD PUSH2 0x202B JUMP JUMPDEST PUSH1 0x0 SWAP1 PUSH1 0x1F DUP4 GT PUSH1 0x1 EQ PUSH2 0x1E4C JUMPI PUSH2 0x170C SWAP3 SWAP2 PUSH1 0x0 SWAP2 DUP4 PUSH2 0x1E41 JUMPI POP POP DUP2 PUSH1 0x1 SHL SWAP2 PUSH1 0x0 NOT SWAP1 PUSH1 0x3 SHL SHR NOT AND OR SWAP1 JUMP JUMPDEST SWAP1 SSTORE JUMPDEST PUSH1 0x84 PUSH1 0xC0 MLOAD ADD SWAP3 PUSH2 0x1725 DUP5 PUSH1 0xC0 MLOAD PUSH1 0x4 ADD PUSH2 0x2386 JUMP JUMPDEST PUSH1 0x5 DUP8 ADD SWAP2 PUSH1 0x1 PUSH1 0x1 PUSH1 0x40 SHL SUB DUP3 GT PUSH2 0x91A JUMPI PUSH2 0x1746 DUP3 PUSH2 0x6AA DUP6 SLOAD PUSH2 0x202B JUMP JUMPDEST PUSH1 0x0 SWAP1 PUSH1 0x1F DUP4 GT PUSH1 0x1 EQ PUSH2 0x1DDD JUMPI PUSH2 0x1776 SWAP3 SWAP2 PUSH1 0x0 SWAP2 DUP4 PUSH2 0x1DD2 JUMPI POP POP DUP2 PUSH1 0x1 SHL SWAP2 PUSH1 0x0 NOT SWAP1 PUSH1 0x3 SHL SHR NOT AND OR SWAP1 JUMP JUMPDEST SWAP1 SSTORE JUMPDEST PUSH1 0xA4 PUSH1 0xC0 MLOAD ADD PUSH2 0x178E DUP2 PUSH1 0xC0 MLOAD PUSH1 0x4 ADD PUSH2 0x2386 JUMP JUMPDEST PUSH1 0x6 DUP9 ADD SWAP2 PUSH1 0x1 PUSH1 0x1 PUSH1 0x40 SHL SUB DUP3 GT PUSH2 0x91A JUMPI PUSH2 0x17AF DUP3 PUSH2 0x6AA DUP6 SLOAD PUSH2 0x202B JUMP JUMPDEST PUSH1 0x0 SWAP1 PUSH1 0x1F DUP4 GT PUSH1 0x1 EQ PUSH2 0x1D6E JUMPI PUSH2 0x17DF SWAP3 SWAP2 PUSH1 0x0 SWAP2 DUP4 PUSH2 0x1D63 JUMPI POP POP DUP2 PUSH1 0x1 SHL SWAP2 PUSH1 0x0 NOT SWAP1 PUSH1 0x3 SHL SHR NOT AND OR SWAP1 JUMP JUMPDEST SWAP1 SSTORE JUMPDEST PUSH2 0x17F6 PUSH1 0xC4 PUSH1 0xC0 MLOAD ADD PUSH1 0xC0 MLOAD PUSH1 0x4 ADD PUSH2 0x2414 JUMP JUMPDEST PUSH1 0x7 DUP9 ADD SWAP2 PUSH1 0x1 PUSH1 0x40 SHL DUP3 GT PUSH2 0x91A JUMPI DUP3 SLOAD DUP3 DUP5 SSTORE DUP1 DUP4 LT PUSH2 0x1CE5 JUMPI JUMPDEST POP PUSH1 0x0 SWAP3 DUP4 MSTORE PUSH1 0x20 DUP4 KECCAK256 SWAP3 SWAP1 DUP1 JUMPDEST DUP4 DUP4 LT PUSH2 0x1BFC JUMPI POP DUP10 DUP10 PUSH2 0x1925 DUP11 PUSH2 0x1917 DUP12 PUSH2 0x1909 PUSH2 0x18FB DUP14 PUSH2 0x195B PUSH2 0x18BC DUP16 PUSH1 0xE4 PUSH1 0xC0 MLOAD ADD CALLDATALOAD PUSH1 0x8 DUP14 ADD SSTORE PUSH1 0x0 PUSH1 0x9 DUP14 ADD SSTORE PUSH1 0x0 PUSH1 0xA DUP14 ADD SSTORE PUSH1 0x0 PUSH1 0xB DUP14 ADD SSTORE PUSH2 0x160 MLOAD PUSH1 0xC DUP14 ADD SSTORE PUSH1 0xE PUSH1 0xD DUP14 ADD SWAP13 DUP14 TIMESTAMP SWAP1 SSTORE ADD PUSH1 0xFF NOT DUP2 SLOAD AND SWAP1 SSTORE PUSH2 0x160 MLOAD PUSH1 0x0 MSTORE PUSH1 0x8 PUSH1 0x20 MSTORE PUSH2 0x18B1 PUSH1 0x40 PUSH1 0x0 KECCAK256 PUSH1 0x40 MLOAD SWAP1 PUSH2 0x18A0 DUP3 PUSH2 0x2065 JUMP JUMPDEST PUSH2 0x140 MLOAD DUP3 MSTORE TIMESTAMP PUSH1 0x20 DUP4 ADD MSTORE PUSH2 0x2475 JUMP JUMPDEST PUSH1 0xC0 MLOAD PUSH1 0x4 ADD PUSH2 0x2386 JUMP JUMPDEST SWAP2 SWAP1 PUSH2 0x18D2 PUSH1 0xC4 PUSH1 0xC0 MLOAD ADD PUSH1 0xC0 MLOAD PUSH1 0x4 ADD PUSH2 0x2414 JUMP JUMPDEST PUSH2 0x180 MSTORE SWAP12 SLOAD SWAP3 PUSH2 0x18ED PUSH1 0xC0 MLOAD PUSH1 0x4 ADD PUSH1 0xC0 MLOAD PUSH1 0x4 ADD PUSH2 0x2386 JUMP JUMPDEST SWAP7 SWAP1 SWAP6 PUSH1 0xC0 MLOAD PUSH1 0x4 ADD PUSH2 0x2386 JUMP JUMPDEST SWAP8 SWAP1 SWAP9 PUSH1 0xC0 MLOAD PUSH1 0x4 ADD PUSH2 0x2386 JUMP JUMPDEST SWAP10 SWAP1 SWAP11 PUSH1 0xC0 MLOAD PUSH1 0x4 ADD PUSH2 0x2386 JUMP JUMPDEST SWAP12 SWAP1 SWAP13 PUSH1 0xC0 MLOAD PUSH1 0x4 ADD PUSH2 0x2386 JUMP JUMPDEST PUSH1 0x80 MSTORE PUSH1 0xE0 MSTORE PUSH2 0x160 MLOAD PUSH1 0x0 MSTORE PUSH1 0x4 PUSH1 0x20 MSTORE PUSH1 0x2 PUSH1 0x40 PUSH1 0x0 KECCAK256 ADD PUSH1 0xA0 MSTORE PUSH1 0x40 MLOAD PUSH2 0x120 MSTORE PUSH2 0x120 DUP1 MLOAD MSTORE PUSH2 0x120 DUP1 MLOAD ADD SWAP2 PUSH2 0x2498 JUMP JUMPDEST PUSH2 0x120 MLOAD DUP1 DUP3 SUB PUSH1 0x20 SWAP2 DUP3 ADD MSTORE PUSH2 0x180 DUP1 MLOAD DUP4 MSTORE DUP2 DUP4 ADD PUSH2 0x100 MSTORE MLOAD PUSH1 0x5 SHL DUP3 ADD ADD SWAP11 SWAP1 PUSH1 0x0 DUP3 JUMPDEST PUSH2 0x180 MLOAD DUP3 LT PUSH2 0x1B99 JUMPI POP POP POP POP SWAP3 PUSH2 0x19C5 PUSH2 0x1A1A SWAP11 PUSH2 0x19D9 SWAP5 PUSH2 0x1A01 SWAP12 SWAP11 SWAP10 SWAP8 SWAP5 PUSH2 0x19ED SWAP10 SWAP8 PUSH1 0x40 PUSH2 0x120 MLOAD ADD MSTORE PUSH2 0x120 MLOAD DUP4 SUB PUSH1 0x60 PUSH2 0x120 MLOAD ADD MSTORE PUSH2 0x2498 JUMP JUMPDEST SWAP2 PUSH2 0x120 MLOAD DUP4 SUB PUSH1 0x80 PUSH2 0x120 MLOAD ADD MSTORE PUSH2 0x2498 JUMP JUMPDEST SWAP2 PUSH2 0x120 MLOAD DUP4 SUB PUSH1 0xA0 PUSH2 0x120 MLOAD ADD MSTORE PUSH2 0x2498 JUMP JUMPDEST SWAP2 PUSH2 0x120 MLOAD DUP4 SUB PUSH1 0xC0 PUSH2 0x120 MLOAD ADD MSTORE PUSH2 0x2498 JUMP JUMPDEST PUSH2 0x120 MLOAD DUP2 SUB PUSH1 0xE0 PUSH2 0x120 MLOAD ADD MSTORE PUSH1 0x80 MLOAD PUSH1 0xE0 MLOAD PUSH2 0x2498 JUMP JUMPDEST PUSH2 0x120 MLOAD DUP2 SUB PUSH2 0x100 PUSH2 0x120 MLOAD ADD MSTORE PUSH1 0x0 SWAP1 PUSH1 0xA0 MLOAD SLOAD SWAP1 PUSH2 0x1A3A DUP3 PUSH2 0x202B JUMP JUMPDEST DUP1 DUP3 MSTORE SWAP2 PUSH1 0x1 DUP2 AND SWAP1 DUP2 ISZERO PUSH2 0x1B7A JUMPI POP PUSH1 0x1 EQ PUSH2 0x1B41 JUMPI JUMPDEST POP POP PUSH1 0xE4 PUSH1 0xC0 MLOAD ADD CALLDATALOAD SWAP1 PUSH2 0x160 MLOAD SWAP1 PUSH32 0xA221893F293D11E28C1781225F7EC9A69BB71C23C81D6021F2A30E18D791F022 PUSH2 0x140 MLOAD SWAP2 PUSH2 0x120 MLOAD SWAP1 SUB PUSH2 0x120 MLOAD LOG4 PUSH1 0x0 JUMPDEST PUSH2 0x1AA9 PUSH1 0xC4 PUSH1 0xC0 MLOAD ADD PUSH1 0xC0 MLOAD PUSH1 0x4 ADD PUSH2 0x2414 JUMP JUMPDEST SWAP1 POP DUP2 LT ISZERO PUSH2 0x1B3F JUMPI PUSH2 0x1AC6 PUSH1 0xC4 PUSH1 0xC0 MLOAD ADD PUSH1 0xC0 MLOAD PUSH1 0x4 ADD PUSH2 0x2414 JUMP JUMPDEST DUP3 SWAP2 SWAP3 LT ISZERO PUSH2 0x1B29 JUMPI PUSH2 0x1B20 PUSH32 0x7437EEF4E1784CEFA44883B72ABDED61CBC5B4712F361356D107C47F5EB4EB92 PUSH2 0x1B05 PUSH1 0x1 SWAP5 DUP5 PUSH1 0x5 SHL DUP2 ADD SWAP1 PUSH2 0x2386 JUMP JUMPDEST SWAP3 SWAP1 PUSH1 0x40 MLOAD SWAP2 DUP3 SWAP2 PUSH1 0x20 DUP4 MSTORE PUSH2 0x140 MLOAD SWAP6 PUSH1 0x20 DUP5 ADD SWAP2 PUSH2 0x2498 JUMP JUMPDEST SUB SWAP1 LOG2 ADD PUSH2 0x1A95 JUMP JUMPDEST PUSH4 0x4E487B71 PUSH1 0xE0 SHL PUSH1 0x0 MSTORE PUSH1 0x32 PUSH1 0x4 MSTORE PUSH1 0x24 PUSH1 0x0 REVERT JUMPDEST STOP JUMPDEST PUSH1 0x20 SWAP3 POP PUSH1 0xA0 MLOAD PUSH1 0x0 MSTORE DUP3 PUSH1 0x0 KECCAK256 SWAP2 PUSH1 0x0 SWAP3 JUMPDEST DUP2 DUP5 LT PUSH2 0x1B66 JUMPI POP POP ADD ADD DUP2 DUP1 PUSH2 0x1A52 JUMP JUMPDEST DUP1 SLOAD DUP4 DUP6 ADD DUP7 ADD MSTORE SWAP3 DUP5 ADD SWAP3 PUSH1 0x1 ADD PUSH2 0x1B54 JUMP JUMPDEST SWAP1 POP PUSH1 0x20 SWAP4 POP PUSH1 0xFF SWAP3 SWAP2 SWAP3 NOT AND DUP4 DUP4 ADD MSTORE ISZERO ISZERO PUSH1 0x5 SHL ADD ADD DUP2 DUP1 PUSH2 0x1A52 JUMP JUMPDEST SWAP1 SWAP2 SWAP3 SWAP13 PUSH1 0x1F NOT DUP5 DUP3 SUB ADD PUSH2 0x100 MLOAD MSTORE DUP14 CALLDATALOAD PUSH1 0x1E NOT DUP4 CALLDATASIZE SUB ADD DUP2 SLT ISZERO PUSH2 0x146 JUMPI DUP3 ADD PUSH1 0x20 DUP2 CALLDATALOAD SWAP2 ADD PUSH1 0x1 PUSH1 0x1 PUSH1 0x40 SHL SUB DUP3 GT PUSH2 0x146 JUMPI DUP2 CALLDATASIZE SUB DUP2 SGT PUSH2 0x146 JUMPI PUSH1 0x1 SWAP3 PUSH1 0x20 SWAP3 PUSH2 0x1BE7 SWAP3 PUSH2 0x2498 JUMP JUMPDEST PUSH2 0x100 DUP1 MLOAD PUSH1 0x20 ADD SWAP1 MSTORE SWAP15 ADD SWAP4 SWAP3 ADD SWAP1 PUSH2 0x1983 JUMP JUMPDEST PUSH2 0x1C06 DUP2 DUP4 PUSH2 0x2386 JUMP JUMPDEST SWAP1 PUSH1 0x1 PUSH1 0x1 PUSH1 0x40 SHL SUB DUP3 GT PUSH2 0x91A JUMPI PUSH2 0x1C29 DUP3 PUSH2 0x1C23 DUP10 SLOAD PUSH2 0x202B JUMP JUMPDEST DUP10 PUSH2 0x23CF JUMP JUMPDEST PUSH1 0x0 SWAP1 PUSH1 0x1F DUP4 GT PUSH1 0x1 EQ PUSH2 0x1C7B JUMPI SWAP3 PUSH2 0x1C61 DUP4 PUSH1 0x1 SWAP6 SWAP5 PUSH1 0x20 SWAP5 DUP8 SWAP7 PUSH1 0x0 SWAP3 PUSH2 0x1C70 JUMPI POP POP DUP2 PUSH1 0x1 SHL SWAP2 PUSH1 0x0 NOT SWAP1 PUSH1 0x3 SHL SHR NOT AND OR SWAP1 JUMP JUMPDEST DUP9 SSTORE JUMPDEST ADD SWAP6 ADD SWAP3 ADD SWAP2 SWAP4 PUSH2 0x1821 JUMP JUMPDEST ADD CALLDATALOAD SWAP1 POP CODESIZE DUP1 PUSH2 0x6CC JUMP JUMPDEST DUP8 DUP3 MSTORE PUSH1 0x20 DUP3 KECCAK256 SWAP2 PUSH1 0x1F NOT DUP5 AND DUP2 JUMPDEST DUP2 DUP2 LT PUSH2 0x1CCD JUMPI POP SWAP4 PUSH1 0x20 SWAP4 PUSH1 0x1 SWAP7 SWAP4 DUP8 SWAP7 SWAP4 DUP4 DUP9 SWAP6 LT PUSH2 0x1CB3 JUMPI JUMPDEST POP POP POP DUP2 SHL ADD DUP9 SSTORE PUSH2 0x1C64 JUMP JUMPDEST ADD CALLDATALOAD PUSH1 0x0 NOT PUSH1 0x3 DUP5 SWAP1 SHL PUSH1 0xF8 AND SHR NOT AND SWAP1 SSTORE CODESIZE DUP1 DUP1 PUSH2 0x1CA6 JUMP JUMPDEST SWAP2 SWAP4 PUSH1 0x20 PUSH1 0x1 DUP2 SWAP3 DUP8 DUP8 ADD CALLDATALOAD DUP2 SSTORE ADD SWAP6 ADD SWAP3 ADD PUSH2 0x1C8A JUMP JUMPDEST DUP4 PUSH1 0x0 MSTORE DUP3 PUSH1 0x20 PUSH1 0x0 KECCAK256 SWAP2 DUP3 ADD SWAP2 ADD JUMPDEST DUP2 DUP2 LT PUSH2 0x1D02 JUMPI POP PUSH2 0x1813 JUMP JUMPDEST DUP1 PUSH2 0x1D0F PUSH1 0x1 SWAP3 SLOAD PUSH2 0x202B JUMP JUMPDEST DUP1 PUSH2 0x1D1C JUMPI JUMPDEST POP ADD PUSH2 0x1CF5 JUMP JUMPDEST PUSH1 0x1F DUP2 GT DUP4 EQ PUSH2 0x1D32 JUMPI POP PUSH1 0x0 DUP2 SSTORE JUMPDEST DUP13 PUSH2 0x1D15 JUMP JUMPDEST PUSH2 0x1D50 SWAP1 DUP3 PUSH1 0x0 MSTORE DUP4 PUSH1 0x1F PUSH1 0x20 PUSH1 0x0 KECCAK256 SWAP3 ADD PUSH1 0x5 SHR DUP3 ADD SWAP2 ADD PUSH2 0x23B8 JUMP JUMPDEST DUP1 PUSH1 0x0 MSTORE PUSH1 0x0 PUSH1 0x20 DUP2 KECCAK256 DUP2 DUP4 SSTORE SSTORE PUSH2 0x1D2C JUMP JUMPDEST ADD CALLDATALOAD SWAP1 POP DUP11 DUP1 PUSH2 0x6CC JUMP JUMPDEST DUP4 DUP3 MSTORE PUSH1 0x20 DUP3 KECCAK256 SWAP2 PUSH1 0x1F NOT DUP5 AND DUP2 JUMPDEST DUP2 DUP2 LT PUSH2 0x1DBA JUMPI POP SWAP1 DUP5 PUSH1 0x1 SWAP6 SWAP5 SWAP4 SWAP3 LT PUSH2 0x1DA0 JUMPI JUMPDEST POP POP POP DUP2 SHL ADD SWAP1 SSTORE PUSH2 0x17E2 JUMP JUMPDEST ADD CALLDATALOAD PUSH1 0x0 NOT PUSH1 0x3 DUP5 SWAP1 SHL PUSH1 0xF8 AND SHR NOT AND SWAP1 SSTORE DUP10 DUP1 DUP1 PUSH2 0x1D93 JUMP JUMPDEST SWAP2 SWAP4 PUSH1 0x20 PUSH1 0x1 DUP2 SWAP3 DUP8 DUP8 ADD CALLDATALOAD DUP2 SSTORE ADD SWAP6 ADD SWAP3 ADD PUSH2 0x1D7D JUMP JUMPDEST ADD CALLDATALOAD SWAP1 POP DUP10 DUP1 PUSH2 0x6CC JUMP JUMPDEST DUP4 DUP3 MSTORE PUSH1 0x20 DUP3 KECCAK256 SWAP2 PUSH1 0x1F NOT DUP5 AND DUP2 JUMPDEST DUP2 DUP2 LT PUSH2 0x1E29 JUMPI POP SWAP1 DUP5 PUSH1 0x1 SWAP6 SWAP5 SWAP4 SWAP3 LT PUSH2 0x1E0F JUMPI JUMPDEST POP POP POP DUP2 SHL ADD SWAP1 SSTORE PUSH2 0x1779 JUMP JUMPDEST ADD CALLDATALOAD PUSH1 0x0 NOT PUSH1 0x3 DUP5 SWAP1 SHL PUSH1 0xF8 AND SHR NOT AND SWAP1 SSTORE DUP9 DUP1 DUP1 PUSH2 0x1E02 JUMP JUMPDEST SWAP2 SWAP4 PUSH1 0x20 PUSH1 0x1 DUP2 SWAP3 DUP8 DUP8 ADD CALLDATALOAD DUP2 SSTORE ADD SWAP6 ADD SWAP3 ADD PUSH2 0x1DEC JUMP JUMPDEST ADD CALLDATALOAD SWAP1 POP DUP9 DUP1 PUSH2 0x6CC JUMP JUMPDEST DUP4 DUP3 MSTORE PUSH1 0x20 DUP3 KECCAK256 SWAP2 PUSH1 0x1F NOT DUP5 AND DUP2 JUMPDEST DUP2 DUP2 LT PUSH2 0x1E98 JUMPI POP SWAP1 DUP5 PUSH1 0x1 SWAP6 SWAP5 SWAP4 SWAP3 LT PUSH2 0x1E7E JUMPI JUMPDEST POP POP POP DUP2 SHL ADD SWAP1 SSTORE PUSH2 0x170F JUMP JUMPDEST ADD CALLDATALOAD PUSH1 0x0 NOT PUSH1 0x3 DUP5 SWAP1 SHL PUSH1 0xF8 AND SHR NOT AND SWAP1 SSTORE DUP8 DUP1 DUP1 PUSH2 0x1E71 JUMP JUMPDEST SWAP2 SWAP4 PUSH1 0x20 PUSH1 0x1 DUP2 SWAP3 DUP8 DUP8 ADD CALLDATALOAD DUP2 SSTORE ADD SWAP6 ADD SWAP3 ADD PUSH2 0x1E5B JUMP JUMPDEST ADD CALLDATALOAD SWAP1 POP DUP8 DUP1 PUSH2 0x6CC JUMP JUMPDEST DUP4 DUP3 MSTORE PUSH1 0x20 DUP3 KECCAK256 SWAP2 PUSH1 0x1F NOT DUP5 AND DUP2 JUMPDEST DUP2 DUP2 LT PUSH2 0x1F07 JUMPI POP SWAP1 DUP5 PUSH1 0x1 SWAP6 SWAP5 SWAP4 SWAP3 LT PUSH2 0x1EED JUMPI JUMPDEST POP POP POP DUP2 SHL ADD SWAP1 SSTORE PUSH2 0x16A5 JUMP JUMPDEST ADD CALLDATALOAD PUSH1 0x0 NOT PUSH1 0x3 DUP5 SWAP1 SHL PUSH1 0xF8 AND SHR NOT AND SWAP1 SSTORE DUP7 DUP1 DUP1 PUSH2 0x1EE0 JUMP JUMPDEST SWAP2 SWAP4 PUSH1 0x20 PUSH1 0x1 DUP2 SWAP3 DUP8 DUP8 ADD CALLDATALOAD DUP2 SSTORE ADD SWAP6 ADD SWAP3 ADD PUSH2 0x1ECA JUMP JUMPDEST ADD CALLDATALOAD SWAP1 POP DUP7 DUP1 PUSH2 0x6CC JUMP JUMPDEST PUSH1 0x1F NOT DUP3 AND SWAP6 DUP4 DUP3 MSTORE PUSH1 0x20 DUP3 KECCAK256 SWAP2 DUP1 JUMPDEST DUP9 DUP2 LT PUSH2 0x1F76 JUMPI POP DUP4 PUSH1 0x1 SWAP6 SWAP7 SWAP8 SWAP9 LT PUSH2 0x1F5C JUMPI JUMPDEST POP POP POP DUP2 SHL ADD SWAP1 SSTORE PUSH2 0x163C JUMP JUMPDEST ADD CALLDATALOAD PUSH1 0x0 NOT PUSH1 0x3 DUP5 SWAP1 SHL PUSH1 0xF8 AND SHR NOT AND SWAP1 SSTORE DUP6 DUP1 DUP1 PUSH2 0x1F4F JUMP JUMPDEST SWAP1 SWAP3 PUSH1 0x20 PUSH1 0x1 DUP2 SWAP3 DUP7 DUP7 ADD CALLDATALOAD DUP2 SSTORE ADD SWAP5 ADD SWAP2 ADD PUSH2 0x1F3A JUMP JUMPDEST ADD CALLDATALOAD SWAP1 POP DUP6 DUP1 PUSH2 0x6CC JUMP JUMPDEST PUSH1 0x1F NOT DUP3 AND SWAP5 DUP4 DUP3 MSTORE PUSH1 0x20 DUP3 KECCAK256 SWAP2 DUP1 JUMPDEST DUP8 DUP2 LT PUSH2 0x1FE4 JUMPI POP DUP4 PUSH1 0x1 SWAP6 SWAP7 SWAP8 LT PUSH2 0x1FCA JUMPI JUMPDEST POP POP POP DUP2 SHL ADD SWAP1 SSTORE PUSH2 0x15CD JUMP JUMPDEST ADD CALLDATALOAD PUSH1 0x0 NOT PUSH1 0x3 DUP5 SWAP1 SHL PUSH1 0xF8 AND SHR NOT AND SWAP1 SSTORE DUP5 DUP1 DUP1 PUSH2 0x1FBD JUMP JUMPDEST SWAP1 SWAP3 PUSH1 0x20 PUSH1 0x1 DUP2 SWAP3 DUP7 DUP7 ADD CALLDATALOAD DUP2 SSTORE ADD SWAP5 ADD SWAP2 ADD PUSH2 0x1FA9 JUMP JUMPDEST POP PUSH1 0x2 SLOAD PUSH1 0x1 PUSH1 0x1 PUSH1 0xA0 SHL SUB AND CALLER EQ PUSH2 0x14B5 JUMP JUMPDEST CALLVALUE PUSH2 0x146 JUMPI PUSH1 0x0 CALLDATASIZE PUSH1 0x3 NOT ADD SLT PUSH2 0x146 JUMPI PUSH1 0x20 SWAP1 PUSH1 0x1 SLOAD DUP2 MSTORE RETURN JUMPDEST SWAP1 PUSH1 0x1 DUP3 DUP2 SHR SWAP3 AND DUP1 ISZERO PUSH2 0x205B JUMPI JUMPDEST PUSH1 0x20 DUP4 LT EQ PUSH2 0x2045 JUMPI JUMP JUMPDEST PUSH4 0x4E487B71 PUSH1 0xE0 SHL PUSH1 0x0 MSTORE PUSH1 0x22 PUSH1 0x4 MSTORE PUSH1 0x24 PUSH1 0x0 REVERT JUMPDEST SWAP2 PUSH1 0x7F AND SWAP2 PUSH2 0x203A JUMP JUMPDEST PUSH1 0x40 DUP2 ADD SWAP1 DUP2 LT PUSH1 0x1 PUSH1 0x1 PUSH1 0x40 SHL SUB DUP3 GT OR PUSH2 0x91A JUMPI PUSH1 0x40 MSTORE JUMP JUMPDEST PUSH2 0x1E0 DUP2 ADD SWAP1 DUP2 LT PUSH1 0x1 PUSH1 0x1 PUSH1 0x40 SHL SUB DUP3 GT OR PUSH2 0x91A JUMPI PUSH1 0x40 MSTORE JUMP JUMPDEST PUSH1 0xE0 DUP2 ADD SWAP1 DUP2 LT PUSH1 0x1 PUSH1 0x1 PUSH1 0x40 SHL SUB DUP3 GT OR PUSH2 0x91A JUMPI PUSH1 0x40 MSTORE JUMP JUMPDEST SWAP1 PUSH1 0x1F DUP1 NOT SWAP2 ADD AND DUP2 ADD SWAP1 DUP2 LT PUSH1 0x1 PUSH1 0x1 PUSH1 0x40 SHL SUB DUP3 GT OR PUSH2 0x91A JUMPI PUSH1 0x40 MSTORE JUMP JUMPDEST SWAP1 PUSH1 0x40 MLOAD SWAP2 DUP3 PUSH1 0x0 DUP3 SLOAD SWAP3 PUSH2 0x20EC DUP5 PUSH2 0x202B JUMP JUMPDEST DUP1 DUP5 MSTORE SWAP4 PUSH1 0x1 DUP2 AND SWAP1 DUP2 ISZERO PUSH2 0x215A JUMPI POP PUSH1 0x1 EQ PUSH2 0x2113 JUMPI JUMPDEST POP PUSH2 0x2111 SWAP3 POP SUB DUP4 PUSH2 0x20B7 JUMP JUMPDEST JUMP JUMPDEST SWAP1 POP PUSH1 0x0 SWAP3 SWAP2 SWAP3 MSTORE PUSH1 0x20 PUSH1 0x0 KECCAK256 SWAP1 PUSH1 0x0 SWAP2 JUMPDEST DUP2 DUP4 LT PUSH2 0x213E JUMPI POP POP SWAP1 PUSH1 0x20 PUSH2 0x2111 SWAP3 DUP3 ADD ADD CODESIZE PUSH2 0x2104 JUMP JUMPDEST PUSH1 0x20 SWAP2 SWAP4 POP DUP1 PUSH1 0x1 SWAP2 SLOAD DUP4 DUP6 DUP10 ADD ADD MSTORE ADD SWAP2 ADD SWAP1 SWAP2 DUP5 SWAP3 PUSH2 0x2125 JUMP JUMPDEST SWAP1 POP PUSH1 0x20 SWAP3 POP PUSH2 0x2111 SWAP5 SWAP2 POP PUSH1 0xFF NOT AND DUP3 DUP5 ADD MSTORE ISZERO ISZERO PUSH1 0x5 SHL DUP3 ADD ADD CODESIZE PUSH2 0x2104 JUMP JUMPDEST SWAP2 SWAP1 DUP3 MLOAD SWAP3 DUP4 DUP3 MSTORE PUSH1 0x0 JUMPDEST DUP5 DUP2 LT PUSH2 0x21A8 JUMPI POP POP DUP3 PUSH1 0x0 PUSH1 0x20 DUP1 SWAP5 SWAP6 DUP5 ADD ADD MSTORE PUSH1 0x1F DUP1 NOT SWAP2 ADD AND ADD ADD SWAP1 JUMP JUMPDEST DUP1 PUSH1 0x20 DUP1 SWAP3 DUP5 ADD ADD MLOAD DUP3 DUP3 DUP7 ADD ADD MSTORE ADD PUSH2 0x2187 JUMP JUMPDEST PUSH1 0x2 GT ISZERO PUSH2 0x21C7 JUMPI JUMP JUMPDEST PUSH4 0x4E487B71 PUSH1 0xE0 SHL PUSH1 0x0 MSTORE PUSH1 0x21 PUSH1 0x4 MSTORE PUSH1 0x24 PUSH1 0x0 REVERT JUMPDEST PUSH1 0x4 CALLDATALOAD SWAP1 PUSH1 0x1 PUSH1 0x1 PUSH1 0xA0 SHL SUB DUP3 AND DUP3 SUB PUSH2 0x146 JUMPI JUMP JUMPDEST PUSH1 0x20 DUP2 MSTORE DUP2 MLOAD PUSH1 0x20 DUP3 ADD MSTORE PUSH1 0x1 DUP1 PUSH1 0xA0 SHL SUB PUSH1 0x20 DUP4 ADD MLOAD AND PUSH1 0x40 DUP3 ADD MSTORE PUSH1 0xE0 PUSH1 0xC0 PUSH2 0x225F PUSH2 0x2249 PUSH2 0x2233 PUSH1 0x40 DUP8 ADD MLOAD DUP6 PUSH1 0x60 DUP9 ADD MSTORE PUSH2 0x100 DUP8 ADD SWAP1 PUSH2 0x217C JUMP JUMPDEST PUSH1 0x60 DUP8 ADD MLOAD DUP7 DUP3 SUB PUSH1 0x1F NOT ADD PUSH1 0x80 DUP9 ADD MSTORE PUSH2 0x217C JUMP JUMPDEST PUSH1 0x80 DUP7 ADD MLOAD DUP6 DUP3 SUB PUSH1 0x1F NOT ADD PUSH1 0xA0 DUP8 ADD MSTORE PUSH2 0x217C JUMP JUMPDEST SWAP4 PUSH1 0xA0 DUP2 ADD MLOAD DUP3 DUP6 ADD MSTORE ADD MLOAD SWAP2 PUSH2 0x2275 DUP4 PUSH2 0x21BD JUMP JUMPDEST ADD MSTORE SWAP1 JUMP JUMPDEST PUSH1 0x40 SWAP1 PUSH1 0x3 NOT ADD SLT PUSH2 0x146 JUMPI PUSH1 0x4 CALLDATALOAD SWAP1 PUSH1 0x24 CALLDATALOAD SWAP1 JUMP JUMPDEST DUP1 SLOAD DUP3 LT ISZERO PUSH2 0x1B29 JUMPI PUSH1 0x0 MSTORE PUSH1 0x20 PUSH1 0x0 KECCAK256 SWAP1 PUSH1 0x1 SHL ADD SWAP1 PUSH1 0x0 SWAP1 JUMP JUMPDEST ISZERO PUSH2 0x22B3 JUMPI JUMP JUMPDEST PUSH1 0x40 MLOAD PUSH3 0x461BCD PUSH1 0xE5 SHL DUP2 MSTORE PUSH1 0x20 PUSH1 0x4 DUP3 ADD MSTORE PUSH1 0xE PUSH1 0x24 DUP3 ADD MSTORE PUSH14 0x139BDD08185D5D1A1BDC9A5E9959 PUSH1 0x92 SHL PUSH1 0x44 DUP3 ADD MSTORE PUSH1 0x64 SWAP1 REVERT JUMPDEST CALLDATALOAD PUSH1 0x1 PUSH1 0x1 PUSH1 0xA0 SHL SUB DUP2 AND DUP2 SUB PUSH2 0x146 JUMPI SWAP1 JUMP JUMPDEST ISZERO PUSH2 0x2304 JUMPI JUMP JUMPDEST PUSH1 0x40 MLOAD PUSH3 0x461BCD PUSH1 0xE5 SHL DUP2 MSTORE PUSH1 0x20 PUSH1 0x4 DUP3 ADD MSTORE PUSH1 0xE PUSH1 0x24 DUP3 ADD MSTORE PUSH14 0x139BDD081C9959DA5CDD195C9959 PUSH1 0x92 SHL PUSH1 0x44 DUP3 ADD MSTORE PUSH1 0x64 SWAP1 REVERT JUMPDEST ISZERO PUSH2 0x2341 JUMPI JUMP JUMPDEST PUSH1 0x40 MLOAD PUSH3 0x461BCD PUSH1 0xE5 SHL DUP2 MSTORE PUSH1 0x20 PUSH1 0x4 DUP3 ADD MSTORE PUSH1 0xE PUSH1 0x24 DUP3 ADD MSTORE PUSH14 0x155CD95C881CDD5CDC195B991959 PUSH1 0x92 SHL PUSH1 0x44 DUP3 ADD MSTORE PUSH1 0x64 SWAP1 REVERT JUMPDEST PUSH1 0x0 NOT DUP2 EQ PUSH2 0xFE8 JUMPI PUSH1 0x1 ADD SWAP1 JUMP JUMPDEST SWAP1 CALLDATALOAD SWAP1 PUSH1 0x1E NOT DUP2 CALLDATASIZE SUB ADD DUP3 SLT ISZERO PUSH2 0x146 JUMPI ADD DUP1 CALLDATALOAD SWAP1 PUSH1 0x1 PUSH1 0x1 PUSH1 0x40 SHL SUB DUP3 GT PUSH2 0x146 JUMPI PUSH1 0x20 ADD SWAP2 DUP2 CALLDATASIZE SUB DUP4 SGT PUSH2 0x146 JUMPI JUMP JUMPDEST DUP2 DUP2 LT PUSH2 0x23C3 JUMPI POP POP JUMP JUMPDEST PUSH1 0x0 DUP2 SSTORE PUSH1 0x1 ADD PUSH2 0x23B8 JUMP JUMPDEST SWAP2 SWAP1 PUSH1 0x1F DUP2 GT PUSH2 0x23DE JUMPI POP POP POP JUMP JUMPDEST PUSH2 0x2111 SWAP3 PUSH1 0x0 MSTORE PUSH1 0x20 PUSH1 0x0 KECCAK256 SWAP1 PUSH1 0x20 PUSH1 0x1F DUP5 ADD PUSH1 0x5 SHR DUP4 ADD SWAP4 LT PUSH2 0x240A JUMPI JUMPDEST PUSH1 0x1F ADD PUSH1 0x5 SHR ADD SWAP1 PUSH2 0x23B8 JUMP JUMPDEST SWAP1 SWAP2 POP DUP2 SWAP1 PUSH2 0x23FD JUMP JUMPDEST SWAP1 CALLDATALOAD SWAP1 PUSH1 0x1E NOT DUP2 CALLDATASIZE SUB ADD DUP3 SLT ISZERO PUSH2 0x146 JUMPI ADD DUP1 CALLDATALOAD SWAP1 PUSH1 0x1 PUSH1 0x1 PUSH1 0x40 SHL SUB DUP3 GT PUSH2 0x146 JUMPI PUSH1 0x20 ADD SWAP2 DUP2 PUSH1 0x5 SHL CALLDATASIZE SUB DUP4 SGT PUSH2 0x146 JUMPI JUMP JUMPDEST SWAP2 SWAP1 PUSH2 0x245F JUMPI PUSH1 0x20 DUP2 PUSH1 0x1 SWAP3 MLOAD DUP5 SSTORE ADD MLOAD SWAP2 ADD SSTORE JUMP JUMPDEST PUSH4 0x4E487B71 PUSH1 0xE0 SHL PUSH1 0x0 MSTORE PUSH1 0x0 PUSH1 0x4 MSTORE PUSH1 0x24 PUSH1 0x0 REVERT JUMPDEST SWAP1 DUP2 SLOAD SWAP2 PUSH1 0x1 PUSH1 0x40 SHL DUP4 LT ISZERO PUSH2 0x91A JUMPI DUP3 PUSH2 0xF23 SWAP2 PUSH1 0x1 PUSH2 0x2111 SWAP6 ADD DUP2 SSTORE PUSH2 0x2290 JUMP JUMPDEST SWAP1 DUP1 PUSH1 0x20 SWAP4 SWAP3 DUP2 DUP5 MSTORE DUP5 DUP5 ADD CALLDATACOPY PUSH1 0x0 DUP3 DUP3 ADD DUP5 ADD MSTORE PUSH1 0x1F ADD PUSH1 0x1F NOT AND ADD ADD SWAP1 JUMP JUMPDEST PUSH1 0x1 PUSH1 0x1 PUSH1 0x40 SHL SUB DUP2 GT PUSH2 0x91A JUMPI PUSH1 0x5 SHL PUSH1 0x20 ADD SWAP1 JUMP JUMPDEST SWAP1 PUSH2 0x24DA DUP2 PUSH2 0x21BD JUMP JUMPDEST PUSH1 0xFF DUP1 NOT DUP4 SLOAD AND SWAP2 AND OR SWAP1 SSTORE JUMP JUMPDEST PUSH1 0x40 MLOAD SWAP1 PUSH2 0x24F5 DUP3 PUSH2 0x209C JUMP JUMPDEST PUSH1 0x0 PUSH1 0xC0 DUP4 DUP3 DUP2 MSTORE DUP3 PUSH1 0x20 DUP3 ADD MSTORE PUSH1 0x60 PUSH1 0x40 DUP3 ADD MSTORE PUSH1 0x60 DUP1 DUP3 ADD MSTORE PUSH1 0x60 PUSH1 0x80 DUP3 ADD MSTORE DUP3 PUSH1 0xA0 DUP3 ADD MSTORE ADD MSTORE JUMP JUMPDEST ISZERO PUSH2 0x2528 JUMPI JUMP JUMPDEST PUSH1 0x40 MLOAD PUSH3 0x461BCD PUSH1 0xE5 SHL DUP2 MSTORE PUSH1 0x20 PUSH1 0x4 DUP3 ADD MSTORE PUSH1 0xE PUSH1 0x24 DUP3 ADD MSTORE PUSH14 0x155CD95C881B9BDD08199BDD5B99 PUSH1 0x92 SHL PUSH1 0x44 DUP3 ADD MSTORE PUSH1 0x64 SWAP1 REVERT JUMPDEST SWAP1 PUSH1 0x40 MLOAD PUSH2 0x256B DUP2 PUSH2 0x2065 JUMP JUMPDEST PUSH1 0x20 PUSH1 0x1 DUP3 SWAP5 DUP1 SLOAD DUP5 MSTORE ADD SLOAD SWAP2 ADD MSTORE JUMP JUMPDEST SWAP3 SWAP2 SWAP3 PUSH1 0x1 PUSH1 0x1 PUSH1 0x40 SHL SUB DUP3 GT PUSH2 0x91A JUMPI PUSH1 0x40 MLOAD SWAP2 PUSH2 0x25A5 PUSH1 0x1F DUP3 ADD PUSH1 0x1F NOT AND PUSH1 0x20 ADD DUP5 PUSH2 0x20B7 JUMP JUMPDEST DUP3 SWAP5 DUP2 DUP5 MSTORE DUP2 DUP4 ADD GT PUSH2 0x146 JUMPI DUP3 DUP2 PUSH1 0x20 SWAP4 DUP5 PUSH1 0x0 SWAP7 ADD CALLDATACOPY ADD ADD MSTORE JUMP INVALID LOG2 PUSH5 0x6970667358 0x22 SLT KECCAK256 TLOAD LOG1 DUP5 0xB2 0x22 0xE5 PUSH13 0x3CBB2C2876B5A85243265BA99A RETURNDATACOPY 0xBD JUMPDEST GASLIMIT DELEGATECALL LOG4 SWAP10 EQ SELFDESTRUCT PUSH1 0xC6 0x4F PUSH5 0x736F6C6343 STOP ADDMOD SHR STOP CALLER "
        },
        "methodIdentifiers": {
          "addressToUserId(address)": "b5ffbbcc",
          "documents(uint256)": "c2ed2b05",
          "getDocument(uint256)": "3f9b250a",
          "getUserByAddress(address)": "69c212f6",
          "getUserById(uint256)": "6ed6da9e",
          "getUserPurchases(uint256)": "ca7cd4d3",
          "getUserSales(uint256)": "a102fb9b",
          "isAuthorized(address)": "fe9fbb80",
          "nextDocumentId()": "11f581fe",
          "nextUserId()": "a1e6a255",
          "owner()": "8da5cb5b",
          "purchaseDocument(uint256)": "404f80e6",
          "registerUser((address,string,string,string))": "a4e07ee4",
          "removeDocument(uint256)": "d5df7559",
          "setAuthorized(address,bool)": "711bf9b2",
          "setUserStatus(uint256,uint8)": "5884b383",
          "tst()": "91888f2e",
          "uploadDocument((string,string,string,string,string,string,string[],uint256,address))": "2ebac8c6",
          "userPurchases(uint256,uint256)": "aeaed835",
          "userSales(uint256,uint256)": "c6c2d93d",
          "users(uint256)": "365b98b2"
        }
      }
    }
  }
}