{
  "contracts/LedgerDoc.sol": {
    "LedgerDoc": {
      "abi": [
        {
          "inputs": [],
          "stateMutability": "nonpayable",
          "type": "constructor"
        },
        {
          "anonymous": false,
          "inputs": [
            {
              "indexed": true,
              "internalType": "address",
              "name": "uploader",
              "type": "address"
            },
            {
              "indexed": false,
              "internalType": "bool",
              "name": "status",
              "type": "bool"
            }
          ],
          "name": "AuthorizationUpdated",
          "type": "event"
        },
        {
          "anonymous": false,
          "inputs": [
            {
              "indexed": true,
              "internalType": "uint256",
              "name": "documentId",
              "type": "uint256"
            },
            {
              "indexed": false,
              "internalType": "string",
              "name": "category",
              "type": "string"
            }
          ],
          "name": "DocumentCategoryTagged",
          "type": "event"
        },
        {
          "anonymous": false,
          "inputs": [
            {
              "indexed": true,
              "internalType": "uint256",
              "name": "documentId",
              "type": "uint256"
            },
            {
              "indexed": true,
              "internalType": "uint256",
              "name": "buyerId",
              "type": "uint256"
            },
            {
              "indexed": false,
              "internalType": "uint256",
              "name": "timestamp",
              "type": "uint256"
            }
          ],
          "name": "DocumentPurchased",
          "type": "event"
        },
        {
          "anonymous": false,
          "inputs": [
            {
              "indexed": true,
              "internalType": "uint256",
              "name": "documentId",
              "type": "uint256"
            }
          ],
          "name": "DocumentRemoved",
          "type": "event"
        },
        {
          "anonymous": false,
          "inputs": [
            {
              "indexed": true,
              "internalType": "uint256",
              "name": "documentId",
              "type": "uint256"
            },
            {
              "indexed": true,
              "internalType": "uint256",
              "name": "uploaderId",
              "type": "uint256"
            },
            {
              "indexed": false,
              "internalType": "string",
              "name": "title",
              "type": "string"
            },
            {
              "indexed": false,
              "internalType": "string[]",
              "name": "categories",
              "type": "string[]"
            },
            {
              "indexed": true,
              "internalType": "uint256",
              "name": "price",
              "type": "uint256"
            },
            {
              "indexed": false,
              "internalType": "uint256",
              "name": "uploadTime",
              "type": "uint256"
            },
            {
              "indexed": false,
              "internalType": "string",
              "name": "metadataCid",
              "type": "string"
            },
            {
              "indexed": false,
              "internalType": "string",
              "name": "encryptedCid",
              "type": "string"
            },
            {
              "indexed": false,
              "internalType": "string",
              "name": "descriptionCid",
              "type": "string"
            },
            {
              "indexed": false,
              "internalType": "string",
              "name": "previewCid",
              "type": "string"
            },
            {
              "indexed": false,
              "internalType": "string",
              "name": "thumbnailCid",
              "type": "string"
            },
            {
              "indexed": false,
              "internalType": "string",
              "name": "uploaderName",
              "type": "string"
            }
          ],
          "name": "DocumentUploaded",
          "type": "event"
        },
        {
          "anonymous": false,
          "inputs": [
            {
              "indexed": true,
              "internalType": "uint256",
              "name": "userId",
              "type": "uint256"
            },
            {
              "indexed": true,
              "internalType": "address",
              "name": "wallet",
              "type": "address"
            },
            {
              "indexed": false,
              "internalType": "string",
              "name": "name",
              "type": "string"
            },
            {
              "indexed": false,
              "internalType": "string",
              "name": "profileCid",
              "type": "string"
            },
            {
              "indexed": false,
              "internalType": "string",
              "name": "profileImageCid",
              "type": "string"
            },
            {
              "indexed": false,
              "internalType": "uint256",
              "name": "joinedAt",
              "type": "uint256"
            }
          ],
          "name": "UserRegistered",
          "type": "event"
        },
        {
          "anonymous": false,
          "inputs": [
            {
              "indexed": true,
              "internalType": "uint256",
              "name": "userId",
              "type": "uint256"
            },
            {
              "indexed": false,
              "internalType": "enum LedgerDoc.UserStatus",
              "name": "status",
              "type": "uint8"
            }
          ],
          "name": "UserStatusUpdated",
          "type": "event"
        },
        {
          "inputs": [
            {
              "internalType": "address",
              "name": "",
              "type": "address"
            }
          ],
          "name": "addressToUserId",
          "outputs": [
            {
              "internalType": "uint256",
              "name": "",
              "type": "uint256"
            }
          ],
          "stateMutability": "view",
          "type": "function"
        },
        {
          "inputs": [
            {
              "internalType": "uint256",
              "name": "",
              "type": "uint256"
            }
          ],
          "name": "decryptionKeyCIDs",
          "outputs": [
            {
              "internalType": "string",
              "name": "",
              "type": "string"
            }
          ],
          "stateMutability": "view",
          "type": "function"
        },
        {
          "inputs": [
            {
              "internalType": "uint256",
              "name": "",
              "type": "uint256"
            }
          ],
          "name": "documents",
          "outputs": [
            {
              "internalType": "uint256",
              "name": "id",
              "type": "uint256"
            },
            {
              "internalType": "string",
              "name": "metadataCid",
              "type": "string"
            },
            {
              "internalType": "string",
              "name": "encryptedCid",
              "type": "string"
            },
            {
              "internalType": "string",
              "name": "descriptionCid",
              "type": "string"
            },
            {
              "internalType": "string",
              "name": "previewCid",
              "type": "string"
            },
            {
              "internalType": "string",
              "name": "thumbnailCid",
              "type": "string"
            },
            {
              "internalType": "string",
              "name": "title",
              "type": "string"
            },
            {
              "internalType": "uint256",
              "name": "price",
              "type": "uint256"
            },
            {
              "internalType": "uint256",
              "name": "downloads",
              "type": "uint256"
            },
            {
              "internalType": "uint256",
              "name": "totalRating",
              "type": "uint256"
            },
            {
              "internalType": "uint256",
              "name": "ratingCount",
              "type": "uint256"
            },
            {
              "internalType": "uint256",
              "name": "uploaderId",
              "type": "uint256"
            },
            {
              "internalType": "uint256",
              "name": "uploadTime",
              "type": "uint256"
            },
            {
              "internalType": "enum LedgerDoc.DocumentStatus",
              "name": "status",
              "type": "uint8"
            }
          ],
          "stateMutability": "view",
          "type": "function"
        },
        {
          "inputs": [
            {
              "internalType": "uint256",
              "name": "docId",
              "type": "uint256"
            }
          ],
          "name": "getDecryptionKeyCID",
          "outputs": [
            {
              "internalType": "string",
              "name": "",
              "type": "string"
            }
          ],
          "stateMutability": "view",
          "type": "function"
        },
        {
          "inputs": [
            {
              "internalType": "uint256",
              "name": "docId",
              "type": "uint256"
            }
          ],
          "name": "getDocument",
          "outputs": [
            {
              "components": [
                {
                  "internalType": "uint256",
                  "name": "id",
                  "type": "uint256"
                },
                {
                  "internalType": "string",
                  "name": "metadataCid",
                  "type": "string"
                },
                {
                  "internalType": "string",
                  "name": "encryptedCid",
                  "type": "string"
                },
                {
                  "internalType": "string",
                  "name": "descriptionCid",
                  "type": "string"
                },
                {
                  "internalType": "string",
                  "name": "previewCid",
                  "type": "string"
                },
                {
                  "internalType": "string",
                  "name": "thumbnailCid",
                  "type": "string"
                },
                {
                  "internalType": "string",
                  "name": "title",
                  "type": "string"
                },
                {
                  "internalType": "string[]",
                  "name": "categories",
                  "type": "string[]"
                },
                {
                  "internalType": "uint256",
                  "name": "price",
                  "type": "uint256"
                },
                {
                  "internalType": "uint256",
                  "name": "downloads",
                  "type": "uint256"
                },
                {
                  "internalType": "uint256",
                  "name": "totalRating",
                  "type": "uint256"
                },
                {
                  "internalType": "uint256",
                  "name": "ratingCount",
                  "type": "uint256"
                },
                {
                  "internalType": "uint256",
                  "name": "uploaderId",
                  "type": "uint256"
                },
                {
                  "internalType": "uint256",
                  "name": "uploadTime",
                  "type": "uint256"
                },
                {
                  "internalType": "enum LedgerDoc.DocumentStatus",
                  "name": "status",
                  "type": "uint8"
                }
              ],
              "internalType": "struct LedgerDoc.Document",
              "name": "",
              "type": "tuple"
            }
          ],
          "stateMutability": "view",
          "type": "function"
        },
        {
          "inputs": [
            {
              "internalType": "address",
              "name": "wallet",
              "type": "address"
            }
          ],
          "name": "getUserByAddress",
          "outputs": [
            {
              "components": [
                {
                  "internalType": "uint256",
                  "name": "id",
                  "type": "uint256"
                },
                {
                  "internalType": "address",
                  "name": "wallet",
                  "type": "address"
                },
                {
                  "internalType": "string",
                  "name": "name",
                  "type": "string"
                },
                {
                  "internalType": "string",
                  "name": "profileCid",
                  "type": "string"
                },
                {
                  "internalType": "string",
                  "name": "profileImageCid",
                  "type": "string"
                },
                {
                  "internalType": "uint256",
                  "name": "joinedAt",
                  "type": "uint256"
                },
                {
                  "internalType": "enum LedgerDoc.UserStatus",
                  "name": "status",
                  "type": "uint8"
                }
              ],
              "internalType": "struct LedgerDoc.User",
              "name": "",
              "type": "tuple"
            }
          ],
          "stateMutability": "view",
          "type": "function"
        },
        {
          "inputs": [
            {
              "internalType": "uint256",
              "name": "userId",
              "type": "uint256"
            }
          ],
          "name": "getUserById",
          "outputs": [
            {
              "components": [
                {
                  "internalType": "uint256",
                  "name": "id",
                  "type": "uint256"
                },
                {
                  "internalType": "address",
                  "name": "wallet",
                  "type": "address"
                },
                {
                  "internalType": "string",
                  "name": "name",
                  "type": "string"
                },
                {
                  "internalType": "string",
                  "name": "profileCid",
                  "type": "string"
                },
                {
                  "internalType": "string",
                  "name": "profileImageCid",
                  "type": "string"
                },
                {
                  "internalType": "uint256",
                  "name": "joinedAt",
                  "type": "uint256"
                },
                {
                  "internalType": "enum LedgerDoc.UserStatus",
                  "name": "status",
                  "type": "uint8"
                }
              ],
              "internalType": "struct LedgerDoc.User",
              "name": "",
              "type": "tuple"
            }
          ],
          "stateMutability": "view",
          "type": "function"
        },
        {
          "inputs": [
            {
              "internalType": "uint256",
              "name": "userId",
              "type": "uint256"
            }
          ],
          "name": "getUserPurchases",
          "outputs": [
            {
              "components": [
                {
                  "internalType": "uint256",
                  "name": "documentId",
                  "type": "uint256"
                },
                {
                  "internalType": "uint256",
                  "name": "timestamp",
                  "type": "uint256"
                }
              ],
              "internalType": "struct LedgerDoc.Purchase[]",
              "name": "",
              "type": "tuple[]"
            }
          ],
          "stateMutability": "view",
          "type": "function"
        },
        {
          "inputs": [
            {
              "internalType": "uint256",
              "name": "userId",
              "type": "uint256"
            }
          ],
          "name": "getUserSales",
          "outputs": [
            {
              "components": [
                {
                  "internalType": "uint256",
                  "name": "documentId",
                  "type": "uint256"
                },
                {
                  "internalType": "uint256",
                  "name": "timestamp",
                  "type": "uint256"
                }
              ],
              "internalType": "struct LedgerDoc.Sale[]",
              "name": "",
              "type": "tuple[]"
            }
          ],
          "stateMutability": "view",
          "type": "function"
        },
        {
          "inputs": [
            {
              "internalType": "address",
              "name": "",
              "type": "address"
            }
          ],
          "name": "isAuthorized",
          "outputs": [
            {
              "internalType": "bool",
              "name": "",
              "type": "bool"
            }
          ],
          "stateMutability": "view",
          "type": "function"
        },
        {
          "inputs": [],
          "name": "nextDocumentId",
          "outputs": [
            {
              "internalType": "uint256",
              "name": "",
              "type": "uint256"
            }
          ],
          "stateMutability": "view",
          "type": "function"
        },
        {
          "inputs": [],
          "name": "nextUserId",
          "outputs": [
            {
              "internalType": "uint256",
              "name": "",
              "type": "uint256"
            }
          ],
          "stateMutability": "view",
          "type": "function"
        },
        {
          "inputs": [],
          "name": "owner",
          "outputs": [
            {
              "internalType": "address",
              "name": "",
              "type": "address"
            }
          ],
          "stateMutability": "view",
          "type": "function"
        },
        {
          "inputs": [
            {
              "internalType": "uint256",
              "name": "docId",
              "type": "uint256"
            }
          ],
          "name": "purchaseDocument",
          "outputs": [],
          "stateMutability": "payable",
          "type": "function"
        },
        {
          "inputs": [
            {
              "components": [
                {
                  "internalType": "address",
                  "name": "wallet",
                  "type": "address"
                },
                {
                  "internalType": "string",
                  "name": "name",
                  "type": "string"
                },
                {
                  "internalType": "string",
                  "name": "profileCid",
                  "type": "string"
                },
                {
                  "internalType": "string",
                  "name": "profileImageCid",
                  "type": "string"
                }
              ],
              "internalType": "struct LedgerDoc.UserInput",
              "name": "input",
              "type": "tuple"
            }
          ],
          "name": "registerUser",
          "outputs": [],
          "stateMutability": "nonpayable",
          "type": "function"
        },
        {
          "inputs": [
            {
              "internalType": "uint256",
              "name": "docId",
              "type": "uint256"
            }
          ],
          "name": "removeDocument",
          "outputs": [],
          "stateMutability": "nonpayable",
          "type": "function"
        },
        {
          "inputs": [
            {
              "internalType": "address",
              "name": "uploader",
              "type": "address"
            },
            {
              "internalType": "bool",
              "name": "status",
              "type": "bool"
            }
          ],
          "name": "setAuthorized",
          "outputs": [],
          "stateMutability": "nonpayable",
          "type": "function"
        },
        {
          "inputs": [
            {
              "internalType": "uint256",
              "name": "docId",
              "type": "uint256"
            },
            {
              "internalType": "string",
              "name": "cid",
              "type": "string"
            }
          ],
          "name": "setDecryptionKeyCID",
          "outputs": [],
          "stateMutability": "nonpayable",
          "type": "function"
        },
        {
          "inputs": [
            {
              "internalType": "uint256",
              "name": "userId",
              "type": "uint256"
            },
            {
              "internalType": "enum LedgerDoc.UserStatus",
              "name": "status",
              "type": "uint8"
            }
          ],
          "name": "setUserStatus",
          "outputs": [],
          "stateMutability": "nonpayable",
          "type": "function"
        },
        {
          "inputs": [],
          "name": "tst",
          "outputs": [
            {
              "internalType": "uint256",
              "name": "",
              "type": "uint256"
            }
          ],
          "stateMutability": "pure",
          "type": "function"
        },
        {
          "inputs": [
            {
              "internalType": "address",
              "name": "userAddr",
              "type": "address"
            },
            {
              "internalType": "string",
              "name": "profileCid",
              "type": "string"
            }
          ],
          "name": "updateProfileCid",
          "outputs": [],
          "stateMutability": "nonpayable",
          "type": "function"
        },
        {
          "inputs": [
            {
              "internalType": "address",
              "name": "userAddr",
              "type": "address"
            },
            {
              "internalType": "string",
              "name": "profileImageCid",
              "type": "string"
            }
          ],
          "name": "updateProfileImageCid",
          "outputs": [],
          "stateMutability": "nonpayable",
          "type": "function"
        },
        {
          "inputs": [
            {
              "internalType": "address",
              "name": "userAddr",
              "type": "address"
            },
            {
              "internalType": "string",
              "name": "newName",
              "type": "string"
            }
          ],
          "name": "updateUserName",
          "outputs": [],
          "stateMutability": "nonpayable",
          "type": "function"
        },
        {
          "inputs": [
            {
              "components": [
                {
                  "internalType": "string",
                  "name": "metadataCid",
                  "type": "string"
                },
                {
                  "internalType": "string",
                  "name": "encryptedCid",
                  "type": "string"
                },
                {
                  "internalType": "string",
                  "name": "descriptionCid",
                  "type": "string"
                },
                {
                  "internalType": "string",
                  "name": "previewCid",
                  "type": "string"
                },
                {
                  "internalType": "string",
                  "name": "thumbnailCid",
                  "type": "string"
                },
                {
                  "internalType": "string",
                  "name": "title",
                  "type": "string"
                },
                {
                  "internalType": "string[]",
                  "name": "categories",
                  "type": "string[]"
                },
                {
                  "internalType": "uint256",
                  "name": "price",
                  "type": "uint256"
                },
                {
                  "internalType": "address",
                  "name": "uploaderAddress",
                  "type": "address"
                }
              ],
              "internalType": "struct LedgerDoc.DocumentInput",
              "name": "input",
              "type": "tuple"
            }
          ],
          "name": "uploadDocument",
          "outputs": [
            {
              "internalType": "uint256",
              "name": "",
              "type": "uint256"
            }
          ],
          "stateMutability": "nonpayable",
          "type": "function"
        },
        {
          "inputs": [
            {
              "internalType": "uint256",
              "name": "",
              "type": "uint256"
            },
            {
              "internalType": "uint256",
              "name": "",
              "type": "uint256"
            }
          ],
          "name": "userPurchases",
          "outputs": [
            {
              "internalType": "uint256",
              "name": "documentId",
              "type": "uint256"
            },
            {
              "internalType": "uint256",
              "name": "timestamp",
              "type": "uint256"
            }
          ],
          "stateMutability": "view",
          "type": "function"
        },
        {
          "inputs": [
            {
              "internalType": "uint256",
              "name": "",
              "type": "uint256"
            },
            {
              "internalType": "uint256",
              "name": "",
              "type": "uint256"
            }
          ],
          "name": "userSales",
          "outputs": [
            {
              "internalType": "uint256",
              "name": "documentId",
              "type": "uint256"
            },
            {
              "internalType": "uint256",
              "name": "timestamp",
              "type": "uint256"
            }
          ],
          "stateMutability": "view",
          "type": "function"
        },
        {
          "inputs": [
            {
              "internalType": "uint256",
              "name": "",
              "type": "uint256"
            }
          ],
          "name": "users",
          "outputs": [
            {
              "internalType": "uint256",
              "name": "id",
              "type": "uint256"
            },
            {
              "internalType": "address",
              "name": "wallet",
              "type": "address"
            },
            {
              "internalType": "string",
              "name": "name",
              "type": "string"
            },
            {
              "internalType": "string",
              "name": "profileCid",
              "type": "string"
            },
            {
              "internalType": "string",
              "name": "profileImageCid",
              "type": "string"
            },
            {
              "internalType": "uint256",
              "name": "joinedAt",
              "type": "uint256"
            },
            {
              "internalType": "enum LedgerDoc.UserStatus",
              "name": "status",
              "type": "uint8"
            }
          ],
          "stateMutability": "view",
          "type": "function"
        }
      ],
      "evm": {
        "bytecode": {
          "linkReferences": {},
          "object": "608080604052346048576001600055600180553360018060a01b031960025416176002553360005260066020526040600020600160ff19825416179055612db4908161004e8239f35b600080fdfe6101a080604052600436101561001457600080fd5b60003560e01c90816311f581fe1461276f575080631e6b137614610dbc5780632744cded1461261a578063288daa9b146124c55780632ebac8c614611971578063365b98b21461189a5780633f9b250a14611512578063404f80e6146112985780635884b383146111ab578063608c978414610ff457806369c212f614610faf5780636ed6da9e14610ecb578063711bf9b214610e11578063784fd21514610dbc5780638da5cb5b14610d9357806391888f2e14610d76578063a102fb9b14610ca5578063a1e6a25514610c87578063a4e07ee41461075e578063aeaed8351461072d578063b5ffbbcc146106f3578063c2ed2b051461054a578063c6c2d93d14610505578063ca7cd4d314610434578063d5df75591461032d578063dcc9cad31461018d5763fe9fbb801461014957600080fd5b34610188576020366003190112610188576001600160a01b0361016a6127cb565b166000526006602052602060ff604060002054166040519015158152f35b600080fd5b346101885761019b366128b8565b6001600160a01b039091166000818152600360205260409020546101c0811515612a8d565b60005260046020526101e660ff600660406000200154166101e0816129b4565b15612acf565b80600052600360205260406000205490610201821515612b0c565b33146103285733600052600660205260ff604060002054168015610314575b61022990612b49565b6000526004602052600260406000200181516001600160401b0381116102fe5761025d8161025784546128f7565b84612b9d565b602092601f821160011461029e5761028f92938291600092610293575b50508160011b916000199060031b1c19161790565b9055005b01519050848061027a565b601f1982169383600052806000209160005b8681106102e657508360019596106102cd575b505050811b019055005b015160001960f88460031b161c191690558380806102c3565b919260206001819286850151815501940192016102b0565b634e487b7160e01b600052604160045260246000fd5b506002546001600160a01b03163314610220565b610229565b3461018857602036600319011261018857600435806000526005602052604060002080541561040357600c810154600052600460205260018060a01b0360016040600020015416331480156103eb575b156103b757600e01805460ff191660011790557f480c8c4f142c9ceb3d0b0d7675300f10573a6cd66fca3390578e785181546459600080a2005b60405162461bcd60e51b815260206004820152600c60248201526b155b985d5d1a1bdc9a5e995960a21b6044820152606490fd5b5033600052600660205260ff6040600020541661037d565b60405162461bcd60e51b8152602060048201526009602482015268139bdd08199bdd5b9960ba1b6044820152606490fd5b34610188576020366003190112610188576004356000526007602052604060002080549061046182612cf8565b9161046f6040519384612833565b80835260208301809260005260206000206000915b8383106104e75784866040519182916020830190602084525180915260408301919060005b8181106104b7575050500390f35b9193509160206104da600192865190602060409280518352015160208201520190565b94019101918493926104a9565b600260206001926104f785612d60565b815201920192019190610484565b346101885761051336612a5b565b906000526008602052604060002080548210156101885760409161053691612a71565b506001815491015482519182526020820152f35b3461018857602036600319011261018857600435600052600560205260406000208054604051918280600183019061058191612931565b0361058c9084612833565b6040518061059d8160028501612931565b036105a89082612833565b60405191826105ba8160038401612931565b036105c59084612833565b60405192836105d78160048501612931565b036105e29085612833565b60405193846105f48160058601612931565b036105ff9086612833565b60405194856106118160068701612931565b0361061c9087612833565b600884015495600985015490600a86015492600b87015494600c88015496600d89015498600e015460ff16996040519d8e9d8e528d602081016101c090526101c0016106679161278a565b8d810360408f01526106789161278a565b8c810360608e01526106899161278a565b8b810360808d015261069a9161278a565b8a810360a08c01526106ab9161278a565b89810360c08b01526106bc9161278a565b9660e08901526101008801526101208701526101408601526101608501526101808401526106e9816129b4565b6101a08301520390f35b34610188576020366003190112610188576001600160a01b036107146127cb565b1660005260036020526020604060002054604051908152f35b346101885761073b36612a5b565b906000526007602052604060002080548210156101885760409161053691612a71565b34610188576020366003190112610188576004356001600160401b038111610188578060040190608060031982360301126101885733600052600660205260ff604060002054168015610c73575b6107b590612b49565b6001600160a01b036107c683612be4565b166000526003602052604060002054610c40576064600054916107e883612c35565b6000556107f484612be4565b938360248301956108058784612c44565b9590610878604487019761086961081c8a89612c44565b959099019861085a61082e8b8b612c44565b9690946040519a61083e8c612818565b8b526001600160a01b0390991660208b01908152983691612854565b95604089019687523691612854565b92606087019384523691612854565b906080850191825260a085019242845260c0860194600086528a6000526004602052604060002096518755600187019060018060a01b039051166bffffffffffffffffffffffff60a01b8254161790556002860190518051906001600160401b0382116102fe576108f3826108ed85546128f7565b85612b9d565b602090601f8311600114610bd957610923929160009183610bce5750508160011b916000199060031b1c19161790565b90555b51805160038601916001600160401b0382116102fe5761094a826108ed85546128f7565b602090601f8311600114610b675761097a929160009183610b5c5750508160011b916000199060031b1c19161790565b90555b51805160048501916001600160401b0382116102fe576109a1826108ed85546128f7565b602090601f8311600114610ac25794610a629794610a1f94610a0585610aa09a966006967ff608efd81edddac018f9ad0b03084ddbf4c09d8f636df2e1d43d9c7f3ac68b449f9e9b600092610ab75750508160011b916000199060031b1c19161790565b90555b5160058401555191610a19836129b4565b01612d0f565b6001600160a01b03610a3082612be4565b16600052600360205286604060002055610a92610a6a610a59610a5284612be4565b9a84612c44565b96909784612c44565b949093612c44565b929093610a8460405198899860808a5260808a0191612cd7565b918783036020890152612cd7565b918483036040860152612cd7565b4260608301526001600160a01b03909516940390a3005b01519050388061027a565b90601f1983169184600052816000209260005b818110610b445750946001856006957ff608efd81edddac018f9ad0b03084ddbf4c09d8f636df2e1d43d9c7f3ac68b449e9d9a95610a629d9a95610aa09d99610a1f9b10610b2b575b505050811b019055610a08565b015160001960f88460031b161c19169055388080610b1e565b92936020600181928786015181550195019301610ad5565b015190508d8061027a565b90601f1983169184600052816000209260005b818110610bb65750908460019594939210610b9d575b505050811b01905561097d565b015160001960f88460031b161c191690558c8080610b90565b92936020600181928786015181550195019301610b7a565b015190508e8061027a565b90601f1983169184600052816000209260005b818110610c285750908460019594939210610c0f575b505050811b019055610926565b015160001960f88460031b161c191690558d8080610c02565b92936020600181928786015181550195019301610bec565b60405162461bcd60e51b815260206004820152600b60248201526a557365722065786973747360a81b6044820152606490fd5b506002546001600160a01b031633146107ac565b34610188576000366003190112610188576020600054604051908152f35b346101885760203660031901126101885760043560005260086020526040600020805490610cd282612cf8565b91610ce06040519384612833565b80835260208301809260005260206000206000915b838310610d585784866040519182916020830190602084525180915260408301919060005b818110610d28575050500390f35b919350916020610d4b600192865190602060409280518352015160208201520190565b9401910191849392610d1a565b60026020600192610d6885612d60565b815201920192019190610cf5565b346101885760003660031901126101885760206040516108ae8152f35b34610188576000366003190112610188576002546040516001600160a01b039091168152602090f35b34610188576020366003190112610188576004356000526009602052610e0d610df2610df9604060002060405192838092612931565b0382612833565b60405191829160208352602083019061278a565b0390f35b3461018857604036600319011261018857610e2a6127cb565b60243590811515809203610188576002546001600160a01b03163303610e9a5760207f2c59b8f31260880424e870332281eba93ddfef67e37d699cebe5a7ba89f7a8a69160018060a01b0316928360005260068252604060002060ff1981541660ff8316179055604051908152a2005b60405162461bcd60e51b81526020600482015260096024820152682737ba1037bbb732b960b91b6044820152606490fd5b3461018857602036600319011261018857600435610ee7612d27565b5080151580610fa4575b610efa90612b0c565b6000526004602052610e0d604060002060ff600660405192610f1b84612818565b8054845260018101546001600160a01b03166020850152604051610f4681610df28160028601612931565b6040850152604051610f5f81610df28160038601612931565b6060850152604051610f7881610df28160048601612931565b6080850152600581015460a0850152015416610f93816129b4565b60c0820152604051918291826129d4565b506000548110610ef1565b3461018857602036600319011261018857610fc86127cb565b610fd0612d27565b506001600160a01b0316600090815260036020526040902054610efa811515612b0c565b34610188576040366003190112610188576004356024356001600160401b0381116101885761102790369060040161289a565b9033600052600660205260ff604060002054168015611197575b61104a90612b49565b8060005260056020526110646002604060002001546128f7565b1561115d578060005260096020526110806040600020546128f7565b611126576000526009602052604060002081516001600160401b0381116102fe576110af8161025784546128f7565b602092601f82116001146110e05761028f929382916000926102935750508160011b916000199060031b1c19161790565b601f1982169383600052806000209160005b86811061110e57508360019596106102cd57505050811b019055005b919260206001819286850151815501940192016110f2565b60405162461bcd60e51b815260206004820152600f60248201526e10d25108185b1c9958591e481cd95d608a1b6044820152606490fd5b60405162461bcd60e51b8152602060048201526012602482015271111bd8dd5b595b9d081b9bdd08199bdd5b9960721b6044820152606490fd5b506002546001600160a01b03163314611041565b346101885760403660031901126101885760043560243560028110156101885733600052600660205260ff604060002054168015611284575b6111ed90612b49565b816000526004602052604060002054156112505760207f3637553f014ead9f514ee7c99db3ecbf14c351d6d5822cfe5625b965b0fadf3e91836000526004825261123e816006604060002001612d0f565b6040519061124b816129b4565b8152a2005b60405162461bcd60e51b815260206004820152600c60248201526b24b73b30b634b2103ab9b2b960a11b6044820152606490fd5b506002546001600160a01b031633146111e4565b6020366003190112610188576004353360005260036020526040600020546112c1811515612bf8565b60005260046020526112e160ff600660406000200154166101e0816129b4565b80600052600560205260406000209060ff600e83015416611301816129b4565b6114d9576008820154341061149d5733600052600360205260406000205491600c81015483600052600760205260406000206000908054915b82811061144a57505050836000526007602052604060002060405161135e816127e1565b848152426020820152815491600160401b8310156102fe578261138991600161138f95018155612a71565b90612cab565b600a3402348104600a143415171561141f57606490048034039034821161141f576000928352600460205260408320600101548392839283926001600160a01b03169083903414611441575bf115611435576009018054906001820180921161141f57557f66b024b18cf8ff1018ad9d6c8cd7d09697108266d2ffe7565a8e64421e954b1f6020604051428152a3005b634e487b7160e01b600052601160045260246000fd5b6040513d6000823e3d90fd5b506108fc6113db565b856114558284612a71565b5054146114645760010161133a565b60405162461bcd60e51b8152602060048201526011602482015270105b1c9958591e481c1d5c98da185cd959607a1b6044820152606490fd5b60405162461bcd60e51b8152602060048201526014602482015273125b9cdd59999a58da595b9d081c185e5b595b9d60621b6044820152606490fd5b60405162461bcd60e51b8152602060048201526011602482015270446f63756d656e7420696e61637469766560781b6044820152606490fd5b346101885760203660031901126101885760006101c0604051611534816127fc565b828152606060208201526060604082015260608082015260606080820152606060a0820152606060c0820152606060e08201528261010082015282610120820152826101408201528261016082015282610180820152826101a0820152015260043560005260056020526040600020604051906115b0826127fc565b80548252604051916115d0836115c98160018601612931565b0384612833565b602081019283526040516115eb81610df28160028701612931565b604082019081526040519261160e846116078160038501612931565b0385612833565b60608301938452604051946116318661162a8160048601612931565b0387612833565b608084019586526040519261164d846116078160058701612931565b60a0850193845260405195611670876116698160068801612931565b0388612833565b60c08601968752600784019788549761168889612cf8565b986116966040519a8b612833565b808a5260208a019a60005260206000209a6000905b828210611872575050508798995060e088979801998a5260088601549761010088019889526009870154926101208901938452600a880154946101408a01958652600b890154966101608b01978852600c8a0154986101808c01998a52600d8b01549a6101a08d019b8c52600e015460ff169b6101c0019b61172c816129b4565b8c52604051809e60208252519060200152518d604081016101e09052610200016117559161278a565b90518d8203601f190160608f015261176d919061278a565b90518c8203601f190160808e0152611785919061278a565b90518b8203601f190160a08d015261179d919061278a565b90518a8203601f190160c08c01526117b5919061278a565b9051898203601f190160e08b01526117cd919061278a565b985196601f19898b03016101008a01528751808b5260208b01908060051b8c0160200199602001916000905b828210611845575050505088995051610120890152516101408801525161016087015251610180860152516101a0850152516101c08401525161183b816129b4565b6101e08301520390f35b9091929a6020808f6001938f61186492601f199083030187525161278a565b9d01920192019092916117f9565b6001602081928f61188c610df29160405192838092612931565b8152019d019101909b6116ab565b346101885760203660031901126101885760043560005260046020526040600020805460018060a01b03600183015416916040516118df81610df28160028601612931565b6119596040516118f681610df28160038801612931565b61194b6040519161190e836115c98160048a01612931565b61193d60ff600660058901549801541695604051998a998a5260208a015260e060408a015260e089019061278a565b90878203606089015261278a565b90858203608087015261278a565b9160a0840152611968816129b4565b60c08301520390f35b346101885760203660031901126101885760043560c0526001600160401b0360c051116101885761012060031960c051360301126101885733600052600660205260ff6040600020541680156124b1575b6119cb90612b49565b60c051610104016001600160a01b036119e382612be4565b1660005260036020526040600020546119fd811515612bf8565b6000526004602052611a1d60ff600660406000200154166101e0816129b4565b6001600160a01b0390611a2f90612be4565b1660005260036020526040600020546101605260015461014052611a5561014051612c35565b60015561014051600081815260056020526040902090815560c051611a7d9060040180612c44565b600183929301906001600160401b0381116102fe57611aa08161025784546128f7565b6000601f821160011461244e578190611ad19394956000926124435750508160011b916000199060031b1c19161790565b90555b602460c0510190611aea8260c051600401612c44565b60028394929401906001600160401b0381116102fe57611b0e8161025784546128f7565b6000601f82116001146123df578190611b40939495966000926123d45750508160011b916000199060031b1c19161790565b90555b604460c0510190611b598260c051600401612c44565b60038501916001600160401b0382116102fe57611b7a826108ed85546128f7565b600090601f831160011461237057611baa9291600091836123655750508160011b916000199060031b1c19161790565b90555b606460c05101611bc28160c051600401612c44565b60048601916001600160401b0382116102fe57611be3826108ed85546128f7565b600090601f831160011461230157611c139291600091836122f65750508160011b916000199060031b1c19161790565b90555b608460c0510192611c2c8460c051600401612c44565b60058701916001600160401b0382116102fe57611c4d826108ed85546128f7565b600090601f831160011461229257611c7d9291600091836122875750508160011b916000199060031b1c19161790565b90555b60a460c0510190611c968260c051600401612c44565b60068801916001600160401b0382116102fe57611cb7826108ed85546128f7565b600090601f831160011461222357611ce79291600091836122185750508160011b916000199060031b1c19161790565b90555b611cfe60c460c0510160c051600401612c76565b6007880191600160401b82116102fe57825482845580831061219a575b506000928352602083209290805b8383106120b157505050505060e460c05101356008870155600060098701556000600a8701556000600b87015561016051600c870155600e600d8701964288550160ff19815416905561016051600052600860205260406000209160405194611d91866127e1565b610140518652426020870152835490600160401b8210156102fe57611e7d611dde611e2b94611dd3611e479a61138987611e399b6001611e1d9a018155612a71565b60c051600401612c44565b9190611df460c460c0510160c051600401612c76565b610180529b5492611e0f60c05160040160c051600401612c44565b96909560c051600401612c44565b97909860c051600401612c44565b99909a60c051600401612c44565b9b909c60c051600401612c44565b60805260e052610160516000526004602052600260406000200160a0526040516101205261012080515261012080510191612cd7565b6101205180820360209182015261018080518352818301610100525160051b8201019a906000825b61018051821061204e575050505092611ee7611f3c9a611efb94611f239b9a999794611f0f999760406101205101526101205183036060610120510152612cd7565b916101205183036080610120510152612cd7565b9161012051830360a0610120510152612cd7565b9161012051830360c0610120510152612cd7565b61012051810360e061012051015260805160e051612cd7565b61012051810361010061012051015260e460c05101359061016051907fa221893f293d11e28c1781225f7ec9a69bb71c23c81d6021f2a30e18d791f0226101405191611f8e610120519160a051612931565b0361012051a460005b611fab60c460c0510160c051600401612c76565b905081101561204157611fc860c460c0510160c051600401612c76565b829192101561202b576120227f7437eef4e1784cefa44883b72abded61cbc5b4712f361356d107c47f5eb4eb926120076001948460051b810190612c44565b92906040519182916020835261014051956020840191612cd7565b0390a201611f97565b634e487b7160e01b600052603260045260246000fd5b6020604051610140518152f35b9091929c601f198482030161010051528d35601e19833603018112156101885782016020813591016001600160401b0382116101885781360381136101885760019260209261209c92612cd7565b610100805160200190529e0193920190611ea5565b6120bb8183612c44565b906001600160401b0382116102fe576120de826120d889546128f7565b89612b9d565b600090601f83116001146121305792612116836001959460209487966000926121255750508160011b916000199060031b1c19161790565b88555b01950192019193611d29565b01359050388061027a565b8782526020822091601f198416815b8181106121825750936020936001969387969383889510612168575b505050811b018855612119565b0135600019600384901b60f8161c1916905538808061215b565b9193602060018192878701358155019501920161213f565b8360005282602060002091820191015b8181106121b75750611d1b565b806121c4600192546128f7565b806121d1575b50016121aa565b601f811183146121e75750600081555b8c6121ca565b612205908260005283601f6020600020920160051c82019101612b86565b80600052600060208120818355556121e1565b013590508a8061027a565b8382526020822091601f198416815b81811061226f5750908460019594939210612255575b505050811b019055611cea565b0135600019600384901b60f8161c19169055898080612248565b91936020600181928787013581550195019201612232565b01359050898061027a565b8382526020822091601f198416815b8181106122de57509084600195949392106122c4575b505050811b019055611c80565b0135600019600384901b60f8161c191690558880806122b7565b919360206001819287870135815501950192016122a1565b01359050888061027a565b8382526020822091601f198416815b81811061234d5750908460019594939210612333575b505050811b019055611c16565b0135600019600384901b60f8161c19169055878080612326565b91936020600181928787013581550195019201612310565b01359050878061027a565b8382526020822091601f198416815b8181106123bc57509084600195949392106123a2575b505050811b019055611bad565b0135600019600384901b60f8161c19169055868080612395565b9193602060018192878701358155019501920161237f565b01359050868061027a565b601f198216958382526020822091805b88811061242b57508360019596979810612411575b505050811b019055611b43565b0135600019600384901b60f8161c19169055858080612404565b909260206001819286860135815501940191016123ef565b01359050858061027a565b601f198216948382526020822091805b87811061249957508360019596971061247f575b505050811b019055611ad4565b0135600019600384901b60f8161c19169055848080612472565b9092602060018192868601358155019401910161245e565b506002546001600160a01b031633146119c2565b34610188576124d3366128b8565b6001600160a01b039091166000818152600360205260409020546124f8811515612a8d565b600052600460205261251860ff600660406000200154166101e0816129b4565b80600052600360205260406000205490612533821515612b0c565b33036125df575b6000526004602052600460406000200181516001600160401b0381116102fe576125688161025784546128f7565b602092601f82116001146125995761028f929382916000926102935750508160011b916000199060031b1c19161790565b601f1982169383600052806000209160005b8681106125c757508360019596106102cd57505050811b019055005b919260206001819286850151815501940192016125ab565b33600052600660205260ff604060002054168015612606575b61260190612b49565b61253a565b506002546001600160a01b031633146125f8565b3461018857612628366128b8565b6001600160a01b0390911660008181526003602052604090205461264d811515612a8d565b600052600460205261266d60ff600660406000200154166101e0816129b4565b80600052600360205260406000205490612688821515612b0c565b3303612734575b6000526004602052600360406000200181516001600160401b0381116102fe576126bd8161025784546128f7565b602092601f82116001146126ee5761028f929382916000926102935750508160011b916000199060031b1c19161790565b601f1982169383600052806000209160005b86811061271c57508360019596106102cd57505050811b019055005b91926020600181928685015181550194019201612700565b33600052600660205260ff60406000205416801561275b575b61275690612b49565b61268f565b506002546001600160a01b0316331461274d565b34610188576000366003190112610188576020906001548152f35b919082519283825260005b8481106127b6575050826000602080949584010152601f8019910116010190565b80602080928401015182828601015201612795565b600435906001600160a01b038216820361018857565b604081019081106001600160401b038211176102fe57604052565b6101e081019081106001600160401b038211176102fe57604052565b60e081019081106001600160401b038211176102fe57604052565b90601f801991011681019081106001600160401b038211176102fe57604052565b9291926001600160401b0382116102fe576040519161287d601f8201601f191660200184612833565b829481845281830111610188578281602093846000960137010152565b9080601f83011215610188578160206128b593359101612854565b90565b906040600319830112610188576004356001600160a01b03811681036101885791602435906001600160401b038211610188576128b59160040161289a565b90600182811c92168015612927575b602083101461291157565b634e487b7160e01b600052602260045260246000fd5b91607f1691612906565b60009291815491612941836128f7565b8083529260018116908115612997575060011461295d57505050565b60009081526020812093945091925b83831061297d575060209250010190565b60018160209294939454838587010152019101919061296c565b915050602093945060ff929192191683830152151560051b010190565b600211156129be57565b634e487b7160e01b600052602160045260246000fd5b602081528151602082015260018060a01b03602083015116604082015260e060c0612a40612a2a612a14604087015185606088015261010087019061278a565b6060870151868203601f1901608088015261278a565b6080860151858203601f190160a087015261278a565b9360a081015182850152015191612a56836129b4565b015290565b6040906003190112610188576004359060243590565b805482101561202b5760005260206000209060011b0190600090565b15612a9457565b60405162461bcd60e51b8152602060048201526013602482015272155cd95c881b9bdd081c9959da5cdd195c9959606a1b6044820152606490fd5b15612ad657565b60405162461bcd60e51b815260206004820152600e60248201526d155cd95c881cdd5cdc195b99195960921b6044820152606490fd5b15612b1357565b60405162461bcd60e51b815260206004820152600e60248201526d155cd95c881b9bdd08199bdd5b9960921b6044820152606490fd5b15612b5057565b60405162461bcd60e51b815260206004820152600e60248201526d139bdd08185d5d1a1bdc9a5e995960921b6044820152606490fd5b818110612b91575050565b60008155600101612b86565b9190601f8111612bac57505050565b612bd8926000526020600020906020601f840160051c83019310612bda575b601f0160051c0190612b86565b565b9091508190612bcb565b356001600160a01b03811681036101885790565b15612bff57565b60405162461bcd60e51b815260206004820152600e60248201526d139bdd081c9959da5cdd195c995960921b6044820152606490fd5b600019811461141f5760010190565b903590601e198136030182121561018857018035906001600160401b0382116101885760200191813603831361018857565b903590601e198136030182121561018857018035906001600160401b03821161018857602001918160051b3603831361018857565b9190612cc1576020816001925184550151910155565b634e487b7160e01b600052600060045260246000fd5b908060209392818452848401376000828201840152601f01601f1916010190565b6001600160401b0381116102fe5760051b60200190565b90612d19816129b4565b60ff80198354169116179055565b60405190612d3482612818565b600060c08382815282602082015260606040820152606080820152606060808201528260a08201520152565b90604051612d6d816127e1565b60206001829480548452015491015256fea264697066735822122002b0a60e86910f01f3ed01eca1b0812614bcb268cf5ecc27d59347569c472eba64736f6c634300081c0033",
          "opcodes": "PUSH1 0x80 DUP1 PUSH1 0x40 MSTORE CALLVALUE PUSH1 0x48 JUMPI PUSH1 0x1 PUSH1 0x0 SSTORE PUSH1 0x1 DUP1 SSTORE CALLER PUSH1 0x1 DUP1 PUSH1 0xA0 SHL SUB NOT PUSH1 0x2 SLOAD AND OR PUSH1 0x2 SSTORE CALLER PUSH1 0x0 MSTORE PUSH1 0x6 PUSH1 0x20 MSTORE PUSH1 0x40 PUSH1 0x0 KECCAK256 PUSH1 0x1 PUSH1 0xFF NOT DUP3 SLOAD AND OR SWAP1 SSTORE PUSH2 0x2DB4 SWAP1 DUP2 PUSH2 0x4E DUP3 CODECOPY RETURN JUMPDEST PUSH1 0x0 DUP1 REVERT INVALID PUSH2 0x1A0 DUP1 PUSH1 0x40 MSTORE PUSH1 0x4 CALLDATASIZE LT ISZERO PUSH2 0x14 JUMPI PUSH1 0x0 DUP1 REVERT JUMPDEST PUSH1 0x0 CALLDATALOAD PUSH1 0xE0 SHR SWAP1 DUP2 PUSH4 0x11F581FE EQ PUSH2 0x276F JUMPI POP DUP1 PUSH4 0x1E6B1376 EQ PUSH2 0xDBC JUMPI DUP1 PUSH4 0x2744CDED EQ PUSH2 0x261A JUMPI DUP1 PUSH4 0x288DAA9B EQ PUSH2 0x24C5 JUMPI DUP1 PUSH4 0x2EBAC8C6 EQ PUSH2 0x1971 JUMPI DUP1 PUSH4 0x365B98B2 EQ PUSH2 0x189A JUMPI DUP1 PUSH4 0x3F9B250A EQ PUSH2 0x1512 JUMPI DUP1 PUSH4 0x404F80E6 EQ PUSH2 0x1298 JUMPI DUP1 PUSH4 0x5884B383 EQ PUSH2 0x11AB JUMPI DUP1 PUSH4 0x608C9784 EQ PUSH2 0xFF4 JUMPI DUP1 PUSH4 0x69C212F6 EQ PUSH2 0xFAF JUMPI DUP1 PUSH4 0x6ED6DA9E EQ PUSH2 0xECB JUMPI DUP1 PUSH4 0x711BF9B2 EQ PUSH2 0xE11 JUMPI DUP1 PUSH4 0x784FD215 EQ PUSH2 0xDBC JUMPI DUP1 PUSH4 0x8DA5CB5B EQ PUSH2 0xD93 JUMPI DUP1 PUSH4 0x91888F2E EQ PUSH2 0xD76 JUMPI DUP1 PUSH4 0xA102FB9B EQ PUSH2 0xCA5 JUMPI DUP1 PUSH4 0xA1E6A255 EQ PUSH2 0xC87 JUMPI DUP1 PUSH4 0xA4E07EE4 EQ PUSH2 0x75E JUMPI DUP1 PUSH4 0xAEAED835 EQ PUSH2 0x72D JUMPI DUP1 PUSH4 0xB5FFBBCC EQ PUSH2 0x6F3 JUMPI DUP1 PUSH4 0xC2ED2B05 EQ PUSH2 0x54A JUMPI DUP1 PUSH4 0xC6C2D93D EQ PUSH2 0x505 JUMPI DUP1 PUSH4 0xCA7CD4D3 EQ PUSH2 0x434 JUMPI DUP1 PUSH4 0xD5DF7559 EQ PUSH2 0x32D JUMPI DUP1 PUSH4 0xDCC9CAD3 EQ PUSH2 0x18D JUMPI PUSH4 0xFE9FBB80 EQ PUSH2 0x149 JUMPI PUSH1 0x0 DUP1 REVERT JUMPDEST CALLVALUE PUSH2 0x188 JUMPI PUSH1 0x20 CALLDATASIZE PUSH1 0x3 NOT ADD SLT PUSH2 0x188 JUMPI PUSH1 0x1 PUSH1 0x1 PUSH1 0xA0 SHL SUB PUSH2 0x16A PUSH2 0x27CB JUMP JUMPDEST AND PUSH1 0x0 MSTORE PUSH1 0x6 PUSH1 0x20 MSTORE PUSH1 0x20 PUSH1 0xFF PUSH1 0x40 PUSH1 0x0 KECCAK256 SLOAD AND PUSH1 0x40 MLOAD SWAP1 ISZERO ISZERO DUP2 MSTORE RETURN JUMPDEST PUSH1 0x0 DUP1 REVERT JUMPDEST CALLVALUE PUSH2 0x188 JUMPI PUSH2 0x19B CALLDATASIZE PUSH2 0x28B8 JUMP JUMPDEST PUSH1 0x1 PUSH1 0x1 PUSH1 0xA0 SHL SUB SWAP1 SWAP2 AND PUSH1 0x0 DUP2 DUP2 MSTORE PUSH1 0x3 PUSH1 0x20 MSTORE PUSH1 0x40 SWAP1 KECCAK256 SLOAD PUSH2 0x1C0 DUP2 ISZERO ISZERO PUSH2 0x2A8D JUMP JUMPDEST PUSH1 0x0 MSTORE PUSH1 0x4 PUSH1 0x20 MSTORE PUSH2 0x1E6 PUSH1 0xFF PUSH1 0x6 PUSH1 0x40 PUSH1 0x0 KECCAK256 ADD SLOAD AND PUSH2 0x1E0 DUP2 PUSH2 0x29B4 JUMP JUMPDEST ISZERO PUSH2 0x2ACF JUMP JUMPDEST DUP1 PUSH1 0x0 MSTORE PUSH1 0x3 PUSH1 0x20 MSTORE PUSH1 0x40 PUSH1 0x0 KECCAK256 SLOAD SWAP1 PUSH2 0x201 DUP3 ISZERO ISZERO PUSH2 0x2B0C JUMP JUMPDEST CALLER EQ PUSH2 0x328 JUMPI CALLER PUSH1 0x0 MSTORE PUSH1 0x6 PUSH1 0x20 MSTORE PUSH1 0xFF PUSH1 0x40 PUSH1 0x0 KECCAK256 SLOAD AND DUP1 ISZERO PUSH2 0x314 JUMPI JUMPDEST PUSH2 0x229 SWAP1 PUSH2 0x2B49 JUMP JUMPDEST PUSH1 0x0 MSTORE PUSH1 0x4 PUSH1 0x20 MSTORE PUSH1 0x2 PUSH1 0x40 PUSH1 0x0 KECCAK256 ADD DUP2 MLOAD PUSH1 0x1 PUSH1 0x1 PUSH1 0x40 SHL SUB DUP2 GT PUSH2 0x2FE JUMPI PUSH2 0x25D DUP2 PUSH2 0x257 DUP5 SLOAD PUSH2 0x28F7 JUMP JUMPDEST DUP5 PUSH2 0x2B9D JUMP JUMPDEST PUSH1 0x20 SWAP3 PUSH1 0x1F DUP3 GT PUSH1 0x1 EQ PUSH2 0x29E JUMPI PUSH2 0x28F SWAP3 SWAP4 DUP3 SWAP2 PUSH1 0x0 SWAP3 PUSH2 0x293 JUMPI JUMPDEST POP POP DUP2 PUSH1 0x1 SHL SWAP2 PUSH1 0x0 NOT SWAP1 PUSH1 0x3 SHL SHR NOT AND OR SWAP1 JUMP JUMPDEST SWAP1 SSTORE STOP JUMPDEST ADD MLOAD SWAP1 POP DUP5 DUP1 PUSH2 0x27A JUMP JUMPDEST PUSH1 0x1F NOT DUP3 AND SWAP4 DUP4 PUSH1 0x0 MSTORE DUP1 PUSH1 0x0 KECCAK256 SWAP2 PUSH1 0x0 JUMPDEST DUP7 DUP2 LT PUSH2 0x2E6 JUMPI POP DUP4 PUSH1 0x1 SWAP6 SWAP7 LT PUSH2 0x2CD JUMPI JUMPDEST POP POP POP DUP2 SHL ADD SWAP1 SSTORE STOP JUMPDEST ADD MLOAD PUSH1 0x0 NOT PUSH1 0xF8 DUP5 PUSH1 0x3 SHL AND SHR NOT AND SWAP1 SSTORE DUP4 DUP1 DUP1 PUSH2 0x2C3 JUMP JUMPDEST SWAP2 SWAP3 PUSH1 0x20 PUSH1 0x1 DUP2 SWAP3 DUP7 DUP6 ADD MLOAD DUP2 SSTORE ADD SWAP5 ADD SWAP3 ADD PUSH2 0x2B0 JUMP JUMPDEST PUSH4 0x4E487B71 PUSH1 0xE0 SHL PUSH1 0x0 MSTORE PUSH1 0x41 PUSH1 0x4 MSTORE PUSH1 0x24 PUSH1 0x0 REVERT JUMPDEST POP PUSH1 0x2 SLOAD PUSH1 0x1 PUSH1 0x1 PUSH1 0xA0 SHL SUB AND CALLER EQ PUSH2 0x220 JUMP JUMPDEST PUSH2 0x229 JUMP JUMPDEST CALLVALUE PUSH2 0x188 JUMPI PUSH1 0x20 CALLDATASIZE PUSH1 0x3 NOT ADD SLT PUSH2 0x188 JUMPI PUSH1 0x4 CALLDATALOAD DUP1 PUSH1 0x0 MSTORE PUSH1 0x5 PUSH1 0x20 MSTORE PUSH1 0x40 PUSH1 0x0 KECCAK256 DUP1 SLOAD ISZERO PUSH2 0x403 JUMPI PUSH1 0xC DUP2 ADD SLOAD PUSH1 0x0 MSTORE PUSH1 0x4 PUSH1 0x20 MSTORE PUSH1 0x1 DUP1 PUSH1 0xA0 SHL SUB PUSH1 0x1 PUSH1 0x40 PUSH1 0x0 KECCAK256 ADD SLOAD AND CALLER EQ DUP1 ISZERO PUSH2 0x3EB JUMPI JUMPDEST ISZERO PUSH2 0x3B7 JUMPI PUSH1 0xE ADD DUP1 SLOAD PUSH1 0xFF NOT AND PUSH1 0x1 OR SWAP1 SSTORE PUSH32 0x480C8C4F142C9CEB3D0B0D7675300F10573A6CD66FCA3390578E785181546459 PUSH1 0x0 DUP1 LOG2 STOP JUMPDEST PUSH1 0x40 MLOAD PUSH3 0x461BCD PUSH1 0xE5 SHL DUP2 MSTORE PUSH1 0x20 PUSH1 0x4 DUP3 ADD MSTORE PUSH1 0xC PUSH1 0x24 DUP3 ADD MSTORE PUSH12 0x155B985D5D1A1BDC9A5E9959 PUSH1 0xA2 SHL PUSH1 0x44 DUP3 ADD MSTORE PUSH1 0x64 SWAP1 REVERT JUMPDEST POP CALLER PUSH1 0x0 MSTORE PUSH1 0x6 PUSH1 0x20 MSTORE PUSH1 0xFF PUSH1 0x40 PUSH1 0x0 KECCAK256 SLOAD AND PUSH2 0x37D JUMP JUMPDEST PUSH1 0x40 MLOAD PUSH3 0x461BCD PUSH1 0xE5 SHL DUP2 MSTORE PUSH1 0x20 PUSH1 0x4 DUP3 ADD MSTORE PUSH1 0x9 PUSH1 0x24 DUP3 ADD MSTORE PUSH9 0x139BDD08199BDD5B99 PUSH1 0xBA SHL PUSH1 0x44 DUP3 ADD MSTORE PUSH1 0x64 SWAP1 REVERT JUMPDEST CALLVALUE PUSH2 0x188 JUMPI PUSH1 0x20 CALLDATASIZE PUSH1 0x3 NOT ADD SLT PUSH2 0x188 JUMPI PUSH1 0x4 CALLDATALOAD PUSH1 0x0 MSTORE PUSH1 0x7 PUSH1 0x20 MSTORE PUSH1 0x40 PUSH1 0x0 KECCAK256 DUP1 SLOAD SWAP1 PUSH2 0x461 DUP3 PUSH2 0x2CF8 JUMP JUMPDEST SWAP2 PUSH2 0x46F PUSH1 0x40 MLOAD SWAP4 DUP5 PUSH2 0x2833 JUMP JUMPDEST DUP1 DUP4 MSTORE PUSH1 0x20 DUP4 ADD DUP1 SWAP3 PUSH1 0x0 MSTORE PUSH1 0x20 PUSH1 0x0 KECCAK256 PUSH1 0x0 SWAP2 JUMPDEST DUP4 DUP4 LT PUSH2 0x4E7 JUMPI DUP5 DUP7 PUSH1 0x40 MLOAD SWAP2 DUP3 SWAP2 PUSH1 0x20 DUP4 ADD SWAP1 PUSH1 0x20 DUP5 MSTORE MLOAD DUP1 SWAP2 MSTORE PUSH1 0x40 DUP4 ADD SWAP2 SWAP1 PUSH1 0x0 JUMPDEST DUP2 DUP2 LT PUSH2 0x4B7 JUMPI POP POP POP SUB SWAP1 RETURN JUMPDEST SWAP2 SWAP4 POP SWAP2 PUSH1 0x20 PUSH2 0x4DA PUSH1 0x1 SWAP3 DUP7 MLOAD SWAP1 PUSH1 0x20 PUSH1 0x40 SWAP3 DUP1 MLOAD DUP4 MSTORE ADD MLOAD PUSH1 0x20 DUP3 ADD MSTORE ADD SWAP1 JUMP JUMPDEST SWAP5 ADD SWAP2 ADD SWAP2 DUP5 SWAP4 SWAP3 PUSH2 0x4A9 JUMP JUMPDEST PUSH1 0x2 PUSH1 0x20 PUSH1 0x1 SWAP3 PUSH2 0x4F7 DUP6 PUSH2 0x2D60 JUMP JUMPDEST DUP2 MSTORE ADD SWAP3 ADD SWAP3 ADD SWAP2 SWAP1 PUSH2 0x484 JUMP JUMPDEST CALLVALUE PUSH2 0x188 JUMPI PUSH2 0x513 CALLDATASIZE PUSH2 0x2A5B JUMP JUMPDEST SWAP1 PUSH1 0x0 MSTORE PUSH1 0x8 PUSH1 0x20 MSTORE PUSH1 0x40 PUSH1 0x0 KECCAK256 DUP1 SLOAD DUP3 LT ISZERO PUSH2 0x188 JUMPI PUSH1 0x40 SWAP2 PUSH2 0x536 SWAP2 PUSH2 0x2A71 JUMP JUMPDEST POP PUSH1 0x1 DUP2 SLOAD SWAP2 ADD SLOAD DUP3 MLOAD SWAP2 DUP3 MSTORE PUSH1 0x20 DUP3 ADD MSTORE RETURN JUMPDEST CALLVALUE PUSH2 0x188 JUMPI PUSH1 0x20 CALLDATASIZE PUSH1 0x3 NOT ADD SLT PUSH2 0x188 JUMPI PUSH1 0x4 CALLDATALOAD PUSH1 0x0 MSTORE PUSH1 0x5 PUSH1 0x20 MSTORE PUSH1 0x40 PUSH1 0x0 KECCAK256 DUP1 SLOAD PUSH1 0x40 MLOAD SWAP2 DUP3 DUP1 PUSH1 0x1 DUP4 ADD SWAP1 PUSH2 0x581 SWAP2 PUSH2 0x2931 JUMP JUMPDEST SUB PUSH2 0x58C SWAP1 DUP5 PUSH2 0x2833 JUMP JUMPDEST PUSH1 0x40 MLOAD DUP1 PUSH2 0x59D DUP2 PUSH1 0x2 DUP6 ADD PUSH2 0x2931 JUMP JUMPDEST SUB PUSH2 0x5A8 SWAP1 DUP3 PUSH2 0x2833 JUMP JUMPDEST PUSH1 0x40 MLOAD SWAP2 DUP3 PUSH2 0x5BA DUP2 PUSH1 0x3 DUP5 ADD PUSH2 0x2931 JUMP JUMPDEST SUB PUSH2 0x5C5 SWAP1 DUP5 PUSH2 0x2833 JUMP JUMPDEST PUSH1 0x40 MLOAD SWAP3 DUP4 PUSH2 0x5D7 DUP2 PUSH1 0x4 DUP6 ADD PUSH2 0x2931 JUMP JUMPDEST SUB PUSH2 0x5E2 SWAP1 DUP6 PUSH2 0x2833 JUMP JUMPDEST PUSH1 0x40 MLOAD SWAP4 DUP5 PUSH2 0x5F4 DUP2 PUSH1 0x5 DUP7 ADD PUSH2 0x2931 JUMP JUMPDEST SUB PUSH2 0x5FF SWAP1 DUP7 PUSH2 0x2833 JUMP JUMPDEST PUSH1 0x40 MLOAD SWAP5 DUP6 PUSH2 0x611 DUP2 PUSH1 0x6 DUP8 ADD PUSH2 0x2931 JUMP JUMPDEST SUB PUSH2 0x61C SWAP1 DUP8 PUSH2 0x2833 JUMP JUMPDEST PUSH1 0x8 DUP5 ADD SLOAD SWAP6 PUSH1 0x9 DUP6 ADD SLOAD SWAP1 PUSH1 0xA DUP7 ADD SLOAD SWAP3 PUSH1 0xB DUP8 ADD SLOAD SWAP5 PUSH1 0xC DUP9 ADD SLOAD SWAP7 PUSH1 0xD DUP10 ADD SLOAD SWAP9 PUSH1 0xE ADD SLOAD PUSH1 0xFF AND SWAP10 PUSH1 0x40 MLOAD SWAP14 DUP15 SWAP14 DUP15 MSTORE DUP14 PUSH1 0x20 DUP2 ADD PUSH2 0x1C0 SWAP1 MSTORE PUSH2 0x1C0 ADD PUSH2 0x667 SWAP2 PUSH2 0x278A JUMP JUMPDEST DUP14 DUP2 SUB PUSH1 0x40 DUP16 ADD MSTORE PUSH2 0x678 SWAP2 PUSH2 0x278A JUMP JUMPDEST DUP13 DUP2 SUB PUSH1 0x60 DUP15 ADD MSTORE PUSH2 0x689 SWAP2 PUSH2 0x278A JUMP JUMPDEST DUP12 DUP2 SUB PUSH1 0x80 DUP14 ADD MSTORE PUSH2 0x69A SWAP2 PUSH2 0x278A JUMP JUMPDEST DUP11 DUP2 SUB PUSH1 0xA0 DUP13 ADD MSTORE PUSH2 0x6AB SWAP2 PUSH2 0x278A JUMP JUMPDEST DUP10 DUP2 SUB PUSH1 0xC0 DUP12 ADD MSTORE PUSH2 0x6BC SWAP2 PUSH2 0x278A JUMP JUMPDEST SWAP7 PUSH1 0xE0 DUP10 ADD MSTORE PUSH2 0x100 DUP9 ADD MSTORE PUSH2 0x120 DUP8 ADD MSTORE PUSH2 0x140 DUP7 ADD MSTORE PUSH2 0x160 DUP6 ADD MSTORE PUSH2 0x180 DUP5 ADD MSTORE PUSH2 0x6E9 DUP2 PUSH2 0x29B4 JUMP JUMPDEST PUSH2 0x1A0 DUP4 ADD MSTORE SUB SWAP1 RETURN JUMPDEST CALLVALUE PUSH2 0x188 JUMPI PUSH1 0x20 CALLDATASIZE PUSH1 0x3 NOT ADD SLT PUSH2 0x188 JUMPI PUSH1 0x1 PUSH1 0x1 PUSH1 0xA0 SHL SUB PUSH2 0x714 PUSH2 0x27CB JUMP JUMPDEST AND PUSH1 0x0 MSTORE PUSH1 0x3 PUSH1 0x20 MSTORE PUSH1 0x20 PUSH1 0x40 PUSH1 0x0 KECCAK256 SLOAD PUSH1 0x40 MLOAD SWAP1 DUP2 MSTORE RETURN JUMPDEST CALLVALUE PUSH2 0x188 JUMPI PUSH2 0x73B CALLDATASIZE PUSH2 0x2A5B JUMP JUMPDEST SWAP1 PUSH1 0x0 MSTORE PUSH1 0x7 PUSH1 0x20 MSTORE PUSH1 0x40 PUSH1 0x0 KECCAK256 DUP1 SLOAD DUP3 LT ISZERO PUSH2 0x188 JUMPI PUSH1 0x40 SWAP2 PUSH2 0x536 SWAP2 PUSH2 0x2A71 JUMP JUMPDEST CALLVALUE PUSH2 0x188 JUMPI PUSH1 0x20 CALLDATASIZE PUSH1 0x3 NOT ADD SLT PUSH2 0x188 JUMPI PUSH1 0x4 CALLDATALOAD PUSH1 0x1 PUSH1 0x1 PUSH1 0x40 SHL SUB DUP2 GT PUSH2 0x188 JUMPI DUP1 PUSH1 0x4 ADD SWAP1 PUSH1 0x80 PUSH1 0x3 NOT DUP3 CALLDATASIZE SUB ADD SLT PUSH2 0x188 JUMPI CALLER PUSH1 0x0 MSTORE PUSH1 0x6 PUSH1 0x20 MSTORE PUSH1 0xFF PUSH1 0x40 PUSH1 0x0 KECCAK256 SLOAD AND DUP1 ISZERO PUSH2 0xC73 JUMPI JUMPDEST PUSH2 0x7B5 SWAP1 PUSH2 0x2B49 JUMP JUMPDEST PUSH1 0x1 PUSH1 0x1 PUSH1 0xA0 SHL SUB PUSH2 0x7C6 DUP4 PUSH2 0x2BE4 JUMP JUMPDEST AND PUSH1 0x0 MSTORE PUSH1 0x3 PUSH1 0x20 MSTORE PUSH1 0x40 PUSH1 0x0 KECCAK256 SLOAD PUSH2 0xC40 JUMPI PUSH1 0x64 PUSH1 0x0 SLOAD SWAP2 PUSH2 0x7E8 DUP4 PUSH2 0x2C35 JUMP JUMPDEST PUSH1 0x0 SSTORE PUSH2 0x7F4 DUP5 PUSH2 0x2BE4 JUMP JUMPDEST SWAP4 DUP4 PUSH1 0x24 DUP4 ADD SWAP6 PUSH2 0x805 DUP8 DUP5 PUSH2 0x2C44 JUMP JUMPDEST SWAP6 SWAP1 PUSH2 0x878 PUSH1 0x44 DUP8 ADD SWAP8 PUSH2 0x869 PUSH2 0x81C DUP11 DUP10 PUSH2 0x2C44 JUMP JUMPDEST SWAP6 SWAP1 SWAP10 ADD SWAP9 PUSH2 0x85A PUSH2 0x82E DUP12 DUP12 PUSH2 0x2C44 JUMP JUMPDEST SWAP7 SWAP1 SWAP5 PUSH1 0x40 MLOAD SWAP11 PUSH2 0x83E DUP13 PUSH2 0x2818 JUMP JUMPDEST DUP12 MSTORE PUSH1 0x1 PUSH1 0x1 PUSH1 0xA0 SHL SUB SWAP1 SWAP10 AND PUSH1 0x20 DUP12 ADD SWAP1 DUP2 MSTORE SWAP9 CALLDATASIZE SWAP2 PUSH2 0x2854 JUMP JUMPDEST SWAP6 PUSH1 0x40 DUP10 ADD SWAP7 DUP8 MSTORE CALLDATASIZE SWAP2 PUSH2 0x2854 JUMP JUMPDEST SWAP3 PUSH1 0x60 DUP8 ADD SWAP4 DUP5 MSTORE CALLDATASIZE SWAP2 PUSH2 0x2854 JUMP JUMPDEST SWAP1 PUSH1 0x80 DUP6 ADD SWAP2 DUP3 MSTORE PUSH1 0xA0 DUP6 ADD SWAP3 TIMESTAMP DUP5 MSTORE PUSH1 0xC0 DUP7 ADD SWAP5 PUSH1 0x0 DUP7 MSTORE DUP11 PUSH1 0x0 MSTORE PUSH1 0x4 PUSH1 0x20 MSTORE PUSH1 0x40 PUSH1 0x0 KECCAK256 SWAP7 MLOAD DUP8 SSTORE PUSH1 0x1 DUP8 ADD SWAP1 PUSH1 0x1 DUP1 PUSH1 0xA0 SHL SUB SWAP1 MLOAD AND PUSH12 0xFFFFFFFFFFFFFFFFFFFFFFFF PUSH1 0xA0 SHL DUP3 SLOAD AND OR SWAP1 SSTORE PUSH1 0x2 DUP7 ADD SWAP1 MLOAD DUP1 MLOAD SWAP1 PUSH1 0x1 PUSH1 0x1 PUSH1 0x40 SHL SUB DUP3 GT PUSH2 0x2FE JUMPI PUSH2 0x8F3 DUP3 PUSH2 0x8ED DUP6 SLOAD PUSH2 0x28F7 JUMP JUMPDEST DUP6 PUSH2 0x2B9D JUMP JUMPDEST PUSH1 0x20 SWAP1 PUSH1 0x1F DUP4 GT PUSH1 0x1 EQ PUSH2 0xBD9 JUMPI PUSH2 0x923 SWAP3 SWAP2 PUSH1 0x0 SWAP2 DUP4 PUSH2 0xBCE JUMPI POP POP DUP2 PUSH1 0x1 SHL SWAP2 PUSH1 0x0 NOT SWAP1 PUSH1 0x3 SHL SHR NOT AND OR SWAP1 JUMP JUMPDEST SWAP1 SSTORE JUMPDEST MLOAD DUP1 MLOAD PUSH1 0x3 DUP7 ADD SWAP2 PUSH1 0x1 PUSH1 0x1 PUSH1 0x40 SHL SUB DUP3 GT PUSH2 0x2FE JUMPI PUSH2 0x94A DUP3 PUSH2 0x8ED DUP6 SLOAD PUSH2 0x28F7 JUMP JUMPDEST PUSH1 0x20 SWAP1 PUSH1 0x1F DUP4 GT PUSH1 0x1 EQ PUSH2 0xB67 JUMPI PUSH2 0x97A SWAP3 SWAP2 PUSH1 0x0 SWAP2 DUP4 PUSH2 0xB5C JUMPI POP POP DUP2 PUSH1 0x1 SHL SWAP2 PUSH1 0x0 NOT SWAP1 PUSH1 0x3 SHL SHR NOT AND OR SWAP1 JUMP JUMPDEST SWAP1 SSTORE JUMPDEST MLOAD DUP1 MLOAD PUSH1 0x4 DUP6 ADD SWAP2 PUSH1 0x1 PUSH1 0x1 PUSH1 0x40 SHL SUB DUP3 GT PUSH2 0x2FE JUMPI PUSH2 0x9A1 DUP3 PUSH2 0x8ED DUP6 SLOAD PUSH2 0x28F7 JUMP JUMPDEST PUSH1 0x20 SWAP1 PUSH1 0x1F DUP4 GT PUSH1 0x1 EQ PUSH2 0xAC2 JUMPI SWAP5 PUSH2 0xA62 SWAP8 SWAP5 PUSH2 0xA1F SWAP5 PUSH2 0xA05 DUP6 PUSH2 0xAA0 SWAP11 SWAP7 PUSH1 0x6 SWAP7 PUSH32 0xF608EFD81EDDDAC018F9AD0B03084DDBF4C09D8F636DF2E1D43D9C7F3AC68B44 SWAP16 SWAP15 SWAP12 PUSH1 0x0 SWAP3 PUSH2 0xAB7 JUMPI POP POP DUP2 PUSH1 0x1 SHL SWAP2 PUSH1 0x0 NOT SWAP1 PUSH1 0x3 SHL SHR NOT AND OR SWAP1 JUMP JUMPDEST SWAP1 SSTORE JUMPDEST MLOAD PUSH1 0x5 DUP5 ADD SSTORE MLOAD SWAP2 PUSH2 0xA19 DUP4 PUSH2 0x29B4 JUMP JUMPDEST ADD PUSH2 0x2D0F JUMP JUMPDEST PUSH1 0x1 PUSH1 0x1 PUSH1 0xA0 SHL SUB PUSH2 0xA30 DUP3 PUSH2 0x2BE4 JUMP JUMPDEST AND PUSH1 0x0 MSTORE PUSH1 0x3 PUSH1 0x20 MSTORE DUP7 PUSH1 0x40 PUSH1 0x0 KECCAK256 SSTORE PUSH2 0xA92 PUSH2 0xA6A PUSH2 0xA59 PUSH2 0xA52 DUP5 PUSH2 0x2BE4 JUMP JUMPDEST SWAP11 DUP5 PUSH2 0x2C44 JUMP JUMPDEST SWAP7 SWAP1 SWAP8 DUP5 PUSH2 0x2C44 JUMP JUMPDEST SWAP5 SWAP1 SWAP4 PUSH2 0x2C44 JUMP JUMPDEST SWAP3 SWAP1 SWAP4 PUSH2 0xA84 PUSH1 0x40 MLOAD SWAP9 DUP10 SWAP9 PUSH1 0x80 DUP11 MSTORE PUSH1 0x80 DUP11 ADD SWAP2 PUSH2 0x2CD7 JUMP JUMPDEST SWAP2 DUP8 DUP4 SUB PUSH1 0x20 DUP10 ADD MSTORE PUSH2 0x2CD7 JUMP JUMPDEST SWAP2 DUP5 DUP4 SUB PUSH1 0x40 DUP7 ADD MSTORE PUSH2 0x2CD7 JUMP JUMPDEST TIMESTAMP PUSH1 0x60 DUP4 ADD MSTORE PUSH1 0x1 PUSH1 0x1 PUSH1 0xA0 SHL SUB SWAP1 SWAP6 AND SWAP5 SUB SWAP1 LOG3 STOP JUMPDEST ADD MLOAD SWAP1 POP CODESIZE DUP1 PUSH2 0x27A JUMP JUMPDEST SWAP1 PUSH1 0x1F NOT DUP4 AND SWAP2 DUP5 PUSH1 0x0 MSTORE DUP2 PUSH1 0x0 KECCAK256 SWAP3 PUSH1 0x0 JUMPDEST DUP2 DUP2 LT PUSH2 0xB44 JUMPI POP SWAP5 PUSH1 0x1 DUP6 PUSH1 0x6 SWAP6 PUSH32 0xF608EFD81EDDDAC018F9AD0B03084DDBF4C09D8F636DF2E1D43D9C7F3AC68B44 SWAP15 SWAP14 SWAP11 SWAP6 PUSH2 0xA62 SWAP14 SWAP11 SWAP6 PUSH2 0xAA0 SWAP14 SWAP10 PUSH2 0xA1F SWAP12 LT PUSH2 0xB2B JUMPI JUMPDEST POP POP POP DUP2 SHL ADD SWAP1 SSTORE PUSH2 0xA08 JUMP JUMPDEST ADD MLOAD PUSH1 0x0 NOT PUSH1 0xF8 DUP5 PUSH1 0x3 SHL AND SHR NOT AND SWAP1 SSTORE CODESIZE DUP1 DUP1 PUSH2 0xB1E JUMP JUMPDEST SWAP3 SWAP4 PUSH1 0x20 PUSH1 0x1 DUP2 SWAP3 DUP8 DUP7 ADD MLOAD DUP2 SSTORE ADD SWAP6 ADD SWAP4 ADD PUSH2 0xAD5 JUMP JUMPDEST ADD MLOAD SWAP1 POP DUP14 DUP1 PUSH2 0x27A JUMP JUMPDEST SWAP1 PUSH1 0x1F NOT DUP4 AND SWAP2 DUP5 PUSH1 0x0 MSTORE DUP2 PUSH1 0x0 KECCAK256 SWAP3 PUSH1 0x0 JUMPDEST DUP2 DUP2 LT PUSH2 0xBB6 JUMPI POP SWAP1 DUP5 PUSH1 0x1 SWAP6 SWAP5 SWAP4 SWAP3 LT PUSH2 0xB9D JUMPI JUMPDEST POP POP POP DUP2 SHL ADD SWAP1 SSTORE PUSH2 0x97D JUMP JUMPDEST ADD MLOAD PUSH1 0x0 NOT PUSH1 0xF8 DUP5 PUSH1 0x3 SHL AND SHR NOT AND SWAP1 SSTORE DUP13 DUP1 DUP1 PUSH2 0xB90 JUMP JUMPDEST SWAP3 SWAP4 PUSH1 0x20 PUSH1 0x1 DUP2 SWAP3 DUP8 DUP7 ADD MLOAD DUP2 SSTORE ADD SWAP6 ADD SWAP4 ADD PUSH2 0xB7A JUMP JUMPDEST ADD MLOAD SWAP1 POP DUP15 DUP1 PUSH2 0x27A JUMP JUMPDEST SWAP1 PUSH1 0x1F NOT DUP4 AND SWAP2 DUP5 PUSH1 0x0 MSTORE DUP2 PUSH1 0x0 KECCAK256 SWAP3 PUSH1 0x0 JUMPDEST DUP2 DUP2 LT PUSH2 0xC28 JUMPI POP SWAP1 DUP5 PUSH1 0x1 SWAP6 SWAP5 SWAP4 SWAP3 LT PUSH2 0xC0F JUMPI JUMPDEST POP POP POP DUP2 SHL ADD SWAP1 SSTORE PUSH2 0x926 JUMP JUMPDEST ADD MLOAD PUSH1 0x0 NOT PUSH1 0xF8 DUP5 PUSH1 0x3 SHL AND SHR NOT AND SWAP1 SSTORE DUP14 DUP1 DUP1 PUSH2 0xC02 JUMP JUMPDEST SWAP3 SWAP4 PUSH1 0x20 PUSH1 0x1 DUP2 SWAP3 DUP8 DUP7 ADD MLOAD DUP2 SSTORE ADD SWAP6 ADD SWAP4 ADD PUSH2 0xBEC JUMP JUMPDEST PUSH1 0x40 MLOAD PUSH3 0x461BCD PUSH1 0xE5 SHL DUP2 MSTORE PUSH1 0x20 PUSH1 0x4 DUP3 ADD MSTORE PUSH1 0xB PUSH1 0x24 DUP3 ADD MSTORE PUSH11 0x5573657220657869737473 PUSH1 0xA8 SHL PUSH1 0x44 DUP3 ADD MSTORE PUSH1 0x64 SWAP1 REVERT JUMPDEST POP PUSH1 0x2 SLOAD PUSH1 0x1 PUSH1 0x1 PUSH1 0xA0 SHL SUB AND CALLER EQ PUSH2 0x7AC JUMP JUMPDEST CALLVALUE PUSH2 0x188 JUMPI PUSH1 0x0 CALLDATASIZE PUSH1 0x3 NOT ADD SLT PUSH2 0x188 JUMPI PUSH1 0x20 PUSH1 0x0 SLOAD PUSH1 0x40 MLOAD SWAP1 DUP2 MSTORE RETURN JUMPDEST CALLVALUE PUSH2 0x188 JUMPI PUSH1 0x20 CALLDATASIZE PUSH1 0x3 NOT ADD SLT PUSH2 0x188 JUMPI PUSH1 0x4 CALLDATALOAD PUSH1 0x0 MSTORE PUSH1 0x8 PUSH1 0x20 MSTORE PUSH1 0x40 PUSH1 0x0 KECCAK256 DUP1 SLOAD SWAP1 PUSH2 0xCD2 DUP3 PUSH2 0x2CF8 JUMP JUMPDEST SWAP2 PUSH2 0xCE0 PUSH1 0x40 MLOAD SWAP4 DUP5 PUSH2 0x2833 JUMP JUMPDEST DUP1 DUP4 MSTORE PUSH1 0x20 DUP4 ADD DUP1 SWAP3 PUSH1 0x0 MSTORE PUSH1 0x20 PUSH1 0x0 KECCAK256 PUSH1 0x0 SWAP2 JUMPDEST DUP4 DUP4 LT PUSH2 0xD58 JUMPI DUP5 DUP7 PUSH1 0x40 MLOAD SWAP2 DUP3 SWAP2 PUSH1 0x20 DUP4 ADD SWAP1 PUSH1 0x20 DUP5 MSTORE MLOAD DUP1 SWAP2 MSTORE PUSH1 0x40 DUP4 ADD SWAP2 SWAP1 PUSH1 0x0 JUMPDEST DUP2 DUP2 LT PUSH2 0xD28 JUMPI POP POP POP SUB SWAP1 RETURN JUMPDEST SWAP2 SWAP4 POP SWAP2 PUSH1 0x20 PUSH2 0xD4B PUSH1 0x1 SWAP3 DUP7 MLOAD SWAP1 PUSH1 0x20 PUSH1 0x40 SWAP3 DUP1 MLOAD DUP4 MSTORE ADD MLOAD PUSH1 0x20 DUP3 ADD MSTORE ADD SWAP1 JUMP JUMPDEST SWAP5 ADD SWAP2 ADD SWAP2 DUP5 SWAP4 SWAP3 PUSH2 0xD1A JUMP JUMPDEST PUSH1 0x2 PUSH1 0x20 PUSH1 0x1 SWAP3 PUSH2 0xD68 DUP6 PUSH2 0x2D60 JUMP JUMPDEST DUP2 MSTORE ADD SWAP3 ADD SWAP3 ADD SWAP2 SWAP1 PUSH2 0xCF5 JUMP JUMPDEST CALLVALUE PUSH2 0x188 JUMPI PUSH1 0x0 CALLDATASIZE PUSH1 0x3 NOT ADD SLT PUSH2 0x188 JUMPI PUSH1 0x20 PUSH1 0x40 MLOAD PUSH2 0x8AE DUP2 MSTORE RETURN JUMPDEST CALLVALUE PUSH2 0x188 JUMPI PUSH1 0x0 CALLDATASIZE PUSH1 0x3 NOT ADD SLT PUSH2 0x188 JUMPI PUSH1 0x2 SLOAD PUSH1 0x40 MLOAD PUSH1 0x1 PUSH1 0x1 PUSH1 0xA0 SHL SUB SWAP1 SWAP2 AND DUP2 MSTORE PUSH1 0x20 SWAP1 RETURN JUMPDEST CALLVALUE PUSH2 0x188 JUMPI PUSH1 0x20 CALLDATASIZE PUSH1 0x3 NOT ADD SLT PUSH2 0x188 JUMPI PUSH1 0x4 CALLDATALOAD PUSH1 0x0 MSTORE PUSH1 0x9 PUSH1 0x20 MSTORE PUSH2 0xE0D PUSH2 0xDF2 PUSH2 0xDF9 PUSH1 0x40 PUSH1 0x0 KECCAK256 PUSH1 0x40 MLOAD SWAP3 DUP4 DUP1 SWAP3 PUSH2 0x2931 JUMP JUMPDEST SUB DUP3 PUSH2 0x2833 JUMP JUMPDEST PUSH1 0x40 MLOAD SWAP2 DUP3 SWAP2 PUSH1 0x20 DUP4 MSTORE PUSH1 0x20 DUP4 ADD SWAP1 PUSH2 0x278A JUMP JUMPDEST SUB SWAP1 RETURN JUMPDEST CALLVALUE PUSH2 0x188 JUMPI PUSH1 0x40 CALLDATASIZE PUSH1 0x3 NOT ADD SLT PUSH2 0x188 JUMPI PUSH2 0xE2A PUSH2 0x27CB JUMP JUMPDEST PUSH1 0x24 CALLDATALOAD SWAP1 DUP2 ISZERO ISZERO DUP1 SWAP3 SUB PUSH2 0x188 JUMPI PUSH1 0x2 SLOAD PUSH1 0x1 PUSH1 0x1 PUSH1 0xA0 SHL SUB AND CALLER SUB PUSH2 0xE9A JUMPI PUSH1 0x20 PUSH32 0x2C59B8F31260880424E870332281EBA93DDFEF67E37D699CEBE5A7BA89F7A8A6 SWAP2 PUSH1 0x1 DUP1 PUSH1 0xA0 SHL SUB AND SWAP3 DUP4 PUSH1 0x0 MSTORE PUSH1 0x6 DUP3 MSTORE PUSH1 0x40 PUSH1 0x0 KECCAK256 PUSH1 0xFF NOT DUP2 SLOAD AND PUSH1 0xFF DUP4 AND OR SWAP1 SSTORE PUSH1 0x40 MLOAD SWAP1 DUP2 MSTORE LOG2 STOP JUMPDEST PUSH1 0x40 MLOAD PUSH3 0x461BCD PUSH1 0xE5 SHL DUP2 MSTORE PUSH1 0x20 PUSH1 0x4 DUP3 ADD MSTORE PUSH1 0x9 PUSH1 0x24 DUP3 ADD MSTORE PUSH9 0x2737BA1037BBB732B9 PUSH1 0xB9 SHL PUSH1 0x44 DUP3 ADD MSTORE PUSH1 0x64 SWAP1 REVERT JUMPDEST CALLVALUE PUSH2 0x188 JUMPI PUSH1 0x20 CALLDATASIZE PUSH1 0x3 NOT ADD SLT PUSH2 0x188 JUMPI PUSH1 0x4 CALLDATALOAD PUSH2 0xEE7 PUSH2 0x2D27 JUMP JUMPDEST POP DUP1 ISZERO ISZERO DUP1 PUSH2 0xFA4 JUMPI JUMPDEST PUSH2 0xEFA SWAP1 PUSH2 0x2B0C JUMP JUMPDEST PUSH1 0x0 MSTORE PUSH1 0x4 PUSH1 0x20 MSTORE PUSH2 0xE0D PUSH1 0x40 PUSH1 0x0 KECCAK256 PUSH1 0xFF PUSH1 0x6 PUSH1 0x40 MLOAD SWAP3 PUSH2 0xF1B DUP5 PUSH2 0x2818 JUMP JUMPDEST DUP1 SLOAD DUP5 MSTORE PUSH1 0x1 DUP2 ADD SLOAD PUSH1 0x1 PUSH1 0x1 PUSH1 0xA0 SHL SUB AND PUSH1 0x20 DUP6 ADD MSTORE PUSH1 0x40 MLOAD PUSH2 0xF46 DUP2 PUSH2 0xDF2 DUP2 PUSH1 0x2 DUP7 ADD PUSH2 0x2931 JUMP JUMPDEST PUSH1 0x40 DUP6 ADD MSTORE PUSH1 0x40 MLOAD PUSH2 0xF5F DUP2 PUSH2 0xDF2 DUP2 PUSH1 0x3 DUP7 ADD PUSH2 0x2931 JUMP JUMPDEST PUSH1 0x60 DUP6 ADD MSTORE PUSH1 0x40 MLOAD PUSH2 0xF78 DUP2 PUSH2 0xDF2 DUP2 PUSH1 0x4 DUP7 ADD PUSH2 0x2931 JUMP JUMPDEST PUSH1 0x80 DUP6 ADD MSTORE PUSH1 0x5 DUP2 ADD SLOAD PUSH1 0xA0 DUP6 ADD MSTORE ADD SLOAD AND PUSH2 0xF93 DUP2 PUSH2 0x29B4 JUMP JUMPDEST PUSH1 0xC0 DUP3 ADD MSTORE PUSH1 0x40 MLOAD SWAP2 DUP3 SWAP2 DUP3 PUSH2 0x29D4 JUMP JUMPDEST POP PUSH1 0x0 SLOAD DUP2 LT PUSH2 0xEF1 JUMP JUMPDEST CALLVALUE PUSH2 0x188 JUMPI PUSH1 0x20 CALLDATASIZE PUSH1 0x3 NOT ADD SLT PUSH2 0x188 JUMPI PUSH2 0xFC8 PUSH2 0x27CB JUMP JUMPDEST PUSH2 0xFD0 PUSH2 0x2D27 JUMP JUMPDEST POP PUSH1 0x1 PUSH1 0x1 PUSH1 0xA0 SHL SUB AND PUSH1 0x0 SWAP1 DUP2 MSTORE PUSH1 0x3 PUSH1 0x20 MSTORE PUSH1 0x40 SWAP1 KECCAK256 SLOAD PUSH2 0xEFA DUP2 ISZERO ISZERO PUSH2 0x2B0C JUMP JUMPDEST CALLVALUE PUSH2 0x188 JUMPI PUSH1 0x40 CALLDATASIZE PUSH1 0x3 NOT ADD SLT PUSH2 0x188 JUMPI PUSH1 0x4 CALLDATALOAD PUSH1 0x24 CALLDATALOAD PUSH1 0x1 PUSH1 0x1 PUSH1 0x40 SHL SUB DUP2 GT PUSH2 0x188 JUMPI PUSH2 0x1027 SWAP1 CALLDATASIZE SWAP1 PUSH1 0x4 ADD PUSH2 0x289A JUMP JUMPDEST SWAP1 CALLER PUSH1 0x0 MSTORE PUSH1 0x6 PUSH1 0x20 MSTORE PUSH1 0xFF PUSH1 0x40 PUSH1 0x0 KECCAK256 SLOAD AND DUP1 ISZERO PUSH2 0x1197 JUMPI JUMPDEST PUSH2 0x104A SWAP1 PUSH2 0x2B49 JUMP JUMPDEST DUP1 PUSH1 0x0 MSTORE PUSH1 0x5 PUSH1 0x20 MSTORE PUSH2 0x1064 PUSH1 0x2 PUSH1 0x40 PUSH1 0x0 KECCAK256 ADD SLOAD PUSH2 0x28F7 JUMP JUMPDEST ISZERO PUSH2 0x115D JUMPI DUP1 PUSH1 0x0 MSTORE PUSH1 0x9 PUSH1 0x20 MSTORE PUSH2 0x1080 PUSH1 0x40 PUSH1 0x0 KECCAK256 SLOAD PUSH2 0x28F7 JUMP JUMPDEST PUSH2 0x1126 JUMPI PUSH1 0x0 MSTORE PUSH1 0x9 PUSH1 0x20 MSTORE PUSH1 0x40 PUSH1 0x0 KECCAK256 DUP2 MLOAD PUSH1 0x1 PUSH1 0x1 PUSH1 0x40 SHL SUB DUP2 GT PUSH2 0x2FE JUMPI PUSH2 0x10AF DUP2 PUSH2 0x257 DUP5 SLOAD PUSH2 0x28F7 JUMP JUMPDEST PUSH1 0x20 SWAP3 PUSH1 0x1F DUP3 GT PUSH1 0x1 EQ PUSH2 0x10E0 JUMPI PUSH2 0x28F SWAP3 SWAP4 DUP3 SWAP2 PUSH1 0x0 SWAP3 PUSH2 0x293 JUMPI POP POP DUP2 PUSH1 0x1 SHL SWAP2 PUSH1 0x0 NOT SWAP1 PUSH1 0x3 SHL SHR NOT AND OR SWAP1 JUMP JUMPDEST PUSH1 0x1F NOT DUP3 AND SWAP4 DUP4 PUSH1 0x0 MSTORE DUP1 PUSH1 0x0 KECCAK256 SWAP2 PUSH1 0x0 JUMPDEST DUP7 DUP2 LT PUSH2 0x110E JUMPI POP DUP4 PUSH1 0x1 SWAP6 SWAP7 LT PUSH2 0x2CD JUMPI POP POP POP DUP2 SHL ADD SWAP1 SSTORE STOP JUMPDEST SWAP2 SWAP3 PUSH1 0x20 PUSH1 0x1 DUP2 SWAP3 DUP7 DUP6 ADD MLOAD DUP2 SSTORE ADD SWAP5 ADD SWAP3 ADD PUSH2 0x10F2 JUMP JUMPDEST PUSH1 0x40 MLOAD PUSH3 0x461BCD PUSH1 0xE5 SHL DUP2 MSTORE PUSH1 0x20 PUSH1 0x4 DUP3 ADD MSTORE PUSH1 0xF PUSH1 0x24 DUP3 ADD MSTORE PUSH15 0x10D25108185B1C9958591E481CD95D PUSH1 0x8A SHL PUSH1 0x44 DUP3 ADD MSTORE PUSH1 0x64 SWAP1 REVERT JUMPDEST PUSH1 0x40 MLOAD PUSH3 0x461BCD PUSH1 0xE5 SHL DUP2 MSTORE PUSH1 0x20 PUSH1 0x4 DUP3 ADD MSTORE PUSH1 0x12 PUSH1 0x24 DUP3 ADD MSTORE PUSH18 0x111BD8DD5B595B9D081B9BDD08199BDD5B99 PUSH1 0x72 SHL PUSH1 0x44 DUP3 ADD MSTORE PUSH1 0x64 SWAP1 REVERT JUMPDEST POP PUSH1 0x2 SLOAD PUSH1 0x1 PUSH1 0x1 PUSH1 0xA0 SHL SUB AND CALLER EQ PUSH2 0x1041 JUMP JUMPDEST CALLVALUE PUSH2 0x188 JUMPI PUSH1 0x40 CALLDATASIZE PUSH1 0x3 NOT ADD SLT PUSH2 0x188 JUMPI PUSH1 0x4 CALLDATALOAD PUSH1 0x24 CALLDATALOAD PUSH1 0x2 DUP2 LT ISZERO PUSH2 0x188 JUMPI CALLER PUSH1 0x0 MSTORE PUSH1 0x6 PUSH1 0x20 MSTORE PUSH1 0xFF PUSH1 0x40 PUSH1 0x0 KECCAK256 SLOAD AND DUP1 ISZERO PUSH2 0x1284 JUMPI JUMPDEST PUSH2 0x11ED SWAP1 PUSH2 0x2B49 JUMP JUMPDEST DUP2 PUSH1 0x0 MSTORE PUSH1 0x4 PUSH1 0x20 MSTORE PUSH1 0x40 PUSH1 0x0 KECCAK256 SLOAD ISZERO PUSH2 0x1250 JUMPI PUSH1 0x20 PUSH32 0x3637553F014EAD9F514EE7C99DB3ECBF14C351D6D5822CFE5625B965B0FADF3E SWAP2 DUP4 PUSH1 0x0 MSTORE PUSH1 0x4 DUP3 MSTORE PUSH2 0x123E DUP2 PUSH1 0x6 PUSH1 0x40 PUSH1 0x0 KECCAK256 ADD PUSH2 0x2D0F JUMP JUMPDEST PUSH1 0x40 MLOAD SWAP1 PUSH2 0x124B DUP2 PUSH2 0x29B4 JUMP JUMPDEST DUP2 MSTORE LOG2 STOP JUMPDEST PUSH1 0x40 MLOAD PUSH3 0x461BCD PUSH1 0xE5 SHL DUP2 MSTORE PUSH1 0x20 PUSH1 0x4 DUP3 ADD MSTORE PUSH1 0xC PUSH1 0x24 DUP3 ADD MSTORE PUSH12 0x24B73B30B634B2103AB9B2B9 PUSH1 0xA1 SHL PUSH1 0x44 DUP3 ADD MSTORE PUSH1 0x64 SWAP1 REVERT JUMPDEST POP PUSH1 0x2 SLOAD PUSH1 0x1 PUSH1 0x1 PUSH1 0xA0 SHL SUB AND CALLER EQ PUSH2 0x11E4 JUMP JUMPDEST PUSH1 0x20 CALLDATASIZE PUSH1 0x3 NOT ADD SLT PUSH2 0x188 JUMPI PUSH1 0x4 CALLDATALOAD CALLER PUSH1 0x0 MSTORE PUSH1 0x3 PUSH1 0x20 MSTORE PUSH1 0x40 PUSH1 0x0 KECCAK256 SLOAD PUSH2 0x12C1 DUP2 ISZERO ISZERO PUSH2 0x2BF8 JUMP JUMPDEST PUSH1 0x0 MSTORE PUSH1 0x4 PUSH1 0x20 MSTORE PUSH2 0x12E1 PUSH1 0xFF PUSH1 0x6 PUSH1 0x40 PUSH1 0x0 KECCAK256 ADD SLOAD AND PUSH2 0x1E0 DUP2 PUSH2 0x29B4 JUMP JUMPDEST DUP1 PUSH1 0x0 MSTORE PUSH1 0x5 PUSH1 0x20 MSTORE PUSH1 0x40 PUSH1 0x0 KECCAK256 SWAP1 PUSH1 0xFF PUSH1 0xE DUP4 ADD SLOAD AND PUSH2 0x1301 DUP2 PUSH2 0x29B4 JUMP JUMPDEST PUSH2 0x14D9 JUMPI PUSH1 0x8 DUP3 ADD SLOAD CALLVALUE LT PUSH2 0x149D JUMPI CALLER PUSH1 0x0 MSTORE PUSH1 0x3 PUSH1 0x20 MSTORE PUSH1 0x40 PUSH1 0x0 KECCAK256 SLOAD SWAP2 PUSH1 0xC DUP2 ADD SLOAD DUP4 PUSH1 0x0 MSTORE PUSH1 0x7 PUSH1 0x20 MSTORE PUSH1 0x40 PUSH1 0x0 KECCAK256 PUSH1 0x0 SWAP1 DUP1 SLOAD SWAP2 JUMPDEST DUP3 DUP2 LT PUSH2 0x144A JUMPI POP POP POP DUP4 PUSH1 0x0 MSTORE PUSH1 0x7 PUSH1 0x20 MSTORE PUSH1 0x40 PUSH1 0x0 KECCAK256 PUSH1 0x40 MLOAD PUSH2 0x135E DUP2 PUSH2 0x27E1 JUMP JUMPDEST DUP5 DUP2 MSTORE TIMESTAMP PUSH1 0x20 DUP3 ADD MSTORE DUP2 SLOAD SWAP2 PUSH1 0x1 PUSH1 0x40 SHL DUP4 LT ISZERO PUSH2 0x2FE JUMPI DUP3 PUSH2 0x1389 SWAP2 PUSH1 0x1 PUSH2 0x138F SWAP6 ADD DUP2 SSTORE PUSH2 0x2A71 JUMP JUMPDEST SWAP1 PUSH2 0x2CAB JUMP JUMPDEST PUSH1 0xA CALLVALUE MUL CALLVALUE DUP2 DIV PUSH1 0xA EQ CALLVALUE ISZERO OR ISZERO PUSH2 0x141F JUMPI PUSH1 0x64 SWAP1 DIV DUP1 CALLVALUE SUB SWAP1 CALLVALUE DUP3 GT PUSH2 0x141F JUMPI PUSH1 0x0 SWAP3 DUP4 MSTORE PUSH1 0x4 PUSH1 0x20 MSTORE PUSH1 0x40 DUP4 KECCAK256 PUSH1 0x1 ADD SLOAD DUP4 SWAP3 DUP4 SWAP3 DUP4 SWAP3 PUSH1 0x1 PUSH1 0x1 PUSH1 0xA0 SHL SUB AND SWAP1 DUP4 SWAP1 CALLVALUE EQ PUSH2 0x1441 JUMPI JUMPDEST CALL ISZERO PUSH2 0x1435 JUMPI PUSH1 0x9 ADD DUP1 SLOAD SWAP1 PUSH1 0x1 DUP3 ADD DUP1 SWAP3 GT PUSH2 0x141F JUMPI SSTORE PUSH32 0x66B024B18CF8FF1018AD9D6C8CD7D09697108266D2FFE7565A8E64421E954B1F PUSH1 0x20 PUSH1 0x40 MLOAD TIMESTAMP DUP2 MSTORE LOG3 STOP JUMPDEST PUSH4 0x4E487B71 PUSH1 0xE0 SHL PUSH1 0x0 MSTORE PUSH1 0x11 PUSH1 0x4 MSTORE PUSH1 0x24 PUSH1 0x0 REVERT JUMPDEST PUSH1 0x40 MLOAD RETURNDATASIZE PUSH1 0x0 DUP3 RETURNDATACOPY RETURNDATASIZE SWAP1 REVERT JUMPDEST POP PUSH2 0x8FC PUSH2 0x13DB JUMP JUMPDEST DUP6 PUSH2 0x1455 DUP3 DUP5 PUSH2 0x2A71 JUMP JUMPDEST POP SLOAD EQ PUSH2 0x1464 JUMPI PUSH1 0x1 ADD PUSH2 0x133A JUMP JUMPDEST PUSH1 0x40 MLOAD PUSH3 0x461BCD PUSH1 0xE5 SHL DUP2 MSTORE PUSH1 0x20 PUSH1 0x4 DUP3 ADD MSTORE PUSH1 0x11 PUSH1 0x24 DUP3 ADD MSTORE PUSH17 0x105B1C9958591E481C1D5C98DA185CD959 PUSH1 0x7A SHL PUSH1 0x44 DUP3 ADD MSTORE PUSH1 0x64 SWAP1 REVERT JUMPDEST PUSH1 0x40 MLOAD PUSH3 0x461BCD PUSH1 0xE5 SHL DUP2 MSTORE PUSH1 0x20 PUSH1 0x4 DUP3 ADD MSTORE PUSH1 0x14 PUSH1 0x24 DUP3 ADD MSTORE PUSH20 0x125B9CDD59999A58DA595B9D081C185E5B595B9D PUSH1 0x62 SHL PUSH1 0x44 DUP3 ADD MSTORE PUSH1 0x64 SWAP1 REVERT JUMPDEST PUSH1 0x40 MLOAD PUSH3 0x461BCD PUSH1 0xE5 SHL DUP2 MSTORE PUSH1 0x20 PUSH1 0x4 DUP3 ADD MSTORE PUSH1 0x11 PUSH1 0x24 DUP3 ADD MSTORE PUSH17 0x446F63756D656E7420696E616374697665 PUSH1 0x78 SHL PUSH1 0x44 DUP3 ADD MSTORE PUSH1 0x64 SWAP1 REVERT JUMPDEST CALLVALUE PUSH2 0x188 JUMPI PUSH1 0x20 CALLDATASIZE PUSH1 0x3 NOT ADD SLT PUSH2 0x188 JUMPI PUSH1 0x0 PUSH2 0x1C0 PUSH1 0x40 MLOAD PUSH2 0x1534 DUP2 PUSH2 0x27FC JUMP JUMPDEST DUP3 DUP2 MSTORE PUSH1 0x60 PUSH1 0x20 DUP3 ADD MSTORE PUSH1 0x60 PUSH1 0x40 DUP3 ADD MSTORE PUSH1 0x60 DUP1 DUP3 ADD MSTORE PUSH1 0x60 PUSH1 0x80 DUP3 ADD MSTORE PUSH1 0x60 PUSH1 0xA0 DUP3 ADD MSTORE PUSH1 0x60 PUSH1 0xC0 DUP3 ADD MSTORE PUSH1 0x60 PUSH1 0xE0 DUP3 ADD MSTORE DUP3 PUSH2 0x100 DUP3 ADD MSTORE DUP3 PUSH2 0x120 DUP3 ADD MSTORE DUP3 PUSH2 0x140 DUP3 ADD MSTORE DUP3 PUSH2 0x160 DUP3 ADD MSTORE DUP3 PUSH2 0x180 DUP3 ADD MSTORE DUP3 PUSH2 0x1A0 DUP3 ADD MSTORE ADD MSTORE PUSH1 0x4 CALLDATALOAD PUSH1 0x0 MSTORE PUSH1 0x5 PUSH1 0x20 MSTORE PUSH1 0x40 PUSH1 0x0 KECCAK256 PUSH1 0x40 MLOAD SWAP1 PUSH2 0x15B0 DUP3 PUSH2 0x27FC JUMP JUMPDEST DUP1 SLOAD DUP3 MSTORE PUSH1 0x40 MLOAD SWAP2 PUSH2 0x15D0 DUP4 PUSH2 0x15C9 DUP2 PUSH1 0x1 DUP7 ADD PUSH2 0x2931 JUMP JUMPDEST SUB DUP5 PUSH2 0x2833 JUMP JUMPDEST PUSH1 0x20 DUP2 ADD SWAP3 DUP4 MSTORE PUSH1 0x40 MLOAD PUSH2 0x15EB DUP2 PUSH2 0xDF2 DUP2 PUSH1 0x2 DUP8 ADD PUSH2 0x2931 JUMP JUMPDEST PUSH1 0x40 DUP3 ADD SWAP1 DUP2 MSTORE PUSH1 0x40 MLOAD SWAP3 PUSH2 0x160E DUP5 PUSH2 0x1607 DUP2 PUSH1 0x3 DUP6 ADD PUSH2 0x2931 JUMP JUMPDEST SUB DUP6 PUSH2 0x2833 JUMP JUMPDEST PUSH1 0x60 DUP4 ADD SWAP4 DUP5 MSTORE PUSH1 0x40 MLOAD SWAP5 PUSH2 0x1631 DUP7 PUSH2 0x162A DUP2 PUSH1 0x4 DUP7 ADD PUSH2 0x2931 JUMP JUMPDEST SUB DUP8 PUSH2 0x2833 JUMP JUMPDEST PUSH1 0x80 DUP5 ADD SWAP6 DUP7 MSTORE PUSH1 0x40 MLOAD SWAP3 PUSH2 0x164D DUP5 PUSH2 0x1607 DUP2 PUSH1 0x5 DUP8 ADD PUSH2 0x2931 JUMP JUMPDEST PUSH1 0xA0 DUP6 ADD SWAP4 DUP5 MSTORE PUSH1 0x40 MLOAD SWAP6 PUSH2 0x1670 DUP8 PUSH2 0x1669 DUP2 PUSH1 0x6 DUP9 ADD PUSH2 0x2931 JUMP JUMPDEST SUB DUP9 PUSH2 0x2833 JUMP JUMPDEST PUSH1 0xC0 DUP7 ADD SWAP7 DUP8 MSTORE PUSH1 0x7 DUP5 ADD SWAP8 DUP9 SLOAD SWAP8 PUSH2 0x1688 DUP10 PUSH2 0x2CF8 JUMP JUMPDEST SWAP9 PUSH2 0x1696 PUSH1 0x40 MLOAD SWAP11 DUP12 PUSH2 0x2833 JUMP JUMPDEST DUP1 DUP11 MSTORE PUSH1 0x20 DUP11 ADD SWAP11 PUSH1 0x0 MSTORE PUSH1 0x20 PUSH1 0x0 KECCAK256 SWAP11 PUSH1 0x0 SWAP1 JUMPDEST DUP3 DUP3 LT PUSH2 0x1872 JUMPI POP POP POP DUP8 SWAP9 SWAP10 POP PUSH1 0xE0 DUP9 SWAP8 SWAP9 ADD SWAP10 DUP11 MSTORE PUSH1 0x8 DUP7 ADD SLOAD SWAP8 PUSH2 0x100 DUP9 ADD SWAP9 DUP10 MSTORE PUSH1 0x9 DUP8 ADD SLOAD SWAP3 PUSH2 0x120 DUP10 ADD SWAP4 DUP5 MSTORE PUSH1 0xA DUP9 ADD SLOAD SWAP5 PUSH2 0x140 DUP11 ADD SWAP6 DUP7 MSTORE PUSH1 0xB DUP10 ADD SLOAD SWAP7 PUSH2 0x160 DUP12 ADD SWAP8 DUP9 MSTORE PUSH1 0xC DUP11 ADD SLOAD SWAP9 PUSH2 0x180 DUP13 ADD SWAP10 DUP11 MSTORE PUSH1 0xD DUP12 ADD SLOAD SWAP11 PUSH2 0x1A0 DUP14 ADD SWAP12 DUP13 MSTORE PUSH1 0xE ADD SLOAD PUSH1 0xFF AND SWAP12 PUSH2 0x1C0 ADD SWAP12 PUSH2 0x172C DUP2 PUSH2 0x29B4 JUMP JUMPDEST DUP13 MSTORE PUSH1 0x40 MLOAD DUP1 SWAP15 PUSH1 0x20 DUP3 MSTORE MLOAD SWAP1 PUSH1 0x20 ADD MSTORE MLOAD DUP14 PUSH1 0x40 DUP2 ADD PUSH2 0x1E0 SWAP1 MSTORE PUSH2 0x200 ADD PUSH2 0x1755 SWAP2 PUSH2 0x278A JUMP JUMPDEST SWAP1 MLOAD DUP14 DUP3 SUB PUSH1 0x1F NOT ADD PUSH1 0x60 DUP16 ADD MSTORE PUSH2 0x176D SWAP2 SWAP1 PUSH2 0x278A JUMP JUMPDEST SWAP1 MLOAD DUP13 DUP3 SUB PUSH1 0x1F NOT ADD PUSH1 0x80 DUP15 ADD MSTORE PUSH2 0x1785 SWAP2 SWAP1 PUSH2 0x278A JUMP JUMPDEST SWAP1 MLOAD DUP12 DUP3 SUB PUSH1 0x1F NOT ADD PUSH1 0xA0 DUP14 ADD MSTORE PUSH2 0x179D SWAP2 SWAP1 PUSH2 0x278A JUMP JUMPDEST SWAP1 MLOAD DUP11 DUP3 SUB PUSH1 0x1F NOT ADD PUSH1 0xC0 DUP13 ADD MSTORE PUSH2 0x17B5 SWAP2 SWAP1 PUSH2 0x278A JUMP JUMPDEST SWAP1 MLOAD DUP10 DUP3 SUB PUSH1 0x1F NOT ADD PUSH1 0xE0 DUP12 ADD MSTORE PUSH2 0x17CD SWAP2 SWAP1 PUSH2 0x278A JUMP JUMPDEST SWAP9 MLOAD SWAP7 PUSH1 0x1F NOT DUP10 DUP12 SUB ADD PUSH2 0x100 DUP11 ADD MSTORE DUP8 MLOAD DUP1 DUP12 MSTORE PUSH1 0x20 DUP12 ADD SWAP1 DUP1 PUSH1 0x5 SHL DUP13 ADD PUSH1 0x20 ADD SWAP10 PUSH1 0x20 ADD SWAP2 PUSH1 0x0 SWAP1 JUMPDEST DUP3 DUP3 LT PUSH2 0x1845 JUMPI POP POP POP POP DUP9 SWAP10 POP MLOAD PUSH2 0x120 DUP10 ADD MSTORE MLOAD PUSH2 0x140 DUP9 ADD MSTORE MLOAD PUSH2 0x160 DUP8 ADD MSTORE MLOAD PUSH2 0x180 DUP7 ADD MSTORE MLOAD PUSH2 0x1A0 DUP6 ADD MSTORE MLOAD PUSH2 0x1C0 DUP5 ADD MSTORE MLOAD PUSH2 0x183B DUP2 PUSH2 0x29B4 JUMP JUMPDEST PUSH2 0x1E0 DUP4 ADD MSTORE SUB SWAP1 RETURN JUMPDEST SWAP1 SWAP2 SWAP3 SWAP11 PUSH1 0x20 DUP1 DUP16 PUSH1 0x1 SWAP4 DUP16 PUSH2 0x1864 SWAP3 PUSH1 0x1F NOT SWAP1 DUP4 SUB ADD DUP8 MSTORE MLOAD PUSH2 0x278A JUMP JUMPDEST SWAP14 ADD SWAP3 ADD SWAP3 ADD SWAP1 SWAP3 SWAP2 PUSH2 0x17F9 JUMP JUMPDEST PUSH1 0x1 PUSH1 0x20 DUP2 SWAP3 DUP16 PUSH2 0x188C PUSH2 0xDF2 SWAP2 PUSH1 0x40 MLOAD SWAP3 DUP4 DUP1 SWAP3 PUSH2 0x2931 JUMP JUMPDEST DUP2 MSTORE ADD SWAP14 ADD SWAP2 ADD SWAP1 SWAP12 PUSH2 0x16AB JUMP JUMPDEST CALLVALUE PUSH2 0x188 JUMPI PUSH1 0x20 CALLDATASIZE PUSH1 0x3 NOT ADD SLT PUSH2 0x188 JUMPI PUSH1 0x4 CALLDATALOAD PUSH1 0x0 MSTORE PUSH1 0x4 PUSH1 0x20 MSTORE PUSH1 0x40 PUSH1 0x0 KECCAK256 DUP1 SLOAD PUSH1 0x1 DUP1 PUSH1 0xA0 SHL SUB PUSH1 0x1 DUP4 ADD SLOAD AND SWAP2 PUSH1 0x40 MLOAD PUSH2 0x18DF DUP2 PUSH2 0xDF2 DUP2 PUSH1 0x2 DUP7 ADD PUSH2 0x2931 JUMP JUMPDEST PUSH2 0x1959 PUSH1 0x40 MLOAD PUSH2 0x18F6 DUP2 PUSH2 0xDF2 DUP2 PUSH1 0x3 DUP9 ADD PUSH2 0x2931 JUMP JUMPDEST PUSH2 0x194B PUSH1 0x40 MLOAD SWAP2 PUSH2 0x190E DUP4 PUSH2 0x15C9 DUP2 PUSH1 0x4 DUP11 ADD PUSH2 0x2931 JUMP JUMPDEST PUSH2 0x193D PUSH1 0xFF PUSH1 0x6 PUSH1 0x5 DUP10 ADD SLOAD SWAP9 ADD SLOAD AND SWAP6 PUSH1 0x40 MLOAD SWAP10 DUP11 SWAP10 DUP11 MSTORE PUSH1 0x20 DUP11 ADD MSTORE PUSH1 0xE0 PUSH1 0x40 DUP11 ADD MSTORE PUSH1 0xE0 DUP10 ADD SWAP1 PUSH2 0x278A JUMP JUMPDEST SWAP1 DUP8 DUP3 SUB PUSH1 0x60 DUP10 ADD MSTORE PUSH2 0x278A JUMP JUMPDEST SWAP1 DUP6 DUP3 SUB PUSH1 0x80 DUP8 ADD MSTORE PUSH2 0x278A JUMP JUMPDEST SWAP2 PUSH1 0xA0 DUP5 ADD MSTORE PUSH2 0x1968 DUP2 PUSH2 0x29B4 JUMP JUMPDEST PUSH1 0xC0 DUP4 ADD MSTORE SUB SWAP1 RETURN JUMPDEST CALLVALUE PUSH2 0x188 JUMPI PUSH1 0x20 CALLDATASIZE PUSH1 0x3 NOT ADD SLT PUSH2 0x188 JUMPI PUSH1 0x4 CALLDATALOAD PUSH1 0xC0 MSTORE PUSH1 0x1 PUSH1 0x1 PUSH1 0x40 SHL SUB PUSH1 0xC0 MLOAD GT PUSH2 0x188 JUMPI PUSH2 0x120 PUSH1 0x3 NOT PUSH1 0xC0 MLOAD CALLDATASIZE SUB ADD SLT PUSH2 0x188 JUMPI CALLER PUSH1 0x0 MSTORE PUSH1 0x6 PUSH1 0x20 MSTORE PUSH1 0xFF PUSH1 0x40 PUSH1 0x0 KECCAK256 SLOAD AND DUP1 ISZERO PUSH2 0x24B1 JUMPI JUMPDEST PUSH2 0x19CB SWAP1 PUSH2 0x2B49 JUMP JUMPDEST PUSH1 0xC0 MLOAD PUSH2 0x104 ADD PUSH1 0x1 PUSH1 0x1 PUSH1 0xA0 SHL SUB PUSH2 0x19E3 DUP3 PUSH2 0x2BE4 JUMP JUMPDEST AND PUSH1 0x0 MSTORE PUSH1 0x3 PUSH1 0x20 MSTORE PUSH1 0x40 PUSH1 0x0 KECCAK256 SLOAD PUSH2 0x19FD DUP2 ISZERO ISZERO PUSH2 0x2BF8 JUMP JUMPDEST PUSH1 0x0 MSTORE PUSH1 0x4 PUSH1 0x20 MSTORE PUSH2 0x1A1D PUSH1 0xFF PUSH1 0x6 PUSH1 0x40 PUSH1 0x0 KECCAK256 ADD SLOAD AND PUSH2 0x1E0 DUP2 PUSH2 0x29B4 JUMP JUMPDEST PUSH1 0x1 PUSH1 0x1 PUSH1 0xA0 SHL SUB SWAP1 PUSH2 0x1A2F SWAP1 PUSH2 0x2BE4 JUMP JUMPDEST AND PUSH1 0x0 MSTORE PUSH1 0x3 PUSH1 0x20 MSTORE PUSH1 0x40 PUSH1 0x0 KECCAK256 SLOAD PUSH2 0x160 MSTORE PUSH1 0x1 SLOAD PUSH2 0x140 MSTORE PUSH2 0x1A55 PUSH2 0x140 MLOAD PUSH2 0x2C35 JUMP JUMPDEST PUSH1 0x1 SSTORE PUSH2 0x140 MLOAD PUSH1 0x0 DUP2 DUP2 MSTORE PUSH1 0x5 PUSH1 0x20 MSTORE PUSH1 0x40 SWAP1 KECCAK256 SWAP1 DUP2 SSTORE PUSH1 0xC0 MLOAD PUSH2 0x1A7D SWAP1 PUSH1 0x4 ADD DUP1 PUSH2 0x2C44 JUMP JUMPDEST PUSH1 0x1 DUP4 SWAP3 SWAP4 ADD SWAP1 PUSH1 0x1 PUSH1 0x1 PUSH1 0x40 SHL SUB DUP2 GT PUSH2 0x2FE JUMPI PUSH2 0x1AA0 DUP2 PUSH2 0x257 DUP5 SLOAD PUSH2 0x28F7 JUMP JUMPDEST PUSH1 0x0 PUSH1 0x1F DUP3 GT PUSH1 0x1 EQ PUSH2 0x244E JUMPI DUP2 SWAP1 PUSH2 0x1AD1 SWAP4 SWAP5 SWAP6 PUSH1 0x0 SWAP3 PUSH2 0x2443 JUMPI POP POP DUP2 PUSH1 0x1 SHL SWAP2 PUSH1 0x0 NOT SWAP1 PUSH1 0x3 SHL SHR NOT AND OR SWAP1 JUMP JUMPDEST SWAP1 SSTORE JUMPDEST PUSH1 0x24 PUSH1 0xC0 MLOAD ADD SWAP1 PUSH2 0x1AEA DUP3 PUSH1 0xC0 MLOAD PUSH1 0x4 ADD PUSH2 0x2C44 JUMP JUMPDEST PUSH1 0x2 DUP4 SWAP5 SWAP3 SWAP5 ADD SWAP1 PUSH1 0x1 PUSH1 0x1 PUSH1 0x40 SHL SUB DUP2 GT PUSH2 0x2FE JUMPI PUSH2 0x1B0E DUP2 PUSH2 0x257 DUP5 SLOAD PUSH2 0x28F7 JUMP JUMPDEST PUSH1 0x0 PUSH1 0x1F DUP3 GT PUSH1 0x1 EQ PUSH2 0x23DF JUMPI DUP2 SWAP1 PUSH2 0x1B40 SWAP4 SWAP5 SWAP6 SWAP7 PUSH1 0x0 SWAP3 PUSH2 0x23D4 JUMPI POP POP DUP2 PUSH1 0x1 SHL SWAP2 PUSH1 0x0 NOT SWAP1 PUSH1 0x3 SHL SHR NOT AND OR SWAP1 JUMP JUMPDEST SWAP1 SSTORE JUMPDEST PUSH1 0x44 PUSH1 0xC0 MLOAD ADD SWAP1 PUSH2 0x1B59 DUP3 PUSH1 0xC0 MLOAD PUSH1 0x4 ADD PUSH2 0x2C44 JUMP JUMPDEST PUSH1 0x3 DUP6 ADD SWAP2 PUSH1 0x1 PUSH1 0x1 PUSH1 0x40 SHL SUB DUP3 GT PUSH2 0x2FE JUMPI PUSH2 0x1B7A DUP3 PUSH2 0x8ED DUP6 SLOAD PUSH2 0x28F7 JUMP JUMPDEST PUSH1 0x0 SWAP1 PUSH1 0x1F DUP4 GT PUSH1 0x1 EQ PUSH2 0x2370 JUMPI PUSH2 0x1BAA SWAP3 SWAP2 PUSH1 0x0 SWAP2 DUP4 PUSH2 0x2365 JUMPI POP POP DUP2 PUSH1 0x1 SHL SWAP2 PUSH1 0x0 NOT SWAP1 PUSH1 0x3 SHL SHR NOT AND OR SWAP1 JUMP JUMPDEST SWAP1 SSTORE JUMPDEST PUSH1 0x64 PUSH1 0xC0 MLOAD ADD PUSH2 0x1BC2 DUP2 PUSH1 0xC0 MLOAD PUSH1 0x4 ADD PUSH2 0x2C44 JUMP JUMPDEST PUSH1 0x4 DUP7 ADD SWAP2 PUSH1 0x1 PUSH1 0x1 PUSH1 0x40 SHL SUB DUP3 GT PUSH2 0x2FE JUMPI PUSH2 0x1BE3 DUP3 PUSH2 0x8ED DUP6 SLOAD PUSH2 0x28F7 JUMP JUMPDEST PUSH1 0x0 SWAP1 PUSH1 0x1F DUP4 GT PUSH1 0x1 EQ PUSH2 0x2301 JUMPI PUSH2 0x1C13 SWAP3 SWAP2 PUSH1 0x0 SWAP2 DUP4 PUSH2 0x22F6 JUMPI POP POP DUP2 PUSH1 0x1 SHL SWAP2 PUSH1 0x0 NOT SWAP1 PUSH1 0x3 SHL SHR NOT AND OR SWAP1 JUMP JUMPDEST SWAP1 SSTORE JUMPDEST PUSH1 0x84 PUSH1 0xC0 MLOAD ADD SWAP3 PUSH2 0x1C2C DUP5 PUSH1 0xC0 MLOAD PUSH1 0x4 ADD PUSH2 0x2C44 JUMP JUMPDEST PUSH1 0x5 DUP8 ADD SWAP2 PUSH1 0x1 PUSH1 0x1 PUSH1 0x40 SHL SUB DUP3 GT PUSH2 0x2FE JUMPI PUSH2 0x1C4D DUP3 PUSH2 0x8ED DUP6 SLOAD PUSH2 0x28F7 JUMP JUMPDEST PUSH1 0x0 SWAP1 PUSH1 0x1F DUP4 GT PUSH1 0x1 EQ PUSH2 0x2292 JUMPI PUSH2 0x1C7D SWAP3 SWAP2 PUSH1 0x0 SWAP2 DUP4 PUSH2 0x2287 JUMPI POP POP DUP2 PUSH1 0x1 SHL SWAP2 PUSH1 0x0 NOT SWAP1 PUSH1 0x3 SHL SHR NOT AND OR SWAP1 JUMP JUMPDEST SWAP1 SSTORE JUMPDEST PUSH1 0xA4 PUSH1 0xC0 MLOAD ADD SWAP1 PUSH2 0x1C96 DUP3 PUSH1 0xC0 MLOAD PUSH1 0x4 ADD PUSH2 0x2C44 JUMP JUMPDEST PUSH1 0x6 DUP9 ADD SWAP2 PUSH1 0x1 PUSH1 0x1 PUSH1 0x40 SHL SUB DUP3 GT PUSH2 0x2FE JUMPI PUSH2 0x1CB7 DUP3 PUSH2 0x8ED DUP6 SLOAD PUSH2 0x28F7 JUMP JUMPDEST PUSH1 0x0 SWAP1 PUSH1 0x1F DUP4 GT PUSH1 0x1 EQ PUSH2 0x2223 JUMPI PUSH2 0x1CE7 SWAP3 SWAP2 PUSH1 0x0 SWAP2 DUP4 PUSH2 0x2218 JUMPI POP POP DUP2 PUSH1 0x1 SHL SWAP2 PUSH1 0x0 NOT SWAP1 PUSH1 0x3 SHL SHR NOT AND OR SWAP1 JUMP JUMPDEST SWAP1 SSTORE JUMPDEST PUSH2 0x1CFE PUSH1 0xC4 PUSH1 0xC0 MLOAD ADD PUSH1 0xC0 MLOAD PUSH1 0x4 ADD PUSH2 0x2C76 JUMP JUMPDEST PUSH1 0x7 DUP9 ADD SWAP2 PUSH1 0x1 PUSH1 0x40 SHL DUP3 GT PUSH2 0x2FE JUMPI DUP3 SLOAD DUP3 DUP5 SSTORE DUP1 DUP4 LT PUSH2 0x219A JUMPI JUMPDEST POP PUSH1 0x0 SWAP3 DUP4 MSTORE PUSH1 0x20 DUP4 KECCAK256 SWAP3 SWAP1 DUP1 JUMPDEST DUP4 DUP4 LT PUSH2 0x20B1 JUMPI POP POP POP POP POP PUSH1 0xE4 PUSH1 0xC0 MLOAD ADD CALLDATALOAD PUSH1 0x8 DUP8 ADD SSTORE PUSH1 0x0 PUSH1 0x9 DUP8 ADD SSTORE PUSH1 0x0 PUSH1 0xA DUP8 ADD SSTORE PUSH1 0x0 PUSH1 0xB DUP8 ADD SSTORE PUSH2 0x160 MLOAD PUSH1 0xC DUP8 ADD SSTORE PUSH1 0xE PUSH1 0xD DUP8 ADD SWAP7 TIMESTAMP DUP9 SSTORE ADD PUSH1 0xFF NOT DUP2 SLOAD AND SWAP1 SSTORE PUSH2 0x160 MLOAD PUSH1 0x0 MSTORE PUSH1 0x8 PUSH1 0x20 MSTORE PUSH1 0x40 PUSH1 0x0 KECCAK256 SWAP2 PUSH1 0x40 MLOAD SWAP5 PUSH2 0x1D91 DUP7 PUSH2 0x27E1 JUMP JUMPDEST PUSH2 0x140 MLOAD DUP7 MSTORE TIMESTAMP PUSH1 0x20 DUP8 ADD MSTORE DUP4 SLOAD SWAP1 PUSH1 0x1 PUSH1 0x40 SHL DUP3 LT ISZERO PUSH2 0x2FE JUMPI PUSH2 0x1E7D PUSH2 0x1DDE PUSH2 0x1E2B SWAP5 PUSH2 0x1DD3 PUSH2 0x1E47 SWAP11 PUSH2 0x1389 DUP8 PUSH2 0x1E39 SWAP12 PUSH1 0x1 PUSH2 0x1E1D SWAP11 ADD DUP2 SSTORE PUSH2 0x2A71 JUMP JUMPDEST PUSH1 0xC0 MLOAD PUSH1 0x4 ADD PUSH2 0x2C44 JUMP JUMPDEST SWAP2 SWAP1 PUSH2 0x1DF4 PUSH1 0xC4 PUSH1 0xC0 MLOAD ADD PUSH1 0xC0 MLOAD PUSH1 0x4 ADD PUSH2 0x2C76 JUMP JUMPDEST PUSH2 0x180 MSTORE SWAP12 SLOAD SWAP3 PUSH2 0x1E0F PUSH1 0xC0 MLOAD PUSH1 0x4 ADD PUSH1 0xC0 MLOAD PUSH1 0x4 ADD PUSH2 0x2C44 JUMP JUMPDEST SWAP7 SWAP1 SWAP6 PUSH1 0xC0 MLOAD PUSH1 0x4 ADD PUSH2 0x2C44 JUMP JUMPDEST SWAP8 SWAP1 SWAP9 PUSH1 0xC0 MLOAD PUSH1 0x4 ADD PUSH2 0x2C44 JUMP JUMPDEST SWAP10 SWAP1 SWAP11 PUSH1 0xC0 MLOAD PUSH1 0x4 ADD PUSH2 0x2C44 JUMP JUMPDEST SWAP12 SWAP1 SWAP13 PUSH1 0xC0 MLOAD PUSH1 0x4 ADD PUSH2 0x2C44 JUMP JUMPDEST PUSH1 0x80 MSTORE PUSH1 0xE0 MSTORE PUSH2 0x160 MLOAD PUSH1 0x0 MSTORE PUSH1 0x4 PUSH1 0x20 MSTORE PUSH1 0x2 PUSH1 0x40 PUSH1 0x0 KECCAK256 ADD PUSH1 0xA0 MSTORE PUSH1 0x40 MLOAD PUSH2 0x120 MSTORE PUSH2 0x120 DUP1 MLOAD MSTORE PUSH2 0x120 DUP1 MLOAD ADD SWAP2 PUSH2 0x2CD7 JUMP JUMPDEST PUSH2 0x120 MLOAD DUP1 DUP3 SUB PUSH1 0x20 SWAP2 DUP3 ADD MSTORE PUSH2 0x180 DUP1 MLOAD DUP4 MSTORE DUP2 DUP4 ADD PUSH2 0x100 MSTORE MLOAD PUSH1 0x5 SHL DUP3 ADD ADD SWAP11 SWAP1 PUSH1 0x0 DUP3 JUMPDEST PUSH2 0x180 MLOAD DUP3 LT PUSH2 0x204E JUMPI POP POP POP POP SWAP3 PUSH2 0x1EE7 PUSH2 0x1F3C SWAP11 PUSH2 0x1EFB SWAP5 PUSH2 0x1F23 SWAP12 SWAP11 SWAP10 SWAP8 SWAP5 PUSH2 0x1F0F SWAP10 SWAP8 PUSH1 0x40 PUSH2 0x120 MLOAD ADD MSTORE PUSH2 0x120 MLOAD DUP4 SUB PUSH1 0x60 PUSH2 0x120 MLOAD ADD MSTORE PUSH2 0x2CD7 JUMP JUMPDEST SWAP2 PUSH2 0x120 MLOAD DUP4 SUB PUSH1 0x80 PUSH2 0x120 MLOAD ADD MSTORE PUSH2 0x2CD7 JUMP JUMPDEST SWAP2 PUSH2 0x120 MLOAD DUP4 SUB PUSH1 0xA0 PUSH2 0x120 MLOAD ADD MSTORE PUSH2 0x2CD7 JUMP JUMPDEST SWAP2 PUSH2 0x120 MLOAD DUP4 SUB PUSH1 0xC0 PUSH2 0x120 MLOAD ADD MSTORE PUSH2 0x2CD7 JUMP JUMPDEST PUSH2 0x120 MLOAD DUP2 SUB PUSH1 0xE0 PUSH2 0x120 MLOAD ADD MSTORE PUSH1 0x80 MLOAD PUSH1 0xE0 MLOAD PUSH2 0x2CD7 JUMP JUMPDEST PUSH2 0x120 MLOAD DUP2 SUB PUSH2 0x100 PUSH2 0x120 MLOAD ADD MSTORE PUSH1 0xE4 PUSH1 0xC0 MLOAD ADD CALLDATALOAD SWAP1 PUSH2 0x160 MLOAD SWAP1 PUSH32 0xA221893F293D11E28C1781225F7EC9A69BB71C23C81D6021F2A30E18D791F022 PUSH2 0x140 MLOAD SWAP2 PUSH2 0x1F8E PUSH2 0x120 MLOAD SWAP2 PUSH1 0xA0 MLOAD PUSH2 0x2931 JUMP JUMPDEST SUB PUSH2 0x120 MLOAD LOG4 PUSH1 0x0 JUMPDEST PUSH2 0x1FAB PUSH1 0xC4 PUSH1 0xC0 MLOAD ADD PUSH1 0xC0 MLOAD PUSH1 0x4 ADD PUSH2 0x2C76 JUMP JUMPDEST SWAP1 POP DUP2 LT ISZERO PUSH2 0x2041 JUMPI PUSH2 0x1FC8 PUSH1 0xC4 PUSH1 0xC0 MLOAD ADD PUSH1 0xC0 MLOAD PUSH1 0x4 ADD PUSH2 0x2C76 JUMP JUMPDEST DUP3 SWAP2 SWAP3 LT ISZERO PUSH2 0x202B JUMPI PUSH2 0x2022 PUSH32 0x7437EEF4E1784CEFA44883B72ABDED61CBC5B4712F361356D107C47F5EB4EB92 PUSH2 0x2007 PUSH1 0x1 SWAP5 DUP5 PUSH1 0x5 SHL DUP2 ADD SWAP1 PUSH2 0x2C44 JUMP JUMPDEST SWAP3 SWAP1 PUSH1 0x40 MLOAD SWAP2 DUP3 SWAP2 PUSH1 0x20 DUP4 MSTORE PUSH2 0x140 MLOAD SWAP6 PUSH1 0x20 DUP5 ADD SWAP2 PUSH2 0x2CD7 JUMP JUMPDEST SUB SWAP1 LOG2 ADD PUSH2 0x1F97 JUMP JUMPDEST PUSH4 0x4E487B71 PUSH1 0xE0 SHL PUSH1 0x0 MSTORE PUSH1 0x32 PUSH1 0x4 MSTORE PUSH1 0x24 PUSH1 0x0 REVERT JUMPDEST PUSH1 0x20 PUSH1 0x40 MLOAD PUSH2 0x140 MLOAD DUP2 MSTORE RETURN JUMPDEST SWAP1 SWAP2 SWAP3 SWAP13 PUSH1 0x1F NOT DUP5 DUP3 SUB ADD PUSH2 0x100 MLOAD MSTORE DUP14 CALLDATALOAD PUSH1 0x1E NOT DUP4 CALLDATASIZE SUB ADD DUP2 SLT ISZERO PUSH2 0x188 JUMPI DUP3 ADD PUSH1 0x20 DUP2 CALLDATALOAD SWAP2 ADD PUSH1 0x1 PUSH1 0x1 PUSH1 0x40 SHL SUB DUP3 GT PUSH2 0x188 JUMPI DUP2 CALLDATASIZE SUB DUP2 SGT PUSH2 0x188 JUMPI PUSH1 0x1 SWAP3 PUSH1 0x20 SWAP3 PUSH2 0x209C SWAP3 PUSH2 0x2CD7 JUMP JUMPDEST PUSH2 0x100 DUP1 MLOAD PUSH1 0x20 ADD SWAP1 MSTORE SWAP15 ADD SWAP4 SWAP3 ADD SWAP1 PUSH2 0x1EA5 JUMP JUMPDEST PUSH2 0x20BB DUP2 DUP4 PUSH2 0x2C44 JUMP JUMPDEST SWAP1 PUSH1 0x1 PUSH1 0x1 PUSH1 0x40 SHL SUB DUP3 GT PUSH2 0x2FE JUMPI PUSH2 0x20DE DUP3 PUSH2 0x20D8 DUP10 SLOAD PUSH2 0x28F7 JUMP JUMPDEST DUP10 PUSH2 0x2B9D JUMP JUMPDEST PUSH1 0x0 SWAP1 PUSH1 0x1F DUP4 GT PUSH1 0x1 EQ PUSH2 0x2130 JUMPI SWAP3 PUSH2 0x2116 DUP4 PUSH1 0x1 SWAP6 SWAP5 PUSH1 0x20 SWAP5 DUP8 SWAP7 PUSH1 0x0 SWAP3 PUSH2 0x2125 JUMPI POP POP DUP2 PUSH1 0x1 SHL SWAP2 PUSH1 0x0 NOT SWAP1 PUSH1 0x3 SHL SHR NOT AND OR SWAP1 JUMP JUMPDEST DUP9 SSTORE JUMPDEST ADD SWAP6 ADD SWAP3 ADD SWAP2 SWAP4 PUSH2 0x1D29 JUMP JUMPDEST ADD CALLDATALOAD SWAP1 POP CODESIZE DUP1 PUSH2 0x27A JUMP JUMPDEST DUP8 DUP3 MSTORE PUSH1 0x20 DUP3 KECCAK256 SWAP2 PUSH1 0x1F NOT DUP5 AND DUP2 JUMPDEST DUP2 DUP2 LT PUSH2 0x2182 JUMPI POP SWAP4 PUSH1 0x20 SWAP4 PUSH1 0x1 SWAP7 SWAP4 DUP8 SWAP7 SWAP4 DUP4 DUP9 SWAP6 LT PUSH2 0x2168 JUMPI JUMPDEST POP POP POP DUP2 SHL ADD DUP9 SSTORE PUSH2 0x2119 JUMP JUMPDEST ADD CALLDATALOAD PUSH1 0x0 NOT PUSH1 0x3 DUP5 SWAP1 SHL PUSH1 0xF8 AND SHR NOT AND SWAP1 SSTORE CODESIZE DUP1 DUP1 PUSH2 0x215B JUMP JUMPDEST SWAP2 SWAP4 PUSH1 0x20 PUSH1 0x1 DUP2 SWAP3 DUP8 DUP8 ADD CALLDATALOAD DUP2 SSTORE ADD SWAP6 ADD SWAP3 ADD PUSH2 0x213F JUMP JUMPDEST DUP4 PUSH1 0x0 MSTORE DUP3 PUSH1 0x20 PUSH1 0x0 KECCAK256 SWAP2 DUP3 ADD SWAP2 ADD JUMPDEST DUP2 DUP2 LT PUSH2 0x21B7 JUMPI POP PUSH2 0x1D1B JUMP JUMPDEST DUP1 PUSH2 0x21C4 PUSH1 0x1 SWAP3 SLOAD PUSH2 0x28F7 JUMP JUMPDEST DUP1 PUSH2 0x21D1 JUMPI JUMPDEST POP ADD PUSH2 0x21AA JUMP JUMPDEST PUSH1 0x1F DUP2 GT DUP4 EQ PUSH2 0x21E7 JUMPI POP PUSH1 0x0 DUP2 SSTORE JUMPDEST DUP13 PUSH2 0x21CA JUMP JUMPDEST PUSH2 0x2205 SWAP1 DUP3 PUSH1 0x0 MSTORE DUP4 PUSH1 0x1F PUSH1 0x20 PUSH1 0x0 KECCAK256 SWAP3 ADD PUSH1 0x5 SHR DUP3 ADD SWAP2 ADD PUSH2 0x2B86 JUMP JUMPDEST DUP1 PUSH1 0x0 MSTORE PUSH1 0x0 PUSH1 0x20 DUP2 KECCAK256 DUP2 DUP4 SSTORE SSTORE PUSH2 0x21E1 JUMP JUMPDEST ADD CALLDATALOAD SWAP1 POP DUP11 DUP1 PUSH2 0x27A JUMP JUMPDEST DUP4 DUP3 MSTORE PUSH1 0x20 DUP3 KECCAK256 SWAP2 PUSH1 0x1F NOT DUP5 AND DUP2 JUMPDEST DUP2 DUP2 LT PUSH2 0x226F JUMPI POP SWAP1 DUP5 PUSH1 0x1 SWAP6 SWAP5 SWAP4 SWAP3 LT PUSH2 0x2255 JUMPI JUMPDEST POP POP POP DUP2 SHL ADD SWAP1 SSTORE PUSH2 0x1CEA JUMP JUMPDEST ADD CALLDATALOAD PUSH1 0x0 NOT PUSH1 0x3 DUP5 SWAP1 SHL PUSH1 0xF8 AND SHR NOT AND SWAP1 SSTORE DUP10 DUP1 DUP1 PUSH2 0x2248 JUMP JUMPDEST SWAP2 SWAP4 PUSH1 0x20 PUSH1 0x1 DUP2 SWAP3 DUP8 DUP8 ADD CALLDATALOAD DUP2 SSTORE ADD SWAP6 ADD SWAP3 ADD PUSH2 0x2232 JUMP JUMPDEST ADD CALLDATALOAD SWAP1 POP DUP10 DUP1 PUSH2 0x27A JUMP JUMPDEST DUP4 DUP3 MSTORE PUSH1 0x20 DUP3 KECCAK256 SWAP2 PUSH1 0x1F NOT DUP5 AND DUP2 JUMPDEST DUP2 DUP2 LT PUSH2 0x22DE JUMPI POP SWAP1 DUP5 PUSH1 0x1 SWAP6 SWAP5 SWAP4 SWAP3 LT PUSH2 0x22C4 JUMPI JUMPDEST POP POP POP DUP2 SHL ADD SWAP1 SSTORE PUSH2 0x1C80 JUMP JUMPDEST ADD CALLDATALOAD PUSH1 0x0 NOT PUSH1 0x3 DUP5 SWAP1 SHL PUSH1 0xF8 AND SHR NOT AND SWAP1 SSTORE DUP9 DUP1 DUP1 PUSH2 0x22B7 JUMP JUMPDEST SWAP2 SWAP4 PUSH1 0x20 PUSH1 0x1 DUP2 SWAP3 DUP8 DUP8 ADD CALLDATALOAD DUP2 SSTORE ADD SWAP6 ADD SWAP3 ADD PUSH2 0x22A1 JUMP JUMPDEST ADD CALLDATALOAD SWAP1 POP DUP9 DUP1 PUSH2 0x27A JUMP JUMPDEST DUP4 DUP3 MSTORE PUSH1 0x20 DUP3 KECCAK256 SWAP2 PUSH1 0x1F NOT DUP5 AND DUP2 JUMPDEST DUP2 DUP2 LT PUSH2 0x234D JUMPI POP SWAP1 DUP5 PUSH1 0x1 SWAP6 SWAP5 SWAP4 SWAP3 LT PUSH2 0x2333 JUMPI JUMPDEST POP POP POP DUP2 SHL ADD SWAP1 SSTORE PUSH2 0x1C16 JUMP JUMPDEST ADD CALLDATALOAD PUSH1 0x0 NOT PUSH1 0x3 DUP5 SWAP1 SHL PUSH1 0xF8 AND SHR NOT AND SWAP1 SSTORE DUP8 DUP1 DUP1 PUSH2 0x2326 JUMP JUMPDEST SWAP2 SWAP4 PUSH1 0x20 PUSH1 0x1 DUP2 SWAP3 DUP8 DUP8 ADD CALLDATALOAD DUP2 SSTORE ADD SWAP6 ADD SWAP3 ADD PUSH2 0x2310 JUMP JUMPDEST ADD CALLDATALOAD SWAP1 POP DUP8 DUP1 PUSH2 0x27A JUMP JUMPDEST DUP4 DUP3 MSTORE PUSH1 0x20 DUP3 KECCAK256 SWAP2 PUSH1 0x1F NOT DUP5 AND DUP2 JUMPDEST DUP2 DUP2 LT PUSH2 0x23BC JUMPI POP SWAP1 DUP5 PUSH1 0x1 SWAP6 SWAP5 SWAP4 SWAP3 LT PUSH2 0x23A2 JUMPI JUMPDEST POP POP POP DUP2 SHL ADD SWAP1 SSTORE PUSH2 0x1BAD JUMP JUMPDEST ADD CALLDATALOAD PUSH1 0x0 NOT PUSH1 0x3 DUP5 SWAP1 SHL PUSH1 0xF8 AND SHR NOT AND SWAP1 SSTORE DUP7 DUP1 DUP1 PUSH2 0x2395 JUMP JUMPDEST SWAP2 SWAP4 PUSH1 0x20 PUSH1 0x1 DUP2 SWAP3 DUP8 DUP8 ADD CALLDATALOAD DUP2 SSTORE ADD SWAP6 ADD SWAP3 ADD PUSH2 0x237F JUMP JUMPDEST ADD CALLDATALOAD SWAP1 POP DUP7 DUP1 PUSH2 0x27A JUMP JUMPDEST PUSH1 0x1F NOT DUP3 AND SWAP6 DUP4 DUP3 MSTORE PUSH1 0x20 DUP3 KECCAK256 SWAP2 DUP1 JUMPDEST DUP9 DUP2 LT PUSH2 0x242B JUMPI POP DUP4 PUSH1 0x1 SWAP6 SWAP7 SWAP8 SWAP9 LT PUSH2 0x2411 JUMPI JUMPDEST POP POP POP DUP2 SHL ADD SWAP1 SSTORE PUSH2 0x1B43 JUMP JUMPDEST ADD CALLDATALOAD PUSH1 0x0 NOT PUSH1 0x3 DUP5 SWAP1 SHL PUSH1 0xF8 AND SHR NOT AND SWAP1 SSTORE DUP6 DUP1 DUP1 PUSH2 0x2404 JUMP JUMPDEST SWAP1 SWAP3 PUSH1 0x20 PUSH1 0x1 DUP2 SWAP3 DUP7 DUP7 ADD CALLDATALOAD DUP2 SSTORE ADD SWAP5 ADD SWAP2 ADD PUSH2 0x23EF JUMP JUMPDEST ADD CALLDATALOAD SWAP1 POP DUP6 DUP1 PUSH2 0x27A JUMP JUMPDEST PUSH1 0x1F NOT DUP3 AND SWAP5 DUP4 DUP3 MSTORE PUSH1 0x20 DUP3 KECCAK256 SWAP2 DUP1 JUMPDEST DUP8 DUP2 LT PUSH2 0x2499 JUMPI POP DUP4 PUSH1 0x1 SWAP6 SWAP7 SWAP8 LT PUSH2 0x247F JUMPI JUMPDEST POP POP POP DUP2 SHL ADD SWAP1 SSTORE PUSH2 0x1AD4 JUMP JUMPDEST ADD CALLDATALOAD PUSH1 0x0 NOT PUSH1 0x3 DUP5 SWAP1 SHL PUSH1 0xF8 AND SHR NOT AND SWAP1 SSTORE DUP5 DUP1 DUP1 PUSH2 0x2472 JUMP JUMPDEST SWAP1 SWAP3 PUSH1 0x20 PUSH1 0x1 DUP2 SWAP3 DUP7 DUP7 ADD CALLDATALOAD DUP2 SSTORE ADD SWAP5 ADD SWAP2 ADD PUSH2 0x245E JUMP JUMPDEST POP PUSH1 0x2 SLOAD PUSH1 0x1 PUSH1 0x1 PUSH1 0xA0 SHL SUB AND CALLER EQ PUSH2 0x19C2 JUMP JUMPDEST CALLVALUE PUSH2 0x188 JUMPI PUSH2 0x24D3 CALLDATASIZE PUSH2 0x28B8 JUMP JUMPDEST PUSH1 0x1 PUSH1 0x1 PUSH1 0xA0 SHL SUB SWAP1 SWAP2 AND PUSH1 0x0 DUP2 DUP2 MSTORE PUSH1 0x3 PUSH1 0x20 MSTORE PUSH1 0x40 SWAP1 KECCAK256 SLOAD PUSH2 0x24F8 DUP2 ISZERO ISZERO PUSH2 0x2A8D JUMP JUMPDEST PUSH1 0x0 MSTORE PUSH1 0x4 PUSH1 0x20 MSTORE PUSH2 0x2518 PUSH1 0xFF PUSH1 0x6 PUSH1 0x40 PUSH1 0x0 KECCAK256 ADD SLOAD AND PUSH2 0x1E0 DUP2 PUSH2 0x29B4 JUMP JUMPDEST DUP1 PUSH1 0x0 MSTORE PUSH1 0x3 PUSH1 0x20 MSTORE PUSH1 0x40 PUSH1 0x0 KECCAK256 SLOAD SWAP1 PUSH2 0x2533 DUP3 ISZERO ISZERO PUSH2 0x2B0C JUMP JUMPDEST CALLER SUB PUSH2 0x25DF JUMPI JUMPDEST PUSH1 0x0 MSTORE PUSH1 0x4 PUSH1 0x20 MSTORE PUSH1 0x4 PUSH1 0x40 PUSH1 0x0 KECCAK256 ADD DUP2 MLOAD PUSH1 0x1 PUSH1 0x1 PUSH1 0x40 SHL SUB DUP2 GT PUSH2 0x2FE JUMPI PUSH2 0x2568 DUP2 PUSH2 0x257 DUP5 SLOAD PUSH2 0x28F7 JUMP JUMPDEST PUSH1 0x20 SWAP3 PUSH1 0x1F DUP3 GT PUSH1 0x1 EQ PUSH2 0x2599 JUMPI PUSH2 0x28F SWAP3 SWAP4 DUP3 SWAP2 PUSH1 0x0 SWAP3 PUSH2 0x293 JUMPI POP POP DUP2 PUSH1 0x1 SHL SWAP2 PUSH1 0x0 NOT SWAP1 PUSH1 0x3 SHL SHR NOT AND OR SWAP1 JUMP JUMPDEST PUSH1 0x1F NOT DUP3 AND SWAP4 DUP4 PUSH1 0x0 MSTORE DUP1 PUSH1 0x0 KECCAK256 SWAP2 PUSH1 0x0 JUMPDEST DUP7 DUP2 LT PUSH2 0x25C7 JUMPI POP DUP4 PUSH1 0x1 SWAP6 SWAP7 LT PUSH2 0x2CD JUMPI POP POP POP DUP2 SHL ADD SWAP1 SSTORE STOP JUMPDEST SWAP2 SWAP3 PUSH1 0x20 PUSH1 0x1 DUP2 SWAP3 DUP7 DUP6 ADD MLOAD DUP2 SSTORE ADD SWAP5 ADD SWAP3 ADD PUSH2 0x25AB JUMP JUMPDEST CALLER PUSH1 0x0 MSTORE PUSH1 0x6 PUSH1 0x20 MSTORE PUSH1 0xFF PUSH1 0x40 PUSH1 0x0 KECCAK256 SLOAD AND DUP1 ISZERO PUSH2 0x2606 JUMPI JUMPDEST PUSH2 0x2601 SWAP1 PUSH2 0x2B49 JUMP JUMPDEST PUSH2 0x253A JUMP JUMPDEST POP PUSH1 0x2 SLOAD PUSH1 0x1 PUSH1 0x1 PUSH1 0xA0 SHL SUB AND CALLER EQ PUSH2 0x25F8 JUMP JUMPDEST CALLVALUE PUSH2 0x188 JUMPI PUSH2 0x2628 CALLDATASIZE PUSH2 0x28B8 JUMP JUMPDEST PUSH1 0x1 PUSH1 0x1 PUSH1 0xA0 SHL SUB SWAP1 SWAP2 AND PUSH1 0x0 DUP2 DUP2 MSTORE PUSH1 0x3 PUSH1 0x20 MSTORE PUSH1 0x40 SWAP1 KECCAK256 SLOAD PUSH2 0x264D DUP2 ISZERO ISZERO PUSH2 0x2A8D JUMP JUMPDEST PUSH1 0x0 MSTORE PUSH1 0x4 PUSH1 0x20 MSTORE PUSH2 0x266D PUSH1 0xFF PUSH1 0x6 PUSH1 0x40 PUSH1 0x0 KECCAK256 ADD SLOAD AND PUSH2 0x1E0 DUP2 PUSH2 0x29B4 JUMP JUMPDEST DUP1 PUSH1 0x0 MSTORE PUSH1 0x3 PUSH1 0x20 MSTORE PUSH1 0x40 PUSH1 0x0 KECCAK256 SLOAD SWAP1 PUSH2 0x2688 DUP3 ISZERO ISZERO PUSH2 0x2B0C JUMP JUMPDEST CALLER SUB PUSH2 0x2734 JUMPI JUMPDEST PUSH1 0x0 MSTORE PUSH1 0x4 PUSH1 0x20 MSTORE PUSH1 0x3 PUSH1 0x40 PUSH1 0x0 KECCAK256 ADD DUP2 MLOAD PUSH1 0x1 PUSH1 0x1 PUSH1 0x40 SHL SUB DUP2 GT PUSH2 0x2FE JUMPI PUSH2 0x26BD DUP2 PUSH2 0x257 DUP5 SLOAD PUSH2 0x28F7 JUMP JUMPDEST PUSH1 0x20 SWAP3 PUSH1 0x1F DUP3 GT PUSH1 0x1 EQ PUSH2 0x26EE JUMPI PUSH2 0x28F SWAP3 SWAP4 DUP3 SWAP2 PUSH1 0x0 SWAP3 PUSH2 0x293 JUMPI POP POP DUP2 PUSH1 0x1 SHL SWAP2 PUSH1 0x0 NOT SWAP1 PUSH1 0x3 SHL SHR NOT AND OR SWAP1 JUMP JUMPDEST PUSH1 0x1F NOT DUP3 AND SWAP4 DUP4 PUSH1 0x0 MSTORE DUP1 PUSH1 0x0 KECCAK256 SWAP2 PUSH1 0x0 JUMPDEST DUP7 DUP2 LT PUSH2 0x271C JUMPI POP DUP4 PUSH1 0x1 SWAP6 SWAP7 LT PUSH2 0x2CD JUMPI POP POP POP DUP2 SHL ADD SWAP1 SSTORE STOP JUMPDEST SWAP2 SWAP3 PUSH1 0x20 PUSH1 0x1 DUP2 SWAP3 DUP7 DUP6 ADD MLOAD DUP2 SSTORE ADD SWAP5 ADD SWAP3 ADD PUSH2 0x2700 JUMP JUMPDEST CALLER PUSH1 0x0 MSTORE PUSH1 0x6 PUSH1 0x20 MSTORE PUSH1 0xFF PUSH1 0x40 PUSH1 0x0 KECCAK256 SLOAD AND DUP1 ISZERO PUSH2 0x275B JUMPI JUMPDEST PUSH2 0x2756 SWAP1 PUSH2 0x2B49 JUMP JUMPDEST PUSH2 0x268F JUMP JUMPDEST POP PUSH1 0x2 SLOAD PUSH1 0x1 PUSH1 0x1 PUSH1 0xA0 SHL SUB AND CALLER EQ PUSH2 0x274D JUMP JUMPDEST CALLVALUE PUSH2 0x188 JUMPI PUSH1 0x0 CALLDATASIZE PUSH1 0x3 NOT ADD SLT PUSH2 0x188 JUMPI PUSH1 0x20 SWAP1 PUSH1 0x1 SLOAD DUP2 MSTORE RETURN JUMPDEST SWAP2 SWAP1 DUP3 MLOAD SWAP3 DUP4 DUP3 MSTORE PUSH1 0x0 JUMPDEST DUP5 DUP2 LT PUSH2 0x27B6 JUMPI POP POP DUP3 PUSH1 0x0 PUSH1 0x20 DUP1 SWAP5 SWAP6 DUP5 ADD ADD MSTORE PUSH1 0x1F DUP1 NOT SWAP2 ADD AND ADD ADD SWAP1 JUMP JUMPDEST DUP1 PUSH1 0x20 DUP1 SWAP3 DUP5 ADD ADD MLOAD DUP3 DUP3 DUP7 ADD ADD MSTORE ADD PUSH2 0x2795 JUMP JUMPDEST PUSH1 0x4 CALLDATALOAD SWAP1 PUSH1 0x1 PUSH1 0x1 PUSH1 0xA0 SHL SUB DUP3 AND DUP3 SUB PUSH2 0x188 JUMPI JUMP JUMPDEST PUSH1 0x40 DUP2 ADD SWAP1 DUP2 LT PUSH1 0x1 PUSH1 0x1 PUSH1 0x40 SHL SUB DUP3 GT OR PUSH2 0x2FE JUMPI PUSH1 0x40 MSTORE JUMP JUMPDEST PUSH2 0x1E0 DUP2 ADD SWAP1 DUP2 LT PUSH1 0x1 PUSH1 0x1 PUSH1 0x40 SHL SUB DUP3 GT OR PUSH2 0x2FE JUMPI PUSH1 0x40 MSTORE JUMP JUMPDEST PUSH1 0xE0 DUP2 ADD SWAP1 DUP2 LT PUSH1 0x1 PUSH1 0x1 PUSH1 0x40 SHL SUB DUP3 GT OR PUSH2 0x2FE JUMPI PUSH1 0x40 MSTORE JUMP JUMPDEST SWAP1 PUSH1 0x1F DUP1 NOT SWAP2 ADD AND DUP2 ADD SWAP1 DUP2 LT PUSH1 0x1 PUSH1 0x1 PUSH1 0x40 SHL SUB DUP3 GT OR PUSH2 0x2FE JUMPI PUSH1 0x40 MSTORE JUMP JUMPDEST SWAP3 SWAP2 SWAP3 PUSH1 0x1 PUSH1 0x1 PUSH1 0x40 SHL SUB DUP3 GT PUSH2 0x2FE JUMPI PUSH1 0x40 MLOAD SWAP2 PUSH2 0x287D PUSH1 0x1F DUP3 ADD PUSH1 0x1F NOT AND PUSH1 0x20 ADD DUP5 PUSH2 0x2833 JUMP JUMPDEST DUP3 SWAP5 DUP2 DUP5 MSTORE DUP2 DUP4 ADD GT PUSH2 0x188 JUMPI DUP3 DUP2 PUSH1 0x20 SWAP4 DUP5 PUSH1 0x0 SWAP7 ADD CALLDATACOPY ADD ADD MSTORE JUMP JUMPDEST SWAP1 DUP1 PUSH1 0x1F DUP4 ADD SLT ISZERO PUSH2 0x188 JUMPI DUP2 PUSH1 0x20 PUSH2 0x28B5 SWAP4 CALLDATALOAD SWAP2 ADD PUSH2 0x2854 JUMP JUMPDEST SWAP1 JUMP JUMPDEST SWAP1 PUSH1 0x40 PUSH1 0x3 NOT DUP4 ADD SLT PUSH2 0x188 JUMPI PUSH1 0x4 CALLDATALOAD PUSH1 0x1 PUSH1 0x1 PUSH1 0xA0 SHL SUB DUP2 AND DUP2 SUB PUSH2 0x188 JUMPI SWAP2 PUSH1 0x24 CALLDATALOAD SWAP1 PUSH1 0x1 PUSH1 0x1 PUSH1 0x40 SHL SUB DUP3 GT PUSH2 0x188 JUMPI PUSH2 0x28B5 SWAP2 PUSH1 0x4 ADD PUSH2 0x289A JUMP JUMPDEST SWAP1 PUSH1 0x1 DUP3 DUP2 SHR SWAP3 AND DUP1 ISZERO PUSH2 0x2927 JUMPI JUMPDEST PUSH1 0x20 DUP4 LT EQ PUSH2 0x2911 JUMPI JUMP JUMPDEST PUSH4 0x4E487B71 PUSH1 0xE0 SHL PUSH1 0x0 MSTORE PUSH1 0x22 PUSH1 0x4 MSTORE PUSH1 0x24 PUSH1 0x0 REVERT JUMPDEST SWAP2 PUSH1 0x7F AND SWAP2 PUSH2 0x2906 JUMP JUMPDEST PUSH1 0x0 SWAP3 SWAP2 DUP2 SLOAD SWAP2 PUSH2 0x2941 DUP4 PUSH2 0x28F7 JUMP JUMPDEST DUP1 DUP4 MSTORE SWAP3 PUSH1 0x1 DUP2 AND SWAP1 DUP2 ISZERO PUSH2 0x2997 JUMPI POP PUSH1 0x1 EQ PUSH2 0x295D JUMPI POP POP POP JUMP JUMPDEST PUSH1 0x0 SWAP1 DUP2 MSTORE PUSH1 0x20 DUP2 KECCAK256 SWAP4 SWAP5 POP SWAP2 SWAP3 JUMPDEST DUP4 DUP4 LT PUSH2 0x297D JUMPI POP PUSH1 0x20 SWAP3 POP ADD ADD SWAP1 JUMP JUMPDEST PUSH1 0x1 DUP2 PUSH1 0x20 SWAP3 SWAP5 SWAP4 SWAP5 SLOAD DUP4 DUP6 DUP8 ADD ADD MSTORE ADD SWAP2 ADD SWAP2 SWAP1 PUSH2 0x296C JUMP JUMPDEST SWAP2 POP POP PUSH1 0x20 SWAP4 SWAP5 POP PUSH1 0xFF SWAP3 SWAP2 SWAP3 NOT AND DUP4 DUP4 ADD MSTORE ISZERO ISZERO PUSH1 0x5 SHL ADD ADD SWAP1 JUMP JUMPDEST PUSH1 0x2 GT ISZERO PUSH2 0x29BE JUMPI JUMP JUMPDEST PUSH4 0x4E487B71 PUSH1 0xE0 SHL PUSH1 0x0 MSTORE PUSH1 0x21 PUSH1 0x4 MSTORE PUSH1 0x24 PUSH1 0x0 REVERT JUMPDEST PUSH1 0x20 DUP2 MSTORE DUP2 MLOAD PUSH1 0x20 DUP3 ADD MSTORE PUSH1 0x1 DUP1 PUSH1 0xA0 SHL SUB PUSH1 0x20 DUP4 ADD MLOAD AND PUSH1 0x40 DUP3 ADD MSTORE PUSH1 0xE0 PUSH1 0xC0 PUSH2 0x2A40 PUSH2 0x2A2A PUSH2 0x2A14 PUSH1 0x40 DUP8 ADD MLOAD DUP6 PUSH1 0x60 DUP9 ADD MSTORE PUSH2 0x100 DUP8 ADD SWAP1 PUSH2 0x278A JUMP JUMPDEST PUSH1 0x60 DUP8 ADD MLOAD DUP7 DUP3 SUB PUSH1 0x1F NOT ADD PUSH1 0x80 DUP9 ADD MSTORE PUSH2 0x278A JUMP JUMPDEST PUSH1 0x80 DUP7 ADD MLOAD DUP6 DUP3 SUB PUSH1 0x1F NOT ADD PUSH1 0xA0 DUP8 ADD MSTORE PUSH2 0x278A JUMP JUMPDEST SWAP4 PUSH1 0xA0 DUP2 ADD MLOAD DUP3 DUP6 ADD MSTORE ADD MLOAD SWAP2 PUSH2 0x2A56 DUP4 PUSH2 0x29B4 JUMP JUMPDEST ADD MSTORE SWAP1 JUMP JUMPDEST PUSH1 0x40 SWAP1 PUSH1 0x3 NOT ADD SLT PUSH2 0x188 JUMPI PUSH1 0x4 CALLDATALOAD SWAP1 PUSH1 0x24 CALLDATALOAD SWAP1 JUMP JUMPDEST DUP1 SLOAD DUP3 LT ISZERO PUSH2 0x202B JUMPI PUSH1 0x0 MSTORE PUSH1 0x20 PUSH1 0x0 KECCAK256 SWAP1 PUSH1 0x1 SHL ADD SWAP1 PUSH1 0x0 SWAP1 JUMP JUMPDEST ISZERO PUSH2 0x2A94 JUMPI JUMP JUMPDEST PUSH1 0x40 MLOAD PUSH3 0x461BCD PUSH1 0xE5 SHL DUP2 MSTORE PUSH1 0x20 PUSH1 0x4 DUP3 ADD MSTORE PUSH1 0x13 PUSH1 0x24 DUP3 ADD MSTORE PUSH19 0x155CD95C881B9BDD081C9959DA5CDD195C9959 PUSH1 0x6A SHL PUSH1 0x44 DUP3 ADD MSTORE PUSH1 0x64 SWAP1 REVERT JUMPDEST ISZERO PUSH2 0x2AD6 JUMPI JUMP JUMPDEST PUSH1 0x40 MLOAD PUSH3 0x461BCD PUSH1 0xE5 SHL DUP2 MSTORE PUSH1 0x20 PUSH1 0x4 DUP3 ADD MSTORE PUSH1 0xE PUSH1 0x24 DUP3 ADD MSTORE PUSH14 0x155CD95C881CDD5CDC195B991959 PUSH1 0x92 SHL PUSH1 0x44 DUP3 ADD MSTORE PUSH1 0x64 SWAP1 REVERT JUMPDEST ISZERO PUSH2 0x2B13 JUMPI JUMP JUMPDEST PUSH1 0x40 MLOAD PUSH3 0x461BCD PUSH1 0xE5 SHL DUP2 MSTORE PUSH1 0x20 PUSH1 0x4 DUP3 ADD MSTORE PUSH1 0xE PUSH1 0x24 DUP3 ADD MSTORE PUSH14 0x155CD95C881B9BDD08199BDD5B99 PUSH1 0x92 SHL PUSH1 0x44 DUP3 ADD MSTORE PUSH1 0x64 SWAP1 REVERT JUMPDEST ISZERO PUSH2 0x2B50 JUMPI JUMP JUMPDEST PUSH1 0x40 MLOAD PUSH3 0x461BCD PUSH1 0xE5 SHL DUP2 MSTORE PUSH1 0x20 PUSH1 0x4 DUP3 ADD MSTORE PUSH1 0xE PUSH1 0x24 DUP3 ADD MSTORE PUSH14 0x139BDD08185D5D1A1BDC9A5E9959 PUSH1 0x92 SHL PUSH1 0x44 DUP3 ADD MSTORE PUSH1 0x64 SWAP1 REVERT JUMPDEST DUP2 DUP2 LT PUSH2 0x2B91 JUMPI POP POP JUMP JUMPDEST PUSH1 0x0 DUP2 SSTORE PUSH1 0x1 ADD PUSH2 0x2B86 JUMP JUMPDEST SWAP2 SWAP1 PUSH1 0x1F DUP2 GT PUSH2 0x2BAC JUMPI POP POP POP JUMP JUMPDEST PUSH2 0x2BD8 SWAP3 PUSH1 0x0 MSTORE PUSH1 0x20 PUSH1 0x0 KECCAK256 SWAP1 PUSH1 0x20 PUSH1 0x1F DUP5 ADD PUSH1 0x5 SHR DUP4 ADD SWAP4 LT PUSH2 0x2BDA JUMPI JUMPDEST PUSH1 0x1F ADD PUSH1 0x5 SHR ADD SWAP1 PUSH2 0x2B86 JUMP JUMPDEST JUMP JUMPDEST SWAP1 SWAP2 POP DUP2 SWAP1 PUSH2 0x2BCB JUMP JUMPDEST CALLDATALOAD PUSH1 0x1 PUSH1 0x1 PUSH1 0xA0 SHL SUB DUP2 AND DUP2 SUB PUSH2 0x188 JUMPI SWAP1 JUMP JUMPDEST ISZERO PUSH2 0x2BFF JUMPI JUMP JUMPDEST PUSH1 0x40 MLOAD PUSH3 0x461BCD PUSH1 0xE5 SHL DUP2 MSTORE PUSH1 0x20 PUSH1 0x4 DUP3 ADD MSTORE PUSH1 0xE PUSH1 0x24 DUP3 ADD MSTORE PUSH14 0x139BDD081C9959DA5CDD195C9959 PUSH1 0x92 SHL PUSH1 0x44 DUP3 ADD MSTORE PUSH1 0x64 SWAP1 REVERT JUMPDEST PUSH1 0x0 NOT DUP2 EQ PUSH2 0x141F JUMPI PUSH1 0x1 ADD SWAP1 JUMP JUMPDEST SWAP1 CALLDATALOAD SWAP1 PUSH1 0x1E NOT DUP2 CALLDATASIZE SUB ADD DUP3 SLT ISZERO PUSH2 0x188 JUMPI ADD DUP1 CALLDATALOAD SWAP1 PUSH1 0x1 PUSH1 0x1 PUSH1 0x40 SHL SUB DUP3 GT PUSH2 0x188 JUMPI PUSH1 0x20 ADD SWAP2 DUP2 CALLDATASIZE SUB DUP4 SGT PUSH2 0x188 JUMPI JUMP JUMPDEST SWAP1 CALLDATALOAD SWAP1 PUSH1 0x1E NOT DUP2 CALLDATASIZE SUB ADD DUP3 SLT ISZERO PUSH2 0x188 JUMPI ADD DUP1 CALLDATALOAD SWAP1 PUSH1 0x1 PUSH1 0x1 PUSH1 0x40 SHL SUB DUP3 GT PUSH2 0x188 JUMPI PUSH1 0x20 ADD SWAP2 DUP2 PUSH1 0x5 SHL CALLDATASIZE SUB DUP4 SGT PUSH2 0x188 JUMPI JUMP JUMPDEST SWAP2 SWAP1 PUSH2 0x2CC1 JUMPI PUSH1 0x20 DUP2 PUSH1 0x1 SWAP3 MLOAD DUP5 SSTORE ADD MLOAD SWAP2 ADD SSTORE JUMP JUMPDEST PUSH4 0x4E487B71 PUSH1 0xE0 SHL PUSH1 0x0 MSTORE PUSH1 0x0 PUSH1 0x4 MSTORE PUSH1 0x24 PUSH1 0x0 REVERT JUMPDEST SWAP1 DUP1 PUSH1 0x20 SWAP4 SWAP3 DUP2 DUP5 MSTORE DUP5 DUP5 ADD CALLDATACOPY PUSH1 0x0 DUP3 DUP3 ADD DUP5 ADD MSTORE PUSH1 0x1F ADD PUSH1 0x1F NOT AND ADD ADD SWAP1 JUMP JUMPDEST PUSH1 0x1 PUSH1 0x1 PUSH1 0x40 SHL SUB DUP2 GT PUSH2 0x2FE JUMPI PUSH1 0x5 SHL PUSH1 0x20 ADD SWAP1 JUMP JUMPDEST SWAP1 PUSH2 0x2D19 DUP2 PUSH2 0x29B4 JUMP JUMPDEST PUSH1 0xFF DUP1 NOT DUP4 SLOAD AND SWAP2 AND OR SWAP1 SSTORE JUMP JUMPDEST PUSH1 0x40 MLOAD SWAP1 PUSH2 0x2D34 DUP3 PUSH2 0x2818 JUMP JUMPDEST PUSH1 0x0 PUSH1 0xC0 DUP4 DUP3 DUP2 MSTORE DUP3 PUSH1 0x20 DUP3 ADD MSTORE PUSH1 0x60 PUSH1 0x40 DUP3 ADD MSTORE PUSH1 0x60 DUP1 DUP3 ADD MSTORE PUSH1 0x60 PUSH1 0x80 DUP3 ADD MSTORE DUP3 PUSH1 0xA0 DUP3 ADD MSTORE ADD MSTORE JUMP JUMPDEST SWAP1 PUSH1 0x40 MLOAD PUSH2 0x2D6D DUP2 PUSH2 0x27E1 JUMP JUMPDEST PUSH1 0x20 PUSH1 0x1 DUP3 SWAP5 DUP1 SLOAD DUP5 MSTORE ADD SLOAD SWAP2 ADD MSTORE JUMP INVALID LOG2 PUSH5 0x6970667358 0x22 SLT KECCAK256 MUL 0xB0 0xA6 0xE DUP7 SWAP2 0xF ADD RETURN 0xED ADD 0xEC LOG1 0xB0 DUP2 0x26 EQ 0xBC 0xB2 PUSH9 0xCF5ECC27D59347569C SELFBALANCE 0x2E 0xBA PUSH5 0x736F6C6343 STOP ADDMOD SHR STOP CALLER "
        },
        "methodIdentifiers": {
          "addressToUserId(address)": "b5ffbbcc",
          "decryptionKeyCIDs(uint256)": "784fd215",
          "documents(uint256)": "c2ed2b05",
          "getDecryptionKeyCID(uint256)": "1e6b1376",
          "getDocument(uint256)": "3f9b250a",
          "getUserByAddress(address)": "69c212f6",
          "getUserById(uint256)": "6ed6da9e",
          "getUserPurchases(uint256)": "ca7cd4d3",
          "getUserSales(uint256)": "a102fb9b",
          "isAuthorized(address)": "fe9fbb80",
          "nextDocumentId()": "11f581fe",
          "nextUserId()": "a1e6a255",
          "owner()": "8da5cb5b",
          "purchaseDocument(uint256)": "404f80e6",
          "registerUser((address,string,string,string))": "a4e07ee4",
          "removeDocument(uint256)": "d5df7559",
          "setAuthorized(address,bool)": "711bf9b2",
          "setDecryptionKeyCID(uint256,string)": "608c9784",
          "setUserStatus(uint256,uint8)": "5884b383",
          "tst()": "91888f2e",
          "updateProfileCid(address,string)": "2744cded",
          "updateProfileImageCid(address,string)": "288daa9b",
          "updateUserName(address,string)": "dcc9cad3",
          "uploadDocument((string,string,string,string,string,string,string[],uint256,address))": "2ebac8c6",
          "userPurchases(uint256,uint256)": "aeaed835",
          "userSales(uint256,uint256)": "c6c2d93d",
          "users(uint256)": "365b98b2"
        }
      }
    }
  }
}